:020000040800F2
:10000000A848002039010008932000080D1E0008B0
:1000100091200008A1020008193200080000000029
:10002000000000000000000000000000F5240008AF
:100030008D0500080000000071240008F724000866
:100040005301000853010008530100085301000840
:100050005301000853010008530100085301000830
:100060005301000853010008530100085301000820
:100070005301000853010008530100085301000810
:100080005301000853010008530100085301000800
:100090000D32000853010008530100085301000805
:1000A00053010008530100085301000853010008E0
:1000B00053010008530100085301000853010008D0
:1000C00053010008530100085301000853010008C0
:1000D00053010008530100085301000853010008B0
:1000E00053010008530100085301000853010008A0
:1000F0005301000853010008530100085301000890
:10010000530100085301000853010008530100087F
:1001100053010008530100085301000800000000CB
:1001200053010008DFF80CD000F038F80048004711
:100130003D320008A848002006488047064800478E
:10014000FEE7FEE7FEE7FEE7FEE7FEE7FEE7FEE787
:10015000FEE7FEE77D25000825010008D2B201E098
:1001600000F8012B491EFBD270470022F6E710B5BC
:1001700013460A4604461946FFF7F0FF204610BD15
:1001800030B504460020034600E05B1C934203D2D6
:10019000E05CCD5C401BF8D030BD0000064C074D44
:1001A00006E0E06840F0010394E807009847103447
:1001B000AC42F6D3FFF7BAFFAC330008FC330008BB
:1001C00044F2A90CC2F2000C604700002DE9F04394
:1001D0008BB0044614216846FFF7C7FF01AA01202F
:1001E0004FF00208002682E84101142105A8FFF71C
:1001F000BCFF03274FF4F0600796CDE90507274DB4
:1002000005A9284600F0C8FA022C01D0032C0ED113
:100210004FF4007969462846CDF8009000F0BCFA0A
:1002200001224946284600F094FB022C01D0012C03
:100230000AD1802000906946284600F0ADFA0122DC
:100240008021284600F085FB142105A8FFF78DFFCB
:100250004FF4807406AA1120059482E8410105A993
:10026000284600F099FA00222146284600F071FB4A
:10027000782000F0FBF905A92846069700F08CFAD3
:10028000C82000F0F3F94FF42070CDE9000769466B
:10029000284600F081FA0BB0BDE8F0830010024060
:1002A000FEE7000010B5D0F81822044692F800349A
:1002B000022B07D0032B05D0052B03D0062B01D032
:1002C000092B13D1022082F80004002382F80134A4
:1002D00082F8023482F8033482F8043482F8050488
:1002E00082F80634C2F80834C2F80C340848407D5D
:1002F000C00607D5204602F077FF2046BDE8104033
:1003000002F06CBE4888BDE8104000F0AFB90000B4
:100310002041002030B40B46D0F81812DC8891F848
:1003200000248CB1022A01D0052A11D15A88C1F8C3
:100330000824DA880323C1F80C2481F8003481F8FA
:10034000053430BC02F064B9052A05D0022A03D076
:1003500030BC194602F051B9012081F80704062289
:1003600081F80024002081F8020481F8030481F858
:10037000040481F8052430BC7047000070B5D0F843
:1003800018420546002194F80004032802D00628EC
:1003900045D128E0D4F80C0418B3042084F80004F4
:1003A00084F8021484F8031484F8041484F805040F
:1003B000D4F8080410B92078412809D0D5F81C12C7
:1003C000D4F8100404F201428B690121984726E019
:1003D000D5F81C12D4F8100404F201428B690021F4
:1003E000F4E7052011E094F80704012801D038B1A2
:1003F00015E0072084F80004012284F8022408E0B4
:100400000B48007D40070AD5022084F8000484F8D8
:10041000021484F8031484F8041484F8050404F224
:1004200001412846BDE87040062202F00BB90000E9
:100430002041002010B50446D0F8181218480022B8
:1004400081F80724007D40070BD5062081F80004C1
:1004500081F8022481F8032481F8042481F805043A
:1004600010BD082081F8000481F8022481F80324DB
:1004700081F8042481F80504204602F0B5FED4F882
:100480001C0280688047BFF34F8F06480168064A08
:1004900001F4E06111430160BFF34F8F00BFFDE73E
:1004A000204100200CED00E00400FA0570B50B4679
:1004B0000546C988D0F818420020B1B394F800145A
:1004C000022906D0092904D0C4F80C04C4F8080491
:1004D0004AE05988C4F80814DA88C4F80C2401B337
:1004E000012936D9092384F8003484F8020484F8F9
:1004F000030484F8040484F805348802D4F8101442
:10050000A0F500600844D5F81C124B6921469847B5
:100510000146B4F80C0482B22846BDE8704002F0EF
:1005200091B8032A02D9022101E023E0092184F8CD
:10053000001484F8020484F8030484F8040484F8A2
:1005400005142070212060704120A07003222146F4
:10055000E2E70F2184F8001484F8020484F803040D
:1005600084F8040484F805142846BDE87040194650
:1005700002F043B8022184F8001484F8020484F8DD
:10058000030484F8040484F8051470BD7047000067
:10059000074900224A6107490B6843F400730B6066
:1005A0000B6843F008030B6020F0FF000260704707
:1005B00068420020043C0240134A00211068C30531
:1005C000124804D5416941F0020141619115136857
:1005D0009B0505D5436943F00103436141F4007174
:1005E00013681B0505D5436943F00403436141F4D7
:1005F00000611368DB0405D5436943F020034361C0
:1006000041F4805111607047183C0240684200205C
:1006100070B5054600F0A2F90646134C09E0681CC7
:1006200007D025B100F09AF9801BA84201D9032018
:1006300070BD2068C007F2D12068800701D5022074
:1006400020602068C00508D42068000505D4206813
:10065000C00402D42068800503D5FFF7ADFF012058
:1006600070BD002070BD0000183C024031B500F0A4
:1006700075F9044600F072F90099001B8842F9D31D
:1006800038BD00002DE9F0471C4E05460F46307C72
:10069000012808D0012030744CF250384046FFF752
:1006A000B7FF18B127E00220BDE8F0874FF0FF3117
:1006B0003960C146DFF848806C6816E02046FFF7D5
:1006C00067FF4846FFF7A4FFD8F8002022F0080291
:1006D000C8F80020D8F8002022F40072C8F80020E2
:1006E00008B13C6007E004F58074D5E9011201EB24
:1006F0000221A142E2D800213174D5E768420020EE
:10070000043C02400348016841F0020101600020FE
:1007100070470000043C02402DE9F0410C4C1646A5
:100720000F46207C012809D0012020744CF250385B
:100730004046FFF76DFF002518B107E00220BDE835
:10074000F08165613E604046FFF762FF2574F6E781
:10075000684200200B480168890710D50068C0076F
:1007600005D008480849083001600849016005487B
:1007700007490C30016007490160002070470120E3
:1007800070470000043C0240EFCDAB890504030232
:10079000BFAE9D8C161514132DE9F84FDFF880B10C
:1007A00000234FF0010C4FF0030A4FF00F090BF13B
:1007B000040EAEE00CFA03F614EA060270D04C68A0
:1007C000022C01D0122C11D1DC0800EB84073C6A0A
:1007D0005D07ED0E09FA05F824EA0804D1F8108047
:1007E00008FA05F848EA0408C7F8208007685D00A1
:1007F00091F804800AFA05F408F00308A74308FA00
:1008000005F848EA0708C0F800804F68012F05D0B6
:10081000022F03D0112F01D0122F11D18768D1F8E8
:100820000C80A74308FA05F848EA0708C0F80880D2
:100830004768B7430E79C6F300169E403E434660B4
:10084000C668A6438C68AC403443C4604C68E4007E
:100850005ED5344C256845F001052560246823F0F9
:10086000030504F0010400942F4C2E19B4689D0771
:100870002F0F09FA07F5AC432C4DA84201D10025F2
:100880001FE02B4DA84201D101251AE0294DA842B5
:1008900001D1022515E0284DA84202D1032510E020
:1008A00036E0264DA84201D104250AE0244DA84295
:1008B00001D1052505E0234DA84201D1062500E020
:1008C0000725BD402543B560DBF800405D464E6816
:1008D0009443F60300D514432C60DEF800407546BF
:1008E0004E689443B60300D514432C600C4D083574
:1008F0002C684E689443F60200D514432C60084DD2
:100900000C352C684E689443B60200D514432C6015
:100910005B1C0A681446DA407FF44CAFBDE8F88FE0
:100920000004014020380240000001400000024065
:100930000004024000080240000C02400010024087
:1009400000140240001802400069084000D0012055
:1009500070470AB1816170470904FBE701480068EC
:10096000704700003C00002002480168491C0160FB
:10097000704700003C00002010B5032000F090F804
:10098000002000F005F800F017F8002010BD00006E
:1009900010B5044607484FF47A710068B0FBF1F0D7
:1009A00001F015FA00222146501E00F059F80020EF
:1009B00010BD000048410020224808B5016841F000
:1009C00000410160016801F000410091011F0A68C7
:1009D00042F001020A60096801F00101009101681A
:1009E00041F080510160006800F0805000900320C9
:1009F00000F056F8002211466FF00B0000F030F8BE
:100A0000002211466FF00A0000F02AF80022114679
:100A10006FF0090000F024F800221146501F00F08A
:100A20001FF800221146101F00F01AF8002211468C
:100A3000901E00F015F80022BDE808401146501E37
:100A400000F00EB82438024000F01F02012191404E
:100A50004009800000F1E020C0F80011704700005C
:100A6000F0B40E4B1B680C46C3F30223C3F1070519
:100A7000042D00D90425191D072901D2002300E007
:100A8000DB1E012606FA05F1491E214099409E40D1
:100A9000761E16403143F0BC01F0FCBA0CED00E0CC
:100AA000064900F0070208684FF6FF03184040EAC5
:100AB0000220034A10430860704700000CED00E07C
:100AC0000000FA0510B50C0607D501F07F01C1EB57
:100AD000C10100EB8100283005E0C1EBC10100EB52
:100AE000810000F5847099B232B101228272C18016
:100AF000190C0181002010BD002282728180F9E76B
:100B000005480129416803D021F001014160704787
:100B100041F00101FAE7000000000140C1EBC10211
:100B200000EB8202D0F81C02926B02F044B8C1EBD9
:100B3000C10200EB8202D0F81C02D2F8182102F0A8
:100B40008FB8F0B50A0601F07F0305D5C3EBC302E9
:100B500000EB8202283205E0C1EBC10200EB820209
:100B600002F58472002494701370C909517090F8D2
:100B7000E81101291FD0012180F8E811517848F6C9
:100B80008F7648F28003C1B11178056835F821707D
:100B90005FEA476C05D5374048F2C006374325F871
:100BA00021701278056848F6BF7635F8221031407A
:100BB00081F0300117E00220F0BD1578076837F8A2
:100BC00025105FEA414C05D531404CF28006314397
:100BD00027F82510127805684BF68F7635F8221025
:100BE000314081F44051194325F8221080F8E84142
:100BF0000020F0BD2DE9F04F01F07F05C5EBC504E5
:100C00000E0600EB840401D5283401E004F5847459
:100C1000C90925706170E260E37090F8E81101295C
:100C20000DD0012180F8E811E27848F68F114AB121
:100C3000012A21D0022A0DD0032A26D112E0022057
:100C4000BDE8F08F2378026832F823500D4045F458
:100C5000007118E02378026832F823500D4022F822
:100C6000235012E02278036833F822500D4045F4F7
:100C7000C06123F8221008E02378026832F823507C
:100C80000D4045F4806122F823102578066848F667
:100C90008F7148F2800236F8253048F6BF790B4054
:100CA00013432B4326F8253094F80AC04FF480658F
:100CB0004BF68F7A48F2C0064CF28007BCF1000F69
:100CC00063D094F800C0D0F800B00B4048F2801810
:100CD00043EA08032BF82C30E38823F0010C036867
:100CE0009B46B3F8503094F80080AE4603EBC8083A
:100CF00005EB48052BF805C0238923F0010503689F
:100D00009B46B3F850C094F80080042303EBC8035B
:100D10009C440EEB4C0C2BF80C5063782578D0F8E3
:100D200000C0002B3CF825304FEA43487ED0B8F194
:100D3000000F03DA0B403B432CF825302578D0F820
:100D400000C03CF825305FEA436803D50B403343CD
:100D50002CF825302678056835F826300B403B43C3
:100D600025F826302578016803EA0903134321F8A2
:100D700025302478016803EA0A03134321F824305C
:100D8000002180F8E81108465AE76378002BA38811
:100D90001FD023F001070368B3F850C094F8008017
:100DA0000CEBC80C05EB4C055F532578076837F84A
:100DB00025305FEA436C03D50B40334327F82530D9
:100DC0002478036833F8241001EA090181F0200136
:100DD00049E023F0010603689946B3F850C094F83F
:100DE0000080042303EBC803634405EB430C29F89C
:100DF0000C600368B3F8506094F800C04FF0060828
:100E000008EBCC0C664405EB46051D44E3684FF641
:100E1000FF7C3E2B0BD9C3F34F16DB0601D1761EA8
:100E2000B6B20CEA862343F4004308E01FE0C3F3A4
:100E30004F06DB0701D0761CB6B20CEA86232B8066
:100E40002578066836F825305FEA434C03D50B4019
:100E50003B4326F825302478036833F8241001EA50
:100E60000A0181F44051114323F8241088E7B8F1B6
:100E7000000F03DA0B403B432CF825302778056838
:100E800035F827305FEA436C03D50B40334325F830
:100E900027302778056835F827300B40334325F88D
:100EA0002730267803EA0A03056883F4405111438A
:100EB00025F826102378056801EA0901114325F871
:100EC00023105DE7F0B501F07F04C4EBC40100EB33
:100ED00081011D46C1E946230022C1F8202181F885
:100EE000092181F80841D1F8144101F58471A34228
:100EF00001D92346EA1A4A618D7A06264FF6FF7217
:100F00004FF48064A5B10568B5F8507091F800C041
:100F10004FF0020E0EEBCC0C674404EB47072F4456
:100F20003E2B28D9C3F34F155FEAC36C1CD01DE0DC
:100F30000568B5F8507091F800C03E2B06EBCC0662
:100F40003E4404EB4604254428D9C3F34F14DB0682
:100F500021D000BF02EA842242F4004202E000BF36
:100F600002EA84222A802AE06D1EADB202EA8525BB
:100F700045F4004508E0C3F34F055FEAC37C01D0A8
:100F80006D1CADB202EA85253D804D78002DCFD095
:100F9000012D0AD013E0641EA4B2DBE7C3F34F04B3
:100FA000DB07DDD0641CA4B2DAE70268B2F8505067
:100FB0000F7806EBC706354404EB45041353097854
:100FC00002684BF68F7332F82100184080F44050CD
:100FD00048F28003184322F821000020F0BD30B50C
:100FE00090F8E821012A0CD0012480F8E8410B0692
:100FF00001F07F0207D5C2EBC20300EB8303283365
:1010000007E0022030BDC1EBC10300EB830303F511
:101010008473C9099C701A70597048F2800352B1E8
:101020000468002934F8221011D048F6BF75294011
:1010300081F0100110E002684BF6BF741188214066
:1010400081F4805181F010011943118007E04BF6C3
:101050008F75294081F48051194324F82210002112
:1010600080F8E811084630BD2DE9F041064601F050
:101070007F00C0EBC00106EB81040121C4E90E230F
:101080000022226484F8291004F8280F1D46E06825
:10109000834203D90546181A606100E06261A07AB4
:1010A0004FF002084FF4806780B12178306810F863
:1010B000212052061BD5B0F85020062303EBC101B6
:1010C000114407EB41014552228919E0ABB2A288D5
:1010D0002169306801F0B9F93068B0F85020237800
:1010E00008EBC301114407EB4101455226E0B0F87B
:1010F000503008EBC101194407EB41014552E28829
:10110000ABB22169306801F0A0F9617848F68F70C0
:1011100011B1012908D011E02278336833F8221088
:10112000014048F2C00006E02278336833F822100C
:1011300001404CF28000014323F8221021783268EC
:1011400048F6BF7332F82100184080F0300048F2B2
:101150008003184322F821000020BDE8F08110B57B
:1011600004460068B0F84400000402D5204600F0B0
:10117000A1FF2068B0F8441049050BD530F8441F92
:1011800021F480610180204600F0D8F8002120463B
:1011900000F0E9F82068B0F84410490404D530F8AC
:1011A000441F21F4804101802068B0F84410890474
:1011B00004D530F8441F21F4005101802068B0F8B4
:1011C0004410C90412D530F8401F21F004010180F9
:1011D00021684FF43D40A1F84000204600F0BBF8E4
:1011E000206830F8441F21F4805101802068B0F855
:1011F0004410090519D530F8441F21F4006101801D
:10120000206830F8401F41F008010180206830F864
:10121000401F41F0040101802068B0F84400C04341
:10122000C00402D5204600F0D7F82068B0F844107A
:10123000890507D530F8441F21F40071018020464C
:1012400000F08DF82068B0F84410C90504D530F8D6
:10125000441F21F48071018010BD70B504004FF06F
:10126000000604D094F8E901002510B106E0012041
:1012700070BD84F8E851204600F042F8032084F85D
:10128000E90101220CE0C6EBC60004EB800080F807
:10129000292000F8286F761CC570C560056145617E
:1012A0006068B042EFD8002010E0C0EBC00104EB52
:1012B000810181F8095181F8080181F80B51C1F8C9
:1012C0001451C1F81851401CC1F81C516168814289
:1012D000EBD82068A0F840202068A0F84050206893
:1012E000A0F844502068A0F8505021684FF43F40C7
:1012F000A1F8400084F8245084F8E921002070BD52
:1013000008B500680B49884212D10B48016841F4C6
:10131000000101600068002200F400000090114606
:101320001420FFF79DFBBDE808401420FFF78CBB9D
:1013300008BD0000005C00402438024010B504469F
:101340000121D0F81C0201F05FFDD4F81C02BDE8B9
:10135000104001F028BDD0F81C0201F043BDD0F8C8
:101360001C0201F045BD90F8E821012A0AD00122B3
:1013700080F8E82141B180F82410002180F8E811BC
:10138000084670470220704702688021A2F84C107E
:10139000F3E7D0F81C2200F5F671104601F047BDC6
:1013A00010B50121FFF7ACFB002010BD90F8E8114B
:1013B00001290FD002680121A2F840100268002123
:1013C000A2F8441003680322A3F8402080F8E81133
:1013D000084670470220704710B50446D0F81C023A
:1013E00001F082FDA069002804D00348016841F0A3
:1013F0000601016010BD000010ED00E02DE9F0478E
:10140000DFF8BC8105460E46D8F8000000F0010068
:10141000B04214D2012E05D1D8F8001041F00401D9
:10142000C8F80010D8F8001021F001013143C8F8C5
:101430000010D8F8000000F00100B04271D1287807
:10144000604C800705D52068A96820F0F0000843AB
:1014500020602878C00771D05A4A5A4B6968012029
:10146000083A2C33022910D003292ED001292FD07D
:101470005FEA402797FAA7FCBCFA8CFC4CF0200CE2
:101480005FEA5C1C04D0126803E04FF40037F1E718
:101490001A6897FAA7F3B3FA83F303F01F0398408F
:1014A000024262D0206820F0030008432060FFF76A
:1014B00055FA6968074641F28830022910D003299D
:1014C0001CD00129814626D034E04FF00077D1E7C7
:1014D0000227CFE7FFF742FAC11B494501D926E0B1
:1014E00081462068C0F381000228F3D126E000BFC6
:1014F000FFF734FAC11B494501D918E0814620683D
:10150000C0F381000328F3D118E000BFFFF726FAEB
:10151000C11B49450BD82068C0F381000128F5D1D3
:101520000CE022E0FFF71AFAC11B494502D903205B
:10153000BDE8F087206810F00C0FF3D1D8F8001048
:10154000404601F00101B14211D9012E03D10168D9
:1015500041F004010160016821F0010131430160A3
:10156000006800F00100B04201D00120E0E72878D7
:10157000400705D52068E96820F4E0600843206052
:101580002878000706D52068296920F4605040EAD1
:10159000C100206000F022F82168F02292FAA2F245
:1015A00001F0F001B2FA82F2D140074A515CC84022
:1015B000064908600020FFF7EBF90020B8E70000BB
:1015C000003C0240083802406533000848410020D2
:1015D0000148006870470000484100201E4A116819
:1015E00001F00C00042813D0082813D00C2813D0C5
:1015F000101F006800F460414FF4604090FAA0F0C2
:10160000B0FA80F0C1404FF40040491C8840704758
:1016100012487047124870474FF4701393FAA3F3BF
:1016200001F47010B3FA83F3D8400E4B01F440017B
:101630001268185C4FF4400393FAA3F3B3FA83F3F0
:10164000D940491CD20301D5054A00E0034A504362
:10165000B0FBF1F070470000083802400024F400AD
:1016600000127A005C3300082DE9F84F0746007835
:10167000FB4EFC4DC0074FF0010428D0F84808305D
:1016800001684FF40038C1F38101022907D00168D5
:10169000C1F3810103291BD10068C00318D598FA52
:1016A000A8F0B0FA80F040F02000400901D0306886
:1016B00000E0286898FAA8F1B1FA81F101F01F0161
:1016C00004FA01F108425CD0786800287BD058E029
:1016D000786801280AD008B1052811D0306820F4B4
:1016E00080303060306820F4802002E0306840F4C0
:1016F00080303060786828B3FFF730F981460BE01E
:10170000306840F480203060F0E700BFFFF726F932
:10171000A0EB0900642872D898FAA8F0B0FA80F01B
:1017200040F02000400901D0306800E0286898FAB5
:10173000A8F1B1FA81F101F01F0104FA01F10842A8
:10174000E4D01EE0FFF70AF9814605E0FFF706F94D
:10175000A0EB09006428DED898FAA8F0B0FA80F06F
:1017600040F02000400901D0306800E0286898FA75
:10177000A8F1B1FA81F101F01F0104FA01F1084268
:10178000E4D13878DFF8E08280074FF0000B4FF0AB
:1017900002095FD5B24808300168C1F3810101290F
:1017A00007D00168C1F3810103291CD10068C0037F
:1017B00019D499FAA9F0B0FA80F040F0200040095D
:1017C00002D0306801E086E0286899FAA9F1B1FA00
:1017D00081F101F01F0104FA01F108422BD0F868F1
:1017E000012878D127E0F868A8B394FAA4F0B0FAF9
:1017F00080F048F82040FFF7B1F8824606E066E145
:10180000FFF7ACF8A0EB0A00022884D899FAA9F0F7
:10181000B0FA80F040F02000400901D0306800E0CC
:10182000286899FAA9F1B1FA81F101F01F0104FACF
:1018300001F10842E4D08A48001D01684FF4F853D2
:1018400093FAA3F33A69B3FA83F321F4F8519A4077
:101850001143016025E0FFE794FAA4F1B1FA81F1A8
:1018600048F821B0FFF77AF8824605E0FFF776F8EE
:10187000A0EB0A000228C8D899FAA9F1B1FA81F1BF
:1018800041F02001490901D0316800E0296899FA46
:10189000A9F0B0FA80F000F01F0004FA00F0014255
:1018A000E4D138784FF4007AC0067CD56C48083013
:1018B000006810F00C0F0FD0B9694FF48070002948
:1018C00072D090FAA0F0B0FA80F048F82040FFF70C
:1018D00045F800907EE087E09AFAAAF0B0FA80F02E
:1018E00040F02000400901D0306800E028689AFAF2
:1018F000AAF1B1FA81F101F01F0104FA01F10842E5
:1019000002D0B86900286FD05548396A001D0068B8
:1019100000F4604081421AD9084600F0ABFD00286F
:1019200062D14F48001D01683A6A21F460411143B9
:10193000016001684FF07F4393FAA3F3FA69B3FAA9
:1019400083F321F07F419A401143016018E044483D
:10195000001D026822F460420A43026001684FF0F1
:101960007F4393FAA3F3FA69B3FA83F321F07F413B
:101970009A4011430160386A00F07CFD0028CFD105
:101980004FF4604191FAA1F1386AB1FA81F1C8408F
:101990004FF40041401C8140314808300068F0227B
:1019A00000F0F00001E070E040E092FAA2F2B2FA3A
:1019B00082F2D0402D4A105CC1402D4801600020C9
:1019C000FEF7E6FF61E000BFFEF7C8FF0099401A8E
:1019D00002287CD89AFAAAF0B0FA80F040F02000F1
:1019E000400902D0306801E0BAE128689AFAAAF109
:1019F000B1FA81F101F01F0104FA01F10842E3D0CC
:101A00001748001D01683A6A21F4604111430160E2
:101A100001684FF07F4393FAA3F3FA69B3FA83F3B3
:101A200021F07F419A40114301602EE090FAA0F02E
:101A3000B0FA80F048F820B0FEF790FF009005E083
:101A4000FEF78CFF0099401A0228C2D89AFAAAF031
:101A5000B0FA80F040F0200040090BD030680AE076
:101A60000038024034380240000047426533000825
:101A70004841002028689AFAAAF1B1FA81F101F0F0
:101A80001F0104FA01F10842DAD13878000753D572
:101A9000786948B394FAA4F0B0FA80F008EB8000BB
:101AA000C0F88046FEF75AFF009005E0FEF756FFAB
:101AB0000099401A02288CD899FAA9F0B0FA80F05F
:101AC00040F04000B4EB501F02D1306801E08DE0DF
:101AD000286899FAA9F1B1FA81F101F01F0104FA1D
:101AE00001F21042E2D027E094FAA4F1B1FA81F1B8
:101AF00008EB8101C1F880B6FEF730FF009005E0E9
:101B0000FEF72CFF0099401A02286FD899FAA9F025
:101B1000B0FA80F040F04000B4EB501F01D13068C3
:101B200000E0286899FAA9F1B1FA81F101F01F01EA
:101B300004FA01F21042E3D1387840077AD59A4886
:101B40004FF000090068C0000AD49748016841F0CE
:101B50008051016000684FF0010900F08050009052
:101B600092480168C90511D4016841F4807101608F
:101B7000FEF7F4FE009005E0FEF7F0FE0099401A33
:101B8000642833D889480068C005F5D5B8680128AD
:101B90000AD008B1052811D0286820F48070286088
:101BA000286820F4806002E0286840F48070286093
:101BB000B86840B3FEF7D2FE00900CE0286840F40D
:101BC00080602860F0E700BFFEF7C8FE0099401A69
:101BD000B0F5FA7F0AD89AFAAAF0B0FA80F040F08D
:101BE0004000B4EB501F02D1306801E096E0286855
:101BF0009AFAAAF1B1FA81F101F01F0104FA01F297
:101C00001042E1D022E0FEF7A9FE009007E000BFFD
:101C1000FEF7A4FE0099401AB0F5FA7F7ED89AFA32
:101C2000AAF0B0FA80F040F04000B4EB501F02D1AF
:101C3000306801E012E028689AFAAAF1B1FA81F15D
:101C400001F01F0104FA01F21042E1D1B9F1000FD5
:101C500004D05548016821F080510160786AE0B3F2
:101C6000DFF84491A9F11C09D9F80010C1F38101F2
:101C7000032975D002284FF080714FF0007A584642
:101C80000BD091FAA1F1B1FA81F148F82100FEF7E9
:101C900065FEB046074656466CE04FF0807191FAFB
:101CA000A1F1B1FA81F18A0041495050FEF756FE88
:101CB000B3468046564605E0FEF750FEA0EB08000E
:101CC000022854D896FAA6F0B0FA80F040F020002E
:101CD000400903D0DBF8000001E061E0286896FAD3
:101CE000A6F1B1FA81F101F01F0104FA01F10842F5
:101CF000E2D1D7E90A103A6BD9F80030014323F456
:101D00007D031A431143C9F800104FF0807090FA18
:101D1000A0F0B0FA80F08100254800E027E00C50E8
:101D2000FEF71CFE074604E0FEF718FEC01B022863
:101D30001DD896FAA6F0B0FA80F040F020004009D5
:101D400002D0DBF8000000E0286896FAA6F1B1FAAC
:101D500081F101F01F0104FA01F10842E4D01FE013
:101D600020E000BFFEF7FAFDC01B022802D90320C5
:101D7000BDE8F88F96FAA6F0B0FA80F040F02000A7
:101D8000400902D0D8F8000000E0286896FAA6F1D1
:101D9000B1FA81F101F01F0104FA01F10842E1D129
:101DA0000020E5E70120E3E724380240007000400E
:101DB000000047424FF0E0210428086903D020F0DA
:101DC00004000861704740F00400FAE7704710B55E
:101DD000401EB0F1807F01D3012010BD4FF0E02400
:101DE00060610F21601700F055F90020A061072005
:101DF0002061002010BD10B5FFF7E8FF10BD4FF0C7
:101E0000E020016921F0020101617047FEE710B591
:101E1000FEF778FC002010BD1FB500210A4A03918F
:101E200090420FD3094B00F580729A420AD8CDE94F
:101E300000100122029203A96846FEF723FC00204D
:101E400004B010BD0220FBE70050000800000608A7
:101E500000200A2353709070D070704710B5FEF7C1
:101E600079FC002010BD000010B5002304E000BF85
:101E700010F8014BCC545B1C9342F9D3084610BDBB
:101E80002DE9F04717460E46804600240CE04444F6
:101E900028462146FEF794F9D0B9294620468022EB
:101EA000FEF76EF9A0B94C463519680614D104F155
:101EB0008009B945EBD90FE058F804203119022008
:101EC000FEF72AFC20B958F804003159884202D0A4
:101ED0000220BDE8F087241DBC42EDD30020F8E7C6
:101EE0002DE9F043554887B0016841F010010160C9
:101EF000016801F010010591016841F004010160E1
:101F0000016801F004010591016841F020010160C0
:101F1000016801F020010591016841F001010160B3
:101F2000016801F001010591016841F002010160C1
:101F3000016801F002010591016841F008010160AA
:101F40000068DFF8FC8000F0080005900122022103
:101F50004046FEF7FEFC002208214046FEF7F9FC51
:101F6000DFF8E090002260214846FEF7F2FC40F2E4
:101F7000BF700325CDE90005334E00246946029465
:101F80003046FEF709FC4FF64000CDE900046946F3
:101F900030460294FEF700FC43F6D570CDE900050B
:101FA000694602944046FEF7F7FB0A20009001269E
:101FB000CDE90164694640460394FEF7EDFBCDE9A7
:101FC0000064224F694638460294FEF7E5FB48F26A
:101FD000FE70CDE90005694602943846FEF7DCFB49
:101FE0002020CDE90004694640460294FEF7D4FB68
:101FF0004FF6FF70CDE90005694602941448FEF7DC
:10200000CBFB4FF69F70CDE9000569460294484628
:10201000FEF7C2FB0420CDE90005694602940D4895
:10202000FEF7BAFB60200090CDE90164694648469E
:102030000394FEF7B1FB07B0BDE8F0831C38024003
:1020400000080240000C0240001002400000024064
:10205000000402400014024010B50022084909485B
:1020600000F084FD0849074800F06BFF0749054868
:1020700000F0DCFBBDE81040024800F0AFBF0000FC
:102080004C41002080420020000000205800002029
:10209000FEE770470907090E002806DA00F00F0076
:1020A00000F1E02080F8141D704700F1E02080F876
:1020B000001470472DE9FC5F4FF000080446ADF8AE
:1020C000008048F60F7B4FF002094FF4806696E1DE
:1020D000BDF8041011F00F072DD030F82710ADF81F
:1020E0000010BDF8002012047AD540F68F7211401E
:1020F00020F82710C7EBC70004EB800595F8120104
:1021000005F5847500286CD02878D4F800C03CF818
:102110002010BCF8502049047ED509EBC0001044C3
:1021200006EB40003CF80000C0F309005FEA000A3B
:1021300073D0EA88CFE0BDF80410C9062AD402881B
:1021400004F1280502EA0B0202802068B0F8502052
:102150002B7809EBC301114406EB4101405AC0F34F
:1021600009002064A16B0844A06300212046FEF70B
:10217000D5FC94F824000028A9D068690028A6D1CD
:1021800094F82400216840F08000A1F84C0084F805
:10219000248034E1018804F58475ADF80010BDF8A1
:1021A000002012051ED5B0F850302A78062101EB28
:1021B000C201194406EB4101405A04F5F671C0F31F
:1021C0000903AB61AA88206800F028F9206840F66E
:1021D0008F720188114001802046FFF7DAF80EE186
:1021E000A0E054E0BDF800201204D2D540F68F7272
:1021F000114001802068B0F850302A78062101EBA8
:10220000C201194406EB4101405A83059B0DAB61A5
:102210000BD0AA88296901E04FE061E0206800F056
:10222000FDF8A96928690844286100212046FEF7C5
:102230007EFC2068B0F85010891D06EB4101421861
:10224000E8683E280CD9C0F34F11C00601D1491EE1
:1022500089B24FF6FF7000EA812040F4004009E0A7
:10226000C0F34F01C00701D0491C89B24FF6FF707F
:1022700000EA8120108020684BF68F72018811409F
:1022800081F4405148F2800211430180B7E0206898
:10229000B0F850302A78062101EBC201194406EB50
:1022A0004101415AC1F309015FEA010A24D0AA8819
:1022B0005346296900F0B2F81EE0062101EBC00088
:1022C000104406EB40003CF80000C0F309005FEA50
:1022D000000A05D02A8903466046296900F09EF865
:1022E0002A78216848F68F7331F82200184048F2A6
:1022F000C003184321F82200A96901EB0A00A86174
:10230000296901EB0A022A616B6913B1E968514539
:1023100004D929782046FEF70AFC03E029782046F4
:10232000FEF7D0FDBDF80000000668D52168C7EBB8
:10233000C70004EB800531F8270000EA0B0021F804
:10234000270095F8320028350028206812D0297817
:10235000B0F8503010F8212052061ED509EBC1010B
:10236000194406EB4101405A83059B0DAB6124D013
:10237000EA881EE0B0F85030297809EBC101194411
:1023800006EB4101405A83059B0DAB6121D0AA8821
:102390002969206800F059F81BE0062202EBC10110
:1023A000194406EB4101405A83059B0DAB6104D0F3
:1023B0002A892969206800F048F82878216848F6B9
:1023C0008F7231F8203013404CF28002134321F811
:1023D00020302068B0F850302A7809EBC201194447
:1023E00006EB4101405AC0F30900A86129690A18A7
:1023F0002A6129786B69204663B1FEF735FE2068B3
:10240000B0F84410ADF8041009043FF561AE0020A7
:10241000BDE8FC9FFEF782FBF1E7000000EB420005
:102420005B1CB0F8002401F8012B4FEA12225B0874
:1024300001F8012B00F2044006D000BF30F8042B55
:1024400021F8022B5B1EF9D1704710B55B1C00EB25
:1024500042005B0800F5806009D011F8012B5B1E7B
:1024600011F8014B42EA042220F8042BF5D110BDEB
:102470007047000038B51C49002309681B4A11F059
:10248000F00F23D118491C310C68E500184C03D516
:10249000216801F4C0540EE00D6845F080550D60D0
:1024A0000D6805F08055009524680D6804F4C0544B
:1024B00025F080550D60B4F5C05F07D1B0F5404FF1
:1024C00004D11068012340F004001060106820F06F
:1024D000010018431060106800F00100984201D01C
:1024E000012038BD002038BD08380240003C0240C1
:1024F00000700040704710B5FEF736FABDE8104096
:10250000FFF779BC1C4800B5016893B021F4C051B5
:1025100041F40061016001200090019002200990C7
:10252000C0030A9000010B90C0000C906846FFF7B2
:102530009BF800B1FEE70F200D9003200E900020C5
:102540000F901090119001210DA8FEF757FF00B1D8
:10255000FEE7FFF73DF84FF47A71B0FBF1F0FFF7BB
:1025600036FC0420FFF726FC00221146501EFEF721
:1025700077FA13B000BD0000007000400F480168FA
:1025800041F4807101600D4908310A680C4B1A4012
:102590000A6002680B4B1A400260026822F4802233
:1025A0000260086820F47D0008600020091D0860B2
:1025B00005494FF000600860704700000038024095
:1025C0000CC0FF88FEFFFEEE08ED00E010B5D0F86D
:1025D000142252689047002010BD134610B50A46D9
:1025E000002100F0D0FB002010BD134610B50A46B4
:1025F000002100F082FC002010BD10B504468021AF
:1026000000F042FC2046BDE81040002100F03CBC38
:1026100010B50323C0F80821C0F8F431C0F80C212C
:1026200013460A46002100F0AEFB002010BD10B595
:1026300005210023C0F8F4111A46194600F0A3FB47
:10264000002010BD10B502238261C0F8F431C261D0
:1026500013460A46002100F050FC002010BD10B5C2
:1026600004210023C0F8F4111A46194600F045FC75
:10267000002010BD002070470020704770B5044650
:10268000D0F8180200250221C0F80854C0F80C54F4
:1026900080F8001480F8015480F80514D4F818026A
:1026A00048B1D4F81C0204F506748068804720689D
:1026B00000F0A7FD2560002070BD002070477CB5AC
:1026C000D0F8184294F80014042902D0072963D0E6
:1026D00064E0D4F80814002589B101293AD9D0F86A
:1026E0001C028902D4F81024A1F500611144036989
:1026F000D4F80C242046984760B302207CBD217892
:1027000021B1212907D0412916D019E0D4F80C14A1
:1027100001291FD014E0D4F80C14052910D16078D9
:10272000A17800EB0120E17800EB0140217900EB7A
:102730000160C4F810040DE0D4F80C14052919D078
:10274000C4F80C540121ADF806108DF8005069460C
:10275000FFF753FFC4F80C540320C4F8085484F85E
:10276000000484F8025484F8035484F8045484F870
:10277000050413E06178A27801EB0221E27801EB15
:102780000241227901EB0261C4F81014D0F81C0256
:10279000C26808469047AFE7FDF74CFE00207CBDBD
:1027A0001B21018000487047204100200A21018040
:1027B000004870473C41002010B5062907D8D0F8E2
:1027C0001C020449006800F0AEF9024810BD002068
:1027D00010BD00006841002010B504464FF483602E
:1027E00000F010FDC4F81802C0B10021C0F81414A4
:1027F000C0F808140A4A00F58060C0E90312C171EC
:102800000222027041708170C17001714271817148
:10281000D4F81C0240688047002800D0022010BD78
:1028200000500008002070470020704709B1C0F830
:102830001C12002070470020704700002DE9F04175
:102840000B4600251E78D0F818122A462C4616F0A2
:10285000600660D0202E0DD15E7800220225072E62
:1028600078D2DFE806F05404080C0F313500194621
:10287000FDF750FD72E01946FDF718FE6EE0FDF71A
:102880007DFD6BE091F800040A2810D00A2081F841
:1028900000040E2381F8013481F8022481F8032416
:1028A00081F8042481F8050481F8062456E081F8B3
:1028B000005481F8012481F8022481F8032481F86E
:1028C000042481F80554EFE7012201F5806135E029
:1028D00091F80004022807D0032805D0052803D06A
:1028E000062801D0092839D181F8005481F8012443
:1028F00081F8022481F8032481F8042481F8055426
:1029000081F80624C1F80824C1F80C2426E01946F1
:10291000FDF7C8FC22E05E78062E04D00A2E11D006
:102920000B2E17D112E059882126B6EB112F04D1B6
:10293000DA880E4D092A00D909222946FFF782FEBE
:102940000CE007E0012201F21441F7E75A8812F087
:10295000FF0F06D01946FFF750FE02242046BDE8BF
:10296000F081D0B2C1F81404F8E700003241002031
:1029700010B50A46024903A000F0D5F8004810BD82
:102980007400002044465520436F6E66696700005E
:1029900012200880004870474400002010B50A4605
:1029A000024903A000F0BFF8004810BD74000020E9
:1029B00044465520496E7465726661636500000087
:1029C00004200880004870474000002010B50A46E7
:1029D000024903A000F0A7F8004810BD74000020D1
:1029E0004245454C0000000010B50A46024903A0CC
:1029F00000F099F8004810BD7400002054464220B1
:102A00004669726D77617265205570646174650006
:102A100010B50A46024903A000F085F8004810BD31
:102A200074000020303030303030303030303141C0
:102A300000000000F8B5044648880D46010A082940
:102A400054D2DFE801F05304091753534951D4F825
:102A50001012207C0A6819E0207C02260028D4F895
:102A6000140205D0C16A68468847014646704AE0AC
:102A7000816AF8E7C1B2062926D2DFE801F0030A2D
:102A80000F14191ED4F81012207C4A68694690472A
:102A900018E0D4F81012207C8A68F7E7D4F81012F6
:102AA000207CCA68F2E7D4F81012207C0A69EDE7AE
:102AB000D4F81012207C4A69E8E7D4F81012207C80
:102AC0008A69E3E701461EE0C1B2D4F814026A46FF
:102AD000836B20469847F5E7207C38B9D4F8140278
:102AE000416B68468847EDE7207C20B129462046A7
:102AF000FFF783FDF8BDD4F81402016B68468847E0
:102B0000014607204870BDF800000028F2D0EA888E
:102B1000002AEFD0824200D90246ADF800202046BC
:102B2000FFF790FDF8BD70B5002300281DD00446C6
:102B3000002502E06D1CEDB2641C2678002EF9D150
:102B4000022404EB45041480CC545B1C0322CA54B9
:102B500000245B1C06E0CA545B1CDAB28C54521C85
:102B6000D3B2401C0278002AF5D170BD10B580B1F7
:102B7000D0F8143213B10023C0F8143209B1C0F8F0
:102B80001012012180F8FC11027000F09FF8002063
:102B900010BD022010BD10B50024D0F82002FDF7B2
:102BA000D0FF30B1012801D0022801D0022400E07A
:102BB0000124204610BD2DE9F0411746044641B1DD
:102BC000D4F8140242698AB394F8FC01032842D075
:102BD00043E0D4F8F411002504F11400022933D1A4
:102BE000D0E902639E4207D9F31A83609AB239464C
:102BF0002046FFF7FAFC12E04068B0FBF3F103FB5C
:102C00001101A1B9984212D3D4F8F81188420ED21A
:102C1000002211462046FFF7E8FCC4F8F8510023D3
:102C20001A461946204600F0AEF80DE012E0D4F83E
:102C30001402C16829B194F8FC01032801D120468F
:102C400088472046FFF7F3FC94F80002012804D1DE
:102C500084F8005201E0204690470020BDE8F08152
:102C600070B51546044641B1D4F8140282693AB3EE
:102C700094F8FC01032824D025E0D4F8F41104F5DD
:102C8000827003291FD1D0E902218A420BD9531A3D
:102C900083600846834200D303469AB22946204601
:102CA000FFF79BFC0FE0D4F81402016929B194F8F6
:102CB000FC01032801D1204688472046FFF7CFFCBE
:102CC00001E020469047002070BD000010B5154976
:102CD00004460322C1F81C02C0F820121248086002
:102CE000082048600220C1E90202086100208861D2
:102CF00008620846FEF7B1FA20B140F21D110BA0A0
:102D000000F08BFA002218231146D4F82002FDF7B8
:102D1000D9FE582300228021D4F82002FDF7D2FEEC
:102D2000002010BD90060020005C00402E2E2F5386
:102D300072632F757362645F636F6E662E6300004B
:102D40000A0601F07F01D0F82002C1EBC10100EBBF
:102D5000810002D590F82A00704790F80A01704768
:102D600070B51D4613460024D0F820022A46FDF710
:102D700041FF30B1012801D0022801D0022400E037
:102D80000124204670BD10B50024D0F82002FEF7C3
:102D900099F830B1012801D0022801D0022400E0C6
:102DA0000124204610BD70B5002204464023114680
:102DB000FFF7D6FF40252B46002280212046C4F88D
:102DC0001051FFF7CDFF0120256284F8FC01D4F8F3
:102DD000180228B1D4F8140221794268204690479D
:102DE000002070BD90F8FD1180F8FC1100207047A4
:102DF00010B590F8FC11032904D1D0F81412C96958
:102E000001B18847002010BD01740020704710B543
:102E10000024D0F82002FEF7A6FA30B1012801D034
:102E2000022801D0022400E00124204610BD70B524
:102E3000044600F50270054600F06FF80120C4F862
:102E4000F401B4F80E02C4F8F80194F8080210F086
:102E50001F010AD001290DD0022910D000F08001F5
:102E6000204600F011F8002070BD2946204600F0F1
:102E7000BAF8F8E72946204600F09CF9F3E729461E
:102E8000204600F029F9EEE710B50024D0F8200222
:102E9000FEF7A5F830B1012801D0022801D00224A4
:102EA00000E00124204610BD10B50024D0F8200217
:102EB000FEF776FA30B1012801D0022801D00224B1
:102EC00000E00124204610BD10B50024D0F82002F7
:102ED000FEF76CFA30B1012801D0022801D002249B
:102EE00000E00124204610BD90F8FC1180F8FD118F
:102EF000042180F8FC110020704710B50024D0F8A0
:102F00002002FEF7B1F830B1012801D0022801D02B
:102F1000022400E00124204610BD0A7802704A789D
:102F200042708A78CB7802EB032242800A794B798F
:102F300002EB032282808A79C97902EB0121C180E8
:102F400070470246002011B1C2F8141270470220E7
:102F5000704710B5D0F8142202241AB112689047B5
:102F600000B90024204610BD70B50E461A4D897870
:102F700004462970012928D894F8FC01022802D0BF
:102F8000032822D105E099B10320616084F8FC0197
:102F900009E091B1606888420AD0C1B22046FFF7CB
:102FA00015FB297861602046FFF7D3FF02280CD07B
:102FB0002046BDE87040FFF752BB022084F8FC01B8
:102FC00020466160FFF702FBF2E731462046BDE88C
:102FD0007040FFF712BB00001C41002010B5FFF746
:102FE00063FF002010BD2DE9F04100264B7801253C
:102FF00032460A2B43D2DFE803F03C5842514208E4
:1030000005422A27FFF716FD63E004468888C8B901
:10301000C888B8B9887800F07F0794F8FC010328C5
:1030200010D084F8FE7139462046FFF7F0FE2046A6
:10303000FFF715FB1FB1022084F8FC0149E084F87A
:10304000FC5146E020461AE0FFF78EFF41E0CB88B6
:10305000012B14D190F8FC31022B02D0032B0ED19E
:1030600004E08260012200F1080114E00122011D48
:1030700011E090F8FC21022A04D0032A02D0FFF7C5
:10308000BCFA26E0C560D0F8041209B10321C16082
:10309000022200F10C01FFF7D5FA1AE00446488835
:1030A000012816D1C4F804520BE0044690F8FC0144
:1030B000022801D00328C5D14888012809D1C4F8C5
:1030C0000422D4F814028268204690472046FFF775
:1030D000C6FA3046BDE8F08170B50D460446287842
:1030E00000260979C0F34110012806D06878A0B302
:1030F00001281FD003283FD107E0D4F81402294645
:10310000826820469047002070BD94F8FC01022898
:1031100017D003282CD1688828B921B1802902D082
:103120002046FFF7B1FED4F81402294682682046F3
:10313000904713E094F8FC01022802D0032817D12D
:1031400003E0C9B180291BD116E06888A0B9480600
:1031500004D02046FFF71FFDE5E703E02046FFF718
:103160007EFA09E094F8FC01022807D003280BD06E
:1031700029462046FFF741FA304670BD4806FBD08D
:103180002046FFF781FEF7E7080601F07F0004EB19
:10319000001501D5143501E005F582752046FFF7CD
:1031A000CFFD00B101202860022229462046FFF70A
:1031B00049FAE1E770B5054690F8FC010C46032892
:1031C0000DD1207901280AD8D5F814028268284642
:1031D0009047E08830B92846FFF741FA02E02846D8
:1031E000FFF70BFA002070BD10B504460179D0F846
:1031F00014024268204690472046FFF765FE0020F3
:1032000010BD704700487047740200200148FDF768
:10321000A6BF000090060020FEE7FEE702E008C817
:10322000121F08C1002AFAD170477047002001E040
:1032300001C1121F002AFBD1704700000125FDF7D4
:103240009BFBFFF75FF9FEF74BFEE9033E48FDF7F6
:103250007BFB3E4C012805D101212046FDF774FB84
:1032600001280DD13A4E30683A490840B0F1005F6C
:1032700006D1FEF7C4FD7068316881F30888804785
:10328000A0460026344C3746012220212046FDF777
:1032900060FB6420FDF7EAF9002220212046FDF7BB
:1032A00058FB6420FDF7E2F901214046FDF74CFB95
:1032B00008B1761CF6B2012E16D900250122202174
:1032C0002046FDF746FB3220FDF7D0F900222021F1
:1032D0002046FDF73EFB3220FDF7C8F96D1CEDB22C
:1032E0000A2DEBD3032503E07F1CFFB20A2FCBD3BB
:1032F0002846FCF76BFF012220212046FDF729FB21
:10330000012240212046FDF724FBFEF7A5FE4FF4E5
:10331000FA76012240212046FDF71BFB032D0ED03B
:103320005FF00A00FDF7A2F9002240212046FDF7D8
:1033300010FB032D05D03046FDF798F9E9E730463C
:10334000F0E70A20F8E70000001002400000024009
:10335000005000080000FE2F000C02400304060885
:103360000C101820300000000000000000010203D3
:10337000040607080900000040496E7465726E611A
:103380006C20466C6173682020202F3078303830F4
:1033900030303030302F38302A32353642612C31DF
:1033A0003435362A3235364267000000FC330008D7
:1033B00000000020740000001C3200087034000877
:1033C000004000201C0100001C3200088C35000861
:1033D0001C4100204C0000001C3200087034000822
:1033E000740000203C0800002C320008D83500088A
:1033F00068410020400700002C320008D92700084F
:103400007D2600083D280008BF260008BB260008CE
:1034100075260008792600083728000825280008A6
:1034200029280008A1270008A1270008A1270008D3
:10343000AD270008B92700080000000004030704B6
:103440001201000200000040830411DF00020102AB
:1034500003010000783300085D1E00080F1E0008FD
:10346000191E0008811E0008691E0008511E000870
:10347000144A00211068C305134804D5416941F07E
:1034800002014161911513689B0505D5436943F01D
:103490000103436141F4007113681B0505D54369BD
:1034A00043F00403436141F400611368DB0405D574
:1034B000436943F02003436141F4805111600020CF
:1034C00070470000183C02406842002010B51149C6
:1034D00000E0401E0A68D20702D00028F9D115E0AA
:1034E000A0B10868800701D5022008600868C005FF
:1034F00008D40868000505D40868C00402D4086828
:10350000800505D5FFF7B4FF012010BD032010BDD5
:10351000002010BD183C02402DE9F0474FF0E02894
:103520000E46D8F808100746002541F00101C8F8FA
:1035300008104CF250394846FFF7C8FFD8B9124C72
:10354000206840F480602060206840F0080020601F
:1035500072B601CE47F825006D1C202DF9D34846E0
:10356000FFF7B4FF62B6216821F0080121602168ED
:1035700021F480612160D8F8082022F00102C8F807
:103580000820BDE8F0870000043C02400000000075
:1035900009021B00010102C0320904000000FE0103
:1035A000020609210BFF0000041A01000A060002AE
:1035B000000000400100000068FF1F009129000882
:1035C000C1290008CD290008E9290008112A0008AE
:0835D000712900089D29000883
:10500000E855002039510008AD430108435100081C
:10501000614301088D88000899C201080000000062
:10502000000000000000000000000000D17C01082A
:105030001D9F000800000000495A0108099D010851
:1050400053510008535100085351000853510008B0
:10505000535100085351000841A100087FA10008E6
:1050600089A1000893A100089DA1000853510008E0
:10507000D19E0008E19E00085351000853510008DA
:105080005351000853510008535100085351000870
:10509000DDC101085351000853510008A7A10008C1
:1050A0005351000853510008535100085351000850
:1050B0005351000853510008535100085351000840
:1050C0005351000853510008535100085351000830
:1050D00053510008F9AE01085351000809AF010807
:1050E0004BA10008096401085351000853510008FE
:1050F0005351000853510008535100085351000800
:1051000053510008535100085351000853510008EF
:10511000535100085351000853510008000000008B
:1051200053510008DFF80CD000F050FF0048004752
:10513000890E0208E85500200648804706480047C7
:10514000FEE7FEE7FEE7FEE7FEE7FEE7FEE7FEE737
:10515000FEE7FEE7919F0108255100082DE9F05F69
:105160000546002092469B468846064681464024D6
:105170001BE0284641464746224600F060F8534669
:105180005A46C01A914110D311461846224600F0E3
:1051900047F82D1A67EB01084F46224601200021EF
:1051A00000F03EF817EB00094E41201EA4F1010467
:1051B000DFDC484631462A464346BDE8F09F2DE9EC
:1051C000F0410024061B254671F1000605DA012492
:1051D0000027D0EB070067EB0101161E73F10006F4
:1051E00005DA0027D2EB0702012567EB0303FFF77F
:1051F000B5FF86460E4617469C46AC4204D00025B5
:10520000D0EB050E65EB010624B10020D2EB0007C0
:1052100060EB030C704631463A466346BDE8F081C8
:10522000202A04DB203A00FA02F100207047914066
:10523000C2F1200320FA03F3194390407047202A5B
:1052400004DB203A21FA02F00021704721FA02F330
:10525000D040C2F12002914008431946704740EA0D
:1052600001039B0703D009E008C9121F08C0042AE4
:10527000FAD203E011F8013B00F8013B521EF9D2CB
:105280007047D2B201E000F8012B491EFBD27047F3
:105290000022F6E710B513460A4604461946FFF702
:1052A000F0FF204610BD421C10F8011B0029FBD165
:1052B000801A704730B504460020034600E05B1CAE
:1052C000934203D2E05CCD5C401BF8D030BD30B5DA
:1052D00005460020034600E05B1C934205D2EC5CCF
:1052E000C85C201A01D1002CF6D130BD0FB400B536
:1052F0008DB010A909900B9000914FF0FF300A90EB
:1053000000200C9005480690054807906A4609A8B9
:105310000F9900F09DFC0DB05DF814FB6D5C00086A
:105320008B5C00082DE9FF5F1D464FF0FF3BD5E980
:10533000014691465F464FF00008A9697F1C01981D
:105340008847296A824688470028F6D1BAF1FF3F8C
:105350000CD024F4C064002E19DD600614D5BAF117
:105360002B0F09D0BAF12D0F0ED103E0584604B02F
:10537000BDE8F09F44F48064A9697F1C01988847C8
:10538000761E8246002E02DDBAF1300F03D0B9F14D
:10539000000F26D032E0A969761E44F400747F1C09
:1053A000019888478246002E05DDBAF1780F06D0B5
:1053B000BAF1580F03D0B9F1000F10D01EE0B9F1C7
:1053C000000F02D0B9F1100F18D1A969761E24F48C
:1053D00000747F1C019888478246102002E0082054
:1053E00000E00A20814609E008FB0908A969761E49
:1053F00044F400747F1C019888478246002E05DD26
:105400004946504600F00FFC0028EDDAE9690198A2
:105410008847A00502D46FF00100A8E7E00725D176
:10542000600613D5600502D5C8F1000000E04046D3
:1054300029680A1D2A600968220501D5087015E04F
:10544000220701D5088011E008600FE02868011DDF
:1054500029600068210502D580F8008006E0210758
:1054600002D5A0F8008001E0C0F8008038467EE751
:105470002DE9F04791460F4680460446002614F871
:10548000015B2DB100F0C2FB0068405DC007F6D1A2
:105490002B2D02D02D2D18D0641E4A4639462046A9
:1054A00000F004FC27B13968A14201D1C7F800809F
:1054B00071054FF002040BD54042002803DD17F0C0
:1054C000A3F90460A007BDE8F08746F48066E4E72E
:1054D0000028F8DA17F098F904606FF00040F2E75E
:1054E00070B5064617F090F9046805460A220021B7
:1054F0003046FFF7BDFF2C6070BDF0B480EA0102BA
:10550000D40F4200B2EB410F02D2024608461146C8
:105510004A0042D0C30DDDB2C1F3C752AD1A202DEF
:1055200035DAC1F3160141F4000204B15242C5F16B
:10553000200602FA06F12A411044B3EBD05F23D0D3
:10554000C4B1012DA0EBC35009DCF0BC4FF0004208
:1055500002EAC352DBB200F5000000F0FFBB4000DE
:1055600000F1807000EBC350A0F1807040EAD17070
:10557000490009E0490841EAC071A0EBC35000F5B9
:105580000000400800EBC350F0BC00F0DEBB6142FD
:10559000012202EB4101001BF6E7F0BC704781F0ED
:1055A0000041AAE780F00040A7E780EA010210B5B9
:1055B00002F00043400022D04A001FD0010E01EB50
:1055C0001261C0F35600C2F3560240F4000042F4E8
:1055D0000002A0FB022000047F39140400D0401C0C
:1055E00050EA124001D44000491EC2B20C0604EB3E
:1055F000D010401C4008802A02D003E0002010BDDB
:1056000020F00100002900DA0020184310BD30B45A
:1056100080EA010202F0004530F0004221F0004033
:1056200013D090B1C30DD40DC2F31601C0F3160010
:10563000E41A41F4000140F400027D34914201D3A8
:10564000641C00E04900002C02DA30BC00207047E6
:105650004FF400000023914201D3891A034340080C
:105660004FEA4101F7D151B1914202D14FF00041CF
:1056700005E002D24FF0010101E06FF0010103EB00
:10568000C450284430BC00F060BB2DE9FE4F80467A
:1056900081EA0300C00F0C46009021F0004123F086
:1056A0000045B8EB0200A94105D24046214690468C
:1056B0001C460B46024623F00040104347D0270DFE
:1056C000C7F30A00C3F30A510290401A0190402820
:1056D0006BDAC3F3130040F4801B0098924620B1AC
:1056E0000023D2EB030A63EB0B0B01985946C0F180
:1056F00040025046FFF794FD06460D465046594677
:10570000019A00F071FA10EB08006141002487EA69
:10571000115284EAE7731A4340D0009A62B3019AA7
:10572000012A4FEA075215DC001B61EB02014FF022
:10573000004202EA0752CDE90042001C41F5801107
:1057400032462B4600F047FB03B0BDE8F08F4046E1
:105750002146F9E7001B61EB0201001C41F58013B3
:1057600000185B412018A2F5001747EB030140EA3F
:10577000D570B6196D4111E06D084FEA360645EA5D
:10578000C0754FEA0752001B61EB0201001C41F596
:10579000801149084FEA30000019514132462B462A
:1057A00003B0BDE8F04F00F007BB009801224000B5
:1057B0000023D0EB020263EBE073009821464FEA2E
:1057C000E074B8EB000061EB0401E9E783F000430B
:1057D0005BE781F0004158E72DE9FE4F81EA0304C1
:1057E00004F0004421F0004100944FF0000B23F03E
:1057F000004350EA01045ED052EA03045BD0C3F3D5
:105800000A54C1F30A552C44A4F2F3340194A0FBCA
:105810000254C1F3130141F48011C3F3130343F4A1
:10582000801301FB024400FB034E840A970A44EAFA
:10583000815447EA8357A4FB076802958D0A05FB4C
:1058400007854FEA932C04FB0C542705029D4FEA71
:10585000065847EA1637B5EB08056EEB070C870EBE
:10586000920E47EA811742EA8312A7FB0201B6EBC8
:105870000B0164EB00042B0D43EA0C335E1844EB80
:105880001C50DA465146E7FB0201C5F313044FEA08
:105890000B3343EA14534FEA0432019C43EA0603F4
:1058A000A4F10C040294009CCDE900B400F093FA3A
:1058B00003B0BDE8F08F00200146F9E72DE9F04D77
:1058C00081EA030404F0004B21F0004514464FF038
:1058D000000A23F0004150EA050220D054EA0102F8
:1058E0001DD0C5F30A570246C5F31303C1F31300D5
:1058F000C1F30A5640F4801543F48013A7EB060861
:10590000101BD64608F2FD3873EB050002D308F1F0
:10591000010801E092185B41B8F1000F03DA0020A2
:105920000146BDE8F08D00204FF480110646844604
:105930000EE0171B73EB050705D3121B63EB050382
:1059400006434CEA010C49084FEA300092185B41CB
:1059500050EA0107EDD152EA030012D082EA0400B6
:1059600083EA0501084305D0101BAB4106D2012292
:10597000002306E000224FF0004302E06FF0010236
:1059800053101AEB06004CEB085110EB0A0041EBE8
:105990000B01BDE8F04D00F00FBAC10F80EAE070D6
:1059A0000844CA079623002100F0D8B996230022A4
:1059B000114600F0D3B90EB5C10F80EAE07008447B
:1059C000CA07002140F233438DE80E000A460B4619
:1059D00000F001FA03B000BD0EB540F23341029170
:1059E0000021CDE900110A460B4600F0F4F903B09E
:1059F00000BD0EB540F2334202920022CDE90022F2
:105A0000134600F0E8F903B000BD00F0004220F0BA
:105A10000040C10DC0F3160040F400007F2901DAF8
:105A200000207047962903DCC1F19601C84001E0CF
:105A300096398840002AF4D04042704720F0004058
:105A4000C10DC0F3160040F400007F2901DA0020E8
:105A50007047962903DCC1F19601C840704796391A
:105A60008840704770B5C1F30A5201F00045002428
:105A7000C1F3130140F2FF3341F480119A4201DA7D
:105A8000002070BD40F233439A42A2F2334203DC5D
:105A90005242FFF7D4FB00E090402C43F1D040424B
:105AA00070BDC1F30A5210B5C1F3130140F2FF33C8
:105AB00041F480119A4201DA002010BD40F23343D4
:105AC0009A42A2F2334203DC5242FFF7B8FB10BD08
:105AD000904010BD00F0004230F000400AD0C10DEF
:105AE00001F56071C0F3160042EA0151C208400797
:105AF00011437047002001467047000030B5041E76
:105B000071F1000404DB4FF00044404264EB0101FA
:105B1000141E73F1000405DB1C464FF00043524293
:105B200063EB04038B4208BF824230BD30B5041ED4
:105B300071F1000404DB4FF00044404264EB0101CA
:105B4000141E73F1000405DB1C464FF00043524263
:105B500063EB0403994208BF904230BD01F000435B
:105B600030B421F0004150EA010206D00A0DA2F53E
:105B70006072C1F31301002A02DC30BC00207047C0
:105B8000440F44EAC104C100E01830BC00EBC2502D
:105B900000F0DBB8002801DBC0F10040002901DB88
:105BA000C1F1004181427047002801DBC0F1004093
:105BB000002901DBC1F100418842704730B50B4636
:105BC000014600202022012409E021FA02F59D422D
:105BD00005D303FA02F5491B04FA02F52844151E01
:105BE000A2F10102F1DC30BD202A06DBCB17203AFE
:105BF00041FA02F043EAE07306E041FA02F3D040D2
:105C0000C2F120029140084319467047004870478E
:105C1000042E020810B50446FFF7F8FF0068005D87
:105C200000F0010010BD3A2800D2303820F02002E8
:105C3000412A01D3A2F13700884201D34FF0FF304F
:105C400070470000026811441378016018467047DD
:105C5000D16004495161044911620021116111466A
:105C600000F0C6B9455C0008155C0008426842B106
:105C7000016811F8013B23B1521EC0E90012184619
:105C800070470121C160881E704742685AB1C368DD
:105C9000016843B983688B4205D0491E521CC0E994
:105CA0000012002070474FF0FF3070472DE9F05F81
:105CB00082460078002715468B460AF10104B94652
:105CC000302801D09DB113E014F8010B012778288A
:105CD00003D0582801D045B10AE00DB1102D07D1ED
:105CE0000027102514F8010B02E0082500E00A2522
:105CF0000026B0460EE005FB080005FB06F1012773
:105D000001EB10461FFA80F8B6F5803F00D3B94684
:105D100014F8010B2946FFF786FF0028EBDABBF1E8
:105D2000000F05D00FB1641E00E05446CBF80040D0
:105D3000B9F1000F06D016F067FD02210160C81E00
:105D4000BDE8F09F48EA0640FAE70029A8BF70477F
:105D5000401C490008BF20F00100704710B4B0FAA1
:105D600080FC00FA0CF050EA010404BF10BC70473C
:105D700049B1CCF1200421FA04F411FA0CF118BF56
:105D8000012121430843A3EB0C01CB1D4FEA006125
:105D90004FEA102042BF002010BC704700EBC350F8
:105DA00010440029A4BF10BC7047401C490008BF24
:105DB00020F0010010BC704710B5141E73F10004F0
:105DC00008DA401C41F1000192185B411A4301D1ED
:105DD00020F0010010BD2DE9F04D92469B4611B117
:105DE000B1FA81F202E0B0FA80F220329046FFF779
:105DF00017FA04460F4640EA0A0041EA0B015346EF
:105E00005A46084313D0114653EA010019D0C8F18D
:105E100040025046FFF713FA05460E4650465946D3
:105E20004246FFF7FDF9084305D0012004E0204673
:105E30003946BDE8F08D0020054346EAE0762C4364
:105E400037430A986305E40AA0EB08000022FD0A24
:105E500044EA47540A3002D500200146E9E701052B
:105E600010196941DDE9084500196941BDE8F04DA7
:105E7000A2E72DE9F04D00231A461B1A8A4103DBE5
:105E800000200146BDE8F08DC1F30A52C1F31301B1
:105E900041F480154FF0000BD10702D100186D417D
:105EA000521E0027044640F2FF11384601EB620AF9
:105EB0003E468046024600204FF48011FFF7BFF9AE
:105EC000C2197141BB1846EB0100B4EB030C75EB32
:105ED000000C04D3E41A65EB000517460E4624199E
:105EE00008F101006D4180463428E3DDF91946EBE5
:105EF0000600091BA84103D24FF0FF32134601E010
:105F0000002213461BEB070046EB0A51BDE8F04D9B
:105F1000FFF752BF2DE9F041054621F000400C4645
:105F2000284309D0C4F30A5040F23341884205DDCA
:105F300028462146BDE8F0812846FBE740F2FE31C5
:105F4000884210DC0CDB4FEA043040EA155050EA7E
:105F5000053105D0104804F0004101430020E9E775
:105F600000200146E6E7A0F233404642C6F1400277
:105F700028462146FFF754F9074688462846214619
:105F80003246FFF75CF943463A46FFF715FF3246C3
:105F9000BDE8F041FFF744B90000F03FC1F30A52F9
:105FA000C1F3130140F2FF3341F480119A4202DA47
:105FB00000200146704740F233439A42A2F2334236
:105FC00002DC5242FFF73BB9FFF72AB9064C074DF6
:105FD00006E0E06840F0010394E8070098471034B9
:105FE000AC42F6D3FFF7A2F85C2F02087C2F020820
:105FF0002DE9F34F8BB04FF0000801F10C000C4677
:106000004FF0010B46460DF1080A0190626901212B
:1060100001989047051E2DD0252D2CD0216A884748
:10602000C0B16269012101989047216A8847002820
:10603000F7D1411E62690198904700E0761CA16982
:106040000B988847216A88470028F7D1E1690B98A7
:106050008847DBE7A1690B9888470746A84201D12A
:10606000761CD3E7E1690B9888477F1C02D1B8F111
:10607000000F6FD046E1002762693D46394601981E
:1060800090472A2804D1626901210198904701258F
:10609000DFF884926269012101989047A0F13001F4
:1060A0000A290AD24F45E5DC07EB870100EB4107DF
:1060B000303FDFD445F01005ECE7E90601D46FF07E
:1060C00000476C280AD04C2814D0682815D06A28BC
:1060D0000DD074281CD07A281AD01DE062690121E5
:1060E000019890476C2802D045F0040514E045F073
:1060F00002050DE045F020050AE0626901210198E2
:106100009047682802D045F0080505E045F4006591
:106110006269012101989047C4E9015765283DD083
:1061200019DC58287AD00CDC452837D004DC252827
:1061300026D0412831D131E046282FD047282CD114
:106140002CE05B2877D0612828D063287CD0642895
:1061500023D15AE0D0E06F2848D008DC66281DD053
:1061600067281BD0692821D06E2816D127E0702817
:1061700045D0732868D0752847D078280DD14DE0D8
:10618000A1690B988847054625283FF469AFE16966
:106190000B9888476D1C3FF46AAFB3E023466A460C
:1061A0006FF001000B99AFF300809EE045F04000D6
:1061B0006060A80723464FF0000236D43EE0E807AF
:1061C0007FF447AF2068011D21600068290501D5D3
:1061D00006701BE7290701D5068017E7A90703D535
:1061E000F117C0E9006111E706600FE745F04000D4
:1061F0006060A80723464FF0080216D41EE040F660
:106200000E0125EA0100606016E045F04000606084
:10621000A80723464FF00A0207D40FE045F04000DC
:106220006060A80708D5234610226FF001000B9983
:10623000AFF3008059E007E0234610226FF0010021
:106240000B99FFF76FF850E04FF000094F464B46AF
:10625000632802D05B2806D040E0E80601D4012084
:10626000A06001273AE062690121019890475E2809
:1062700005D14FF0010962694946019890472169AB
:1062800039B900210A46534643F82120491C082900
:10629000FADBB0B3216969B9C11700EBD1625311C0
:1062A0000AEB830122F01F02821A01200B68904042
:1062B00003430B6062690121019890475D28E8D192
:1062C000B9F1000F09D00020514651F82020D243E7
:1062D00041F82020401C0828F7DB02AB224600973B
:1062E0006FF001000B99AFF3008000280CDA401C1E
:1062F00008D1BBF1000F05D04FF0FF300DB0BDE865
:10630000F08FFFE74046F9E7E90701D108F10108FE
:1063100006444FF0000B79E6CCCCCC0C70B521F0E4
:10632000004303430CD0C1F30A550024D5EB040508
:1063300064EB0403D617AD1AB34102DB002001461B
:1063400070BD201841EB025170BD70B58C1810F86B
:10635000015B15F0070301D110F8013B2A1106D1AA
:1063600010F8012B03E010F8016B01F8016B5B1EC4
:10637000F9D12B0705D40023521E0DD401F8013B9F
:10638000FAE710F8013BCB1A921C03E013F8015B0B
:1063900001F8015B521EF9D5A142D8D3002070BD8F
:1063A00070B50446002520680068C0F38010F0B185
:1063B0002068806820F001002168886005F062FA9A
:1063C00005460EE005F05EFA401B022809D9E06C94
:1063D00040F01000E064206D40F0010020650120D5
:1063E00070BD20680068C0F380100028EAD100204A
:1063F000F6E770B505466C6AE06C00F0500050BBE3
:10640000E06C40F40070E0642068806800F0405068
:10641000E8B9606AD8B92068006B00F0F87020B164
:106420002068806800F4806088B92068406820F0A7
:10643000200021684860E06C20F48070E064E06C2B
:1064400000F4805018B9E06C40F00100E064204690
:1064500004F05AFA03E0606C016B2846884770BD6F
:1064600070B505466C6AE06C40F04000E064206D59
:1064700040F004002065204604F048FA70BD70B575
:106480000446656A284604F040FA70BD38B50446F3
:1064900000250020009020680068C0F3801090BBA9
:1064A0002068806840F00100216888601748006813
:1064B0001749B0FBF1F000EB4000009002E00098BB
:1064C000401E009000980028F9D105F0DBF9054640
:1064D00013E005F0D7F9401B02280ED9E06C40F01C
:1064E0001000E064206D40F00100206500BF002036
:1064F00084F8480000BF012038BD20680068C0F360
:1065000080100028E5D00020F6E700000000002001
:1065100040420F0070B5044600250F48047016E095
:1065200000F05AFB00B113E0204600F04FFB0020C2
:1065300000F07EFB00B10BE000F04EFB00B107E085
:10654000002000F01DFB00B902E0012500E0E7E7B4
:1065500000BF284670BD00002C00002010B510219F
:10656000034805F081F9012800D110BD0020FCE7A7
:106570000004024000B585B014216846FEF788FE8D
:106580000BF000F803200190002002906A460221DF
:1065900007480AF07BFA6A46042105480AF076FAB1
:1065A0006A46082102480AF071FA05B000BD0000F1
:1065B0000000024000B585B014216846FEF768FE71
:1065C0000020019002200390012002906A460221DF
:1065D0000F480AF05BFA002002900120019001228E
:1065E00004210B4805F048F96A46042108480AF0DE
:1065F0004DFA01220821064805F03EF96A460821B5
:1066000003480AF043FA0AF0D3FF05B000BD0000CA
:106610000000024054490979544A1171524949799C
:1066200051715149897991714F49C979D1714E4957
:10663000097A11724C49497A5172002111735173D0
:1066400091730221D170072804DB0D2802DC04219C
:10665000517002E00021454A517012287BD2DFE8D8
:1066600000F0091C1D0A1E1F3D48494A4B4C4D4E67
:106670005A5B5C5D00BF12213C4AD1700121117050
:106680002021917010B90221917202E00621374A4F
:1066900091728F21354AD1725DE000BF00BF00BF0B
:1066A0002221324AD17001211170202191700128DC
:1066B00001D0022803D102212C4A917202E0042168
:1066C0002A4A9172012801D0042803D18221274A45
:1066D000D17202E02821254AD1723CE00221234AEE
:1066E000D17011703121917000219172F021D1721D
:1066F00031E000BF00BF00BF00BF00BF00BF52219C
:106700001A4AD170012111703021917000219172CB
:10671000F021D1721FE000BF00BF00BF0E2803D1DF
:106720001F21124A11700EE00F2803D127210F4AB2
:10673000117008E0112803D12F210C4A117002E0DA
:1067400037210A4A11703021084A91700021917254
:10675000F021D17200BF00BF0449897A41F00801DD
:10676000024A917270470000BF0B0020B00B00205E
:1067700010B50446012C00D100E00020024608219B
:10678000014805F079F810BD0000024010B504463C
:10679000012C00D100E0002002461021014805F044
:1067A0006BF810BD000002402DE9F04F89B0814622
:1067B0000D4601200690122D78D2DFE805F00E0F6D
:1067C00010090A0B773D3E3F4041424378A5D2F67F
:1067D00000BF00BF0020069000BF00BF00BF894877
:1067E00089FB00700146884A00233846FEF7E7FC23
:1067F0008246504606990FF049FE07900798FFF72A
:10680000CCF807468149FEF702FF04462046FFF711
:1068100061F9074600227E4BFFF788F901D27D4CD3
:1068200009E02046FFF756F9074600227A4BFFF7AA
:1068300065F900D2794CE0E000BF00BF00BF00BFA7
:1068400000BF00BF281FC6B2062E01DB701EC6B2F5
:106850004FF47A4089FB007001466B4A00233846AA
:10686000FEF7ADFC83463146584613F005FC079011
:106870000798FFF792F807466449FEF7C8FE0446FA
:106880002046FFF727F907460022614BFFF74EF934
:1068900001D2604C09E02046FFF71CF907460022B0
:1068A0005D4BFFF72BF900D25C4CA6E0A0E0484618
:1068B000FFF773F80190FFF70DF90746584A594B57
:1068C000FEF78AFF4FF04042574BCDE90201FEF739
:1068D000F5FFCDE90401FFF741F904462046FFF733
:1068E000F9F807460022514BFFF720F901D2504C2E
:1068F00009E02046FFF7EEF8074600224D4BFFF770
:10690000FDF800D24C4C78E04846FFF746F801907D
:10691000FFF7E0F80746494A494BFEF75DFF4FF0A5
:106920004042414BCDE90201FEF7C8FFCDE9040129
:10693000FFF714F904462046FFF7CCF8074600227B
:10694000404BFFF7F3F801D23F4C09E02046FFF738
:10695000C1F8074600223D4BFFF7D0F800D23C4C6F
:106960004BE04846FFF719F880464FF08A41FEF7A2
:106970001CFE07463749FEF74AFE04462046FFF74D
:10698000A9F807460022344BFFF7D0F801D2334C68
:1069900009E02046FFF79EF807460022304BFFF73C
:1069A000ADF800D22F4C28E0FFE74846FEF7F5FF90
:1069B00080464FF04541FEF7F8FD07462549FEF7B2
:1069C00026FE04462046FFF785F807460022224BA4
:1069D000FFF7ACF801D2214C09E02046FFF77AF826
:1069E000074600221E4BFFF789F800D21D4C04E039
:1069F0004846FEF7D2FF044600BF00BF204609B05C
:106A0000BDE8F08FA0252600FFFF7F000000C842F0
:106A100000406F4000007A43000049C0000048C2B7
:106A2000AAF1D24D62104840FFFF5F41000048408C
:106A300000004042000048C0000040C228AFA1BC96
:106A400086F25A4000405A400000D24200405AC0EC
:106A50000000D2C2FEFFFF4A00409F400000FA44FF
:106A600000409FC00000FAC47FB5044613208DF893
:106A70000C00FF22032101A8FEF703FC642301227E
:106A800003A9124808F06EFE0546E5B96420032309
:106A900002AA01A900900D4808F044FF054695B9E7
:106AA0009DF8080000049DF8091000EB01209DF8F6
:106AB0000A10084420602068B0F5000F03DB20684E
:106AC00040F07F402060284604B070BD5006002092
:106AD00010B50120FFF75AFE022004F079FC00F007
:106AE00001F810BD10B50120FFF750FEFFF742FD81
:106AF00010BD10B500F009F80020FFF747FE00F0C8
:106B000009F9022004F064FC10BD10B5FFF752FD36
:106B10000120FFF72DFE122001F01AFC10BD00002D
:106B20002DE9F04105460C461646002721E000F00D
:106B3000F7F800B11EE04FF0000809E0022001F074
:106B400007FCFFF70BFD08B9012704E008F1010875
:106B5000B8F1370FF2DB00BF57B12846FFF784FFCB
:106B600036B12CB1054909782868FFF71DFE206071
:106B700000E0DCE700BF3846BDE8F0812C000020D3
:106B800070B5044600250F48807A00F00F000D49CB
:106B9000887274B904220C48FEF78CFB80B9042279
:106BA00008490A3108480A30FEF784FB40B901253C
:106BB00006E00E2203490448FEF77CFB00B90125DC
:106BC000284670BDBF0B0020B00B002010B5044656
:106BD0002046FFF71FFD10BD10B58AB020208DF8AC
:106BE00024000E208DF825006423022209A90E48F6
:106BF00008F0B8FD04469CB9FF220F2101A8FEF75A
:106C000040FB64200F2305AA01A90090064808F064
:106C100089FE044624B90F2205A90448FEF71FFB8C
:106C200020460AB010BD000050060020BF0B002017
:106C300030B585B0054600242E48C07800F0F0003D
:106C40002D49C97801F0F001884210DA43208DF80F
:106C5000000000208DF801002648C0788DF8020061
:106C6000642303226946254808F07CFD0446DCBB0A
:106C70009DB140208DF800000E208DF801000F22FC
:106C80001C490DF10200FEF7EAFA6423112269465D
:106C90001A4808F067FD044626E040208DF8000001
:106CA00003208DF8010013480068CDF8020064232A
:106CB00006226946114808F055FD0446A4B94A2049
:106CC0008DF8000004208DF801000A48D0F80A1061
:106CD000CDF80210807B8DF80600642307226946F8
:106CE000064808F03FFD0446022001F031FB204633
:106CF00005B030BDB00B0020BF0B002050060020B7
:106D000001B5642301226946014808F02BFD08BD46
:106D10005006002010B50720FFF7F2FF10BD00005D
:106D200008B505208DF800008DF8010064230222CB
:106D30006946024808F016FD08BD00005006002014
:106D400030B589B005460C461022002105A81AF07E
:106D500019F904F1240205A905A816F0E7FC9DF82D
:106D6000140000F08000E8B100BF00200AE005A98F
:106D7000095C4A0005AB411C595C42EAE11105AAD5
:106D80001154401C0F28F2DB9DF823104906090E10
:106D90008DF8231000BF9DF8230080F087008DF848
:106DA000230016E000BF00200AE005A9095C4A00A4
:106DB00005AB411C595C42EAE11105AA1154401C83
:106DC0000F28F2DB9DF823104906090E8DF82310D9
:106DD00000BF206810280FD100BF002009E004F197
:106DE0001401095C05AA125C514004F1140211540B
:106DF000401C1028F3DB59E09DF8140000F08000DF
:106E0000E8B100BF00200AE005A9095C4A0005AB13
:106E1000411C595C42EAE11105AA1154401C0F289B
:106E2000F2DB9DF823104906090E8DF8231000BFF0
:106E30009DF8230080F087008DF8230016E000BF46
:106E400000200AE005A9095C4A0005AB411C595C19
:106E500042EAE11105AA1154401C0F28F2DB9DF80B
:106E600023104906090E8DF8231000BF802104F17C
:106E700014002268815404E0002104F11400226807
:106E800081542068401C20601028F5D300BF0020EA
:106E900009E004F11401095C05AA125C514004F1F7
:106EA00014021154401C1028F3DB00BF00BF002067
:106EB00008E0211D095C04F11402125C5140221DFE
:106EC0001154401C1028F4DB00BF1022211D01A822
:106ED0001AF03EF804F12402294601A816F026FC17
:106EE0001022002105A81AF04DF809B030BD10B5E8
:106EF000044610220021201D1AF044F800202060D2
:106F0000F022002104F124001AF03CF810BD70B505
:106F100005460C4605F124021021204616F034FCEB
:106F200070BD2DE9FF4104460F4615462068002834
:106F300033D02068C0F11000A84203D22068C0F10D
:106F4000100000E028460646B2B204F1140123689E
:106F50005818394619F0FCFF20683044206020683A
:106F6000102801D3B54201D1BDE8FF8100BF002048
:106F700008E0211D095C04F11402125C5140221D3D
:106F80001154401C1028F4DB00BF04F12402211D21
:106F9000201D16F0CBFB3744AD1B1EE000BF0020C8
:106FA00006E0211D095C3A5C5140221D1154401C31
:106FB0001028F6DB00BF1022211D684619F0C8FF1B
:106FC00004F124026946684616F0B0FB10226946B7
:106FD000201D19F0BDFF1037103D102DDED8AAB2CC
:106FE000394604F1140019F0B3FF256000BFBBE778
:106FF000F0B503460C46012550480078C0F10F005B
:10700000C1B2981E07287DD2DFE800F004122836AE
:107010004C6981004A480078884208DA4848067876
:107020000078401C464F38704648835500257EE066
:10703000481E434E3678B0420FDD4148067800784E
:10704000401C3F4F38703F488355384606780078DB
:10705000401C38703B488455002568E0384800786B
:10706000884208DA364806780078401C344F387079
:107070003448835500255AE0481E314E3678B042D8
:107080000FDD2F4806780078401C2D4F38702D48B2
:107090008355384606780078401C38702948845556
:1070A000002544E0881E264E3678B04216DD24487E
:1070B00006780078401C224F3870224883553846A5
:1070C00006780078401C38701E488455384606788B
:1070D0000078401C38701B488255002527E0481E68
:1070E000174E3678B04211DD154806780078401CFE
:1070F000134F387013488355384606780078401C83
:10710000387000E011E00F48845500250FE00C486E
:107110000078884208DA0A4806780078401C084F50
:10712000387008488355002501E00220F0BD00BFFB
:1071300015B90120044E30702846F7E7940000206E
:1071400093000020751000209200002070B50346C7
:107150000C460020194D95F90110012B2CD1184D2A
:107160002D682D788D4203D10025164E356023E021
:10717000144D2D68402D01D3012000E00020114D59
:107180002D68602D18D30F4D2D7805F01F059DB982
:107190000B4D2D682D788D4201DA4D1E69B2084DD8
:1071A0002D682D788D4207D1012C05D1034DAD8C72
:1071B00045F00705014EB584117070BD9410002094
:1071C000540100208C000020014619480068007816
:1071D00042B2302091FBF0F300FB131008B90022FB
:1071E00023E0CB1701EBD3635B11A1EB43130BB986
:1071F00001221AE0182091FBF0F300FB131008B9EC
:10720000022212E0CB1701EB13731B11A1EB031346
:107210000BB9032209E0CB1701EB5373DB10A1EB91
:10722000C3030BB9042200E005221046704700009A
:10723000540100202DE9F04186B00024524890F816
:107240004860451C7EE02046611CCCB24E49491C7A
:107250000F5C012F1BD1301B022818DB601C285C3F
:10726000295D40EA0128A01CC4B24848406F40454F
:107270000CD0B8F5B46F04DB4FF4B46043494867F1
:1072800002E04248C0F874800FF0BAFA5AE0022FC8
:1072900057D1301B062854DB142101A8FDF7F8FF55
:1072A000002000902046611CCCB2285C8DF80300C1
:1072B0009DF80300632800DD47E02046611CCCB246
:1072C000285C8DF801009DF80100012803DB9DF882
:1072D00001000C2800DD38E02046611CCCB2285C9F
:1072E0008DF802009DF80200012803DB9DF80200E2
:1072F0001F2800DD29E02046611CCCB2285C8DF8F7
:1073000004009DF80400172800DD1EE02046611CE3
:10731000CCB2285C8DF805009DF805003B2800DD07
:1073200013E02046611CCCB2285C8DF806009DF865
:1073300006003B2800DD08E001A9684600F072FB6A
:1073400000E002E0B442FFF67EAF00BF10220F491A
:1073500074310F48FDF7AEFF90B10D480838DFF8E3
:107360002CC0DCE91E23DCF87410DCF880C0083087
:10737000A0E80E1002F08AFE02F032FE0FF00EF9C5
:10738000012006B0BDE8F08134370020343A0020F7
:10739000683D00202DE9F8430546012001F00AF878
:1073A000502000F0D5FF0CF097FBCF490880CF4864
:1073B0000BF0F8FF80F00100CD490870CB48B0F920
:1073C0000010CC480CF018F880F00100CA49087091
:1073D0000CF066F91DB10BF051FBC8490870C348A9
:1073E000B0F90000642190FBF1F201FB1204BF48E8
:1073F000B0F9000090FBF1F6002C01DB204600E024
:10740000604233460090B8480288BDA1CB4815F0D1
:10741000D3F9CA48FDF747FF84B22146C74800F0B8
:107420003FFCC7A1C54815F0C7F900240AE0C348CE
:10743000FDF739FFC1494618621CC7A1304615F057
:10744000BBF9641C082CF2DBBC48FDF72CFFBB49E0
:107450004418C4A1204615F0AFF9B848FDF723FF42
:1074600084B22146B54800F01BFCBFA1B34815F01B
:10747000A3F9002412E0C24951F82400FEF72AFBC8
:1074800007468846AD48FDF70EFFAC4946183A4618
:107490004346BCA1304615F08FF9641C082CEADB8A
:1074A000A648FDF700FFA5494418AEA1204615F0F7
:1074B00083F9A248FDF7F7FE84B221469F4800F009
:1074C000EFFBB2A19D4815F077F9002413E0AC4919
:1074D000203151F82400FEF7FDFA07468846974808
:1074E000FDF7E1FE954946183A464346ADA13046C0
:1074F00015F062F9641C082CE9DB9048FDF7D3FE17
