:020000040800F2
:10000000E048002039010008512E0008452B000867
:100010004D2E0008C5020008CD4600080000000073
:100020000000000000000000000000000134000893
:10003000AB07000800000000533300080334000839
:100040005301000853010008530100085301000840
:100050005301000853010008530100085301000830
:100060005301000853010008530100085301000820
:100070005301000853010008530100085301000810
:100080005301000853010008530100085301000800
:10009000BD46000853010008530100085301000841
:1000A00053010008530100085301000853010008E0
:1000B00053010008530100085301000853010008D0
:1000C00053010008530100085301000853010008C0
:1000D00053010008530100085301000853010008B0
:1000E00053010008530100085301000853010008A0
:1000F0005301000853010008530100085301000890
:10010000530100085301000853010008530100087F
:1001100053010008530100085301000800000000CB
:1001200053010008DFF80CD000F038F80048004711
:10013000F5460008E048002006488047064800478A
:10014000FEE7FEE7FEE7FEE7FEE7FEE7FEE7FEE787
:10015000FEE7FEE7AD34000825010008D2B201E059
:1001600000F8012B491EFBD270470022F6E710B5BC
:1001700013460A4604461946FFF7F0FF204610BD15
:1001800030B504460020034600E05B1C934203D2D6
:10019000E05CCD5C401BF8D030BD0000064C074D44
:1001A00006E0E06840F0010394E807009847103447
:1001B000AC42F6D3FFF7BAFF78480008C8480008F9
:1001C00044F2011CC2F2000C6047000000B585B08B
:1001D00014216846FFF7C9FF032001900020029018
:1001E0004FF4F06000906946024800F02DFC05B025
:1001F00000BD00000010024000B585B01421684623
:10020000FFF7B3FF1120019002200390002002901D
:100210004FF4807000906946094800F015FC0022F8
:100220004FF48071064800F00DFD782000F05CFB73
:10023000032001906946024800F006FC05B000BDAD
:100240000010024010B586B00446142101A8FFF743
:100250008CFF012002900220049000200390FFF701
:10026000B5FF022C01D0032C0BD14FF4007001908C
:1002700001A9134800F0E8FB01225102104800F0E8
:10028000E1FC022C01D0012C0AD18020019001A9AF
:100290000B4800F0D9FB01228021094800F0D2FC74
:1002A000FFF7AAFFC82000F01FFB032002904FF4C5
:1002B0002070019001A9024800F0C6FB06B010BDF5
:1002C0000010024000BFFEE70146D1F8180290F886
:1002D0000024022A0FD090F80024032A0BD090F8B3
:1002E0000024052A07D090F80024062A03D090F8AD
:1002F0000024092A19D1022280F80024002280F863
:100300000124002340F202421354521C1354521C85
:10031000135490F80034521C13540023521C1354ED
:100320000022C0F80824C0F80C2470470146D1F818
:10033000180290F800240A2A15D1022280F800241D
:10034000002280F80124002340F202421354521C80
:100350001354521C135490F80034521C13540023AD
:10036000521C135414E00A2280F800240E2280F854
:100370000124002340F202421354521C1354521C15
:10038000135490F80034521C13540023521C13547D
:100390007047000070B505460E46D5F8184294F82F
:1003A000000402280FD094F8000403280BD094F81E
:1003B0000004052807D094F80004062803D094F818
:1003C0000004092819D1022084F80004002084F8D0
:1003D0000104002140F202400155401C0155401C1F
:1003E000015594F80014401C01550021401C015592
:1003F0000020C4F80804C4F80C040848407D00F04C
:10040000100030B1284604F045F9284604F032F8CF
:1004100002E0708800F068FA70BD00003C00002027
:1004200070B506460D46D6F81842E888002822DD49
:1004300094F80004022803D094F80004052815D18C
:100440006888C4F80804E888C4F80C04032084F819
:10045000000494F8001440F205400155B4F80C046F
:1004600082B22146304603F0A4F823E02946304604
:1004700003F093F81EE094F80004052803D094F8E4
:100480000004022812D1012084F80704062084F811
:100490000004002140F202400155401C0155401C5F
:1004A000015594F80014401C015503E029463046DC
:1004B00003F073F870BD70B50446D4F818520122E9
:1004C00005F58061204603F095F870BD70B50546CE
:1004D000D5F8184294F80004032802D0062869D100
:1004E0003BE0D4F80C0440B3042084F8000400215D
:1004F00040F202400155401C0155401C015594F842
:100500000014401C0155D4F8080460B92078412833
:1005100009D1D4F81004D5F81C1204F201428B69F9
:100520000021984718E0D4F81004D5F81C1204F202
:1005300001428B69012198470EE0052084F80004F0
:10054000002140F202400155401C0155401C01555C
:1005500094F80014401C01552DE094F8070401287C
:1005600010D1072084F80004012140F20240015517
:100570000021401C0155401C015594F80014401CFA
:10058000015516E094F8070498B90F48007D00F073
:10059000040070B1022084F80004002140F20240FF
:1005A0000155401C0155401C015594F80014401C95
:1005B000015500E000BF00BF062204F201412846B9
:1005C00003F018F870BD00003C00002070B505462F
:1005D000D5F81842002084F807042448007D00F074
:1005E000040078B1062084F80004002140F20240A3
:1005F0000155401C0155401C015594F80014401C45
:10060000015570BD082084F80004002140F202402A
:100610000155401C0155401C015594F80014401C24
:100620000155284604F036F8D5F81C128868804732
:1006300000BF00BF00BF00BF00BFBFF34F8F00BFB0
:1006400000BF00BF0A48006800F4E06009490843A1
:10065000001D0749086000BF00BF00BFBFF34F8FF8
:1006600000BF00BF00BF00BF00BFFDE73C0000208F
:100670000CED00E00000FA052DE9F04106460D46BC
:10068000D6F818420027B846E88800287CDD94F8A0
:100690000004022803D094F8000409286AD168886D
:1006A000C4F80804E888C4F80C04D4F8080400BBB3
:1006B000D4F80C04032801D9022000E0092084F8B2
:1006C0000004002140F202400155401C0155401C2D
:1006D000015594F80014401C015500202070212081
:1006E00060704120A07003222146304602F082FF54
:1006F00059E0D4F80804012826D9092084F8000418
:10070000002140F202400155401C0155401C01559A
:1007100094F80014401C0155D4F80804801ED4F845
:10072000101401EB8028D4F80C24D6F81C022146C2
:100730004369404698470746B4F80C0482B23946EC
:10074000304602F057FF2EE00F2084F8000400210D
:1007500040F202400155401C0155401C015594F8DF
:100760000014401C01552946304602F016FF1AE0DD
:100770000AE0FFE70020C4F80C04C4F80804294686
:10078000304602F00AFF0EE0022084F80004002147
:1007900040F202400155401C0155401C015594F89F
:1007A0000014401C0155BDE8F08170470021094A42
:1007B00051610949096841F40071074A1160114605
:1007C000096841F008011160002120F0FF0211606A
:1007D0007047000098000020043C024000201F49A0
:1007E000096801F48071B1F5807F07D11C4949691E
:1007F00041F002011A4A516140F4807017490968BA
:1008000001F40071B1F5007F07D11549496941F044
:100810000101134A516140F400701049096801F464
:100820000061B1F5006F07D10D49496941F004013C
:100830000B4A516140F400600849096801F4805195
:10084000B1F5805F07D10649496941F02001044AAA
:10085000516140F48050014908607047183C0240E3
:100860009800002070B5044600F0F2F9054609E052
:10087000601C38B124B100F0EBF9401BA04201D953
:10088000032070BD1748006800F001000028EFD178
:100890001448006800F00200022801D111490860E4
:1008A0001048006800F48070B0F5807F14D00D48C7
:1008B000006800F40060B0F5006F0DD009480068D2
:1008C00000F48050B0F5805F06D00648006800F460
:1008D0000070B0F5007F03D1FFF780FF0120D0E763
:1008E0000020CEE7183C024031B5002400F0B0F9FA
:1008F000044600BF00F0ACF9001B00998842F9D310
:1009000038BD00002DE9F04104460E4601270025C0
:1009100000BF1E48007C012802D10220BDE8F08102
:1009200001201A49087400BF4CF25030FFF79AFFBB
:1009300007461FBB4FF0FF303060656817E0284660
:10094000FFF734FF4CF25030FFF78CFF074610489A
:10095000006820F008000E4908600846006820F48E
:10096000007008600FB1356007E005F58075D4E9C7
:10097000011001EB0020A842E1D800BF00BF002019
:100980000249087400BF3846C8E7000098000020FC
:10099000043C02400348006840F00200014908603E
:1009A00000207047043C02402DE9F04107460C4608
:1009B0001546012600BF1048007C012802D1022004
:1009C000BDE8F08101200C49087400BF4CF25030A2
:1009D000FFF748FF064646B90020074948612560F1
:1009E0004CF25030FFF73EFF064600BF00200249A0
:1009F000087400BF3046E3E7980000200D48006807
:100A000000F0020088B10B48006800F0010028B136
:100A1000094808490831086008480860084805493D
:100A20000C3108600748086001E001207047002091
:100A3000FCE70000043C0240EFCDAB890504030253
:100A4000BFAE9D8C1615141378B503460022002402
:100A50000020D4E0012696400D6805EA0604002C2B
:100A600071D04D68022D02D04D68122D13D1D608D9
:100A700003F1200555F826005507EE0E0F25B54069
:100A8000A8435607F60E0D69B5402843D60803F172
:100A9000200545F82600186856000325B540A843F0
:100AA0000D7905F003055600B540284318604D68E0
:100AB000012D08D04D68022D05D04D68112D02D0B2
:100AC0004D68122D13D1986856000325B540A843F0
:100AD0005600CD68B5402843986058680125954078
:100AE000A8430D79C5F30015954028435860D86890
:100AF00056000325B540A84356008D68B5402843ED
:100B0000D8604D6805F08055B5F1805F76D100BFA3
:100B10003E4D2D6845F001053C4E356035462D684B
:100B200005F00105009500BF00BF394D960855F846
:100B3000260095072E0F0F25B540A843354DAB4233
:100B400002D100251FE059E0334DAB4201D1012510
:100B500019E0324DAB4201D1022514E0304DAB42D9
:100B600001D103250FE02F4DAB4201D104250AE04E
:100B70002D4DAB4201D1052505E02C4DAB4201D1F5
:100B8000062500E007259607360FB5402843204D7F
:100B9000960845F82600264D2868A0434D6805F4C0
:100BA0008035B5F5803F00D12043214D28602D1DB3
:100BB0002868A0434D6805F40035B5F5003F00D125
:100BC00020431B4D2D1D28602D1D2868A0434D6816
:100BD00005F48015B5F5801F00D12043144D08356C
:100BE00028602D1D2868A0434D6805F40015B5F553
:100BF000001F00D120430E4D0C352860521C0D689B
:100C0000D540002D7FF426AF78BD0000203802408B
:100C100008000140000002400004024000080240B9
:100C2000000C024000100240001402400018024074
:100C300000040140024613690B400BB1012000E0A3
:100C4000002070470AB1816101E00B0483617047A5
:100C50000148006870470000944100200248006885
:100C6000401C0149086070479441002010B50320E2
:100C700000F0C0F8002000F005F800F017F80020A0
:100C800010BD000070B50446074800684FF47A7143
:100C9000B0FBF1F5284601F02EFF00222146501E40
:100CA00000F069F8002070BD9041002008B500BF39
:100CB0002948006840F0004027490860084600685D
:100CC00000F00040009000BF00BF00BF081F006898
:100CD00040F00100091F08600846006800F00100AC
:100CE000009000BF00BF00BF081D006840F08050AA
:100CF000091D08600846006800F08050009000BFA1
:100D000000BF032000F076F8002211466FF00B00C0
:100D100000F031F8002211466FF00A0000F02BF8C5
:100D2000002211466FF0090000F025F8002211465C
:100D3000501F00F020F800221146101F00F01BF891
:100D400000221146901E00F016F800221146501E97
:100D500000F011F808BD00002438024000BF00F088
:100D60001F02012191404209920002F1E022C2F8E3
:100D7000001100BF70472DE9F05F80460D46164612
:100D8000002702F067F8074639462A46334601F045
:100D90000700C0F1070ABAF1040F02D94FF0040AA4
:100DA00001E0C0F1070AD14600F1040ABAF1070FC9
:100DB00002D24FF0000A01E0A0F1030AD4464FF03E
:100DC000010A0AFA09FAAAF1010A0AEA020A0AFA67
:100DD0000CFA4FF0010B0BFA0CFBABF1010B0BEA19
:100DE000030B4AEA0B042146404602F03BF8BDE8FB
:100DF000F09F000000BF00F00702064B19684FF695
:100E0000FF031940044B0B4343EA0221014B1960D5
:100E100000BF70470CED00E00000FA0570B5054614
:100E20000C4604F08000802808D104F07F00C0EB5D
:100E3000C00605F1280000EB860105E0C4EBC406FE
:100E400005F5847000EB86011AB9002088728B804A
:100E500004E001208872CB80180C0881002070BD4E
:100E6000012906D1064A526842F00102044B5A6039
:100E700005E0034A526822F00102014B5A607047B4
:100E80000000014070B504460D46C5EBC50304F1F2
:100E9000280101EB83010A692946D4F81C0202F0FB
:100EA00073FF70BD70B504460D46C5EBC50304F570
:100EB000847101EB83010A692946D4F81C0202F00F
:100EC000D0FF70BD70B502460B4603F0800080284D
:100ED00008D103F07F00C0EBC00402F1280000EB52
:100EE000840105E0C3EBC30402F5847000EB8401C8
:100EF0000020887003F07F000870C3F3C0104870B2
:100F000000BF92F8E801012801D1022070BD012044
:100F100082F8E80100BF487870B30C78640010686C
:100F200010F8140000F0400078B10C7864001068EC
:100F300030F8140048F68F74204048F2C004204373
:100F40000D786D00146824F815000D786D00146894
:100F500034F8154048F6BF7504EA050080F010002B
:100F600080F0200040F4004444F080040E787600C5
:100F7000156825F816402EE00C786400106830F8EB
:100F8000140000F4804078B10C786400106830F8E8
:100F9000140048F68F7420404CF2800420430D78F2
:100FA0006D00146824F815000D786D00146834F88D
:100FB00015404BF68F7504EA050080F4805080F4EC
:100FC000005040F4004444F080040E787600156828
:100FD00025F8164000BF00BF002082F8E80100BFDE
:100FE00000BF93E72DE9F04104460D46002705F0C8
:100FF0008000802808D105F07F00C0EBC00604F116
:10100000280000EB860107E005F07F00C0EBC0067A
:1010100004F5847000EB860105F07F00087005F090
:101020008000C0094870CA60CB7000BF94F8E80126
:10103000012802D10220BDE8F081012084F8E801F6
:1010400000BFC87830B1012838D0022814D0032856
:1010500046D121E00E787600206830F8160048F678
:101060008F16304040F4007691F800C04FEA4C0CE7
:10107000206820F81C6034E00E787600206830F894
:10108000160048F68F16304091F800C04FEA4C0C1D
:10109000266826F81C0024E00E787600206830F8D8
:1010A000160048F68F16304040F4C06091F800C03A
:1010B0004FEA4C0C266826F81C0012E00E787600E9
:1010C000206830F8160048F68F16304040F48066ED
:1010D00091F800C04FEA4C0C206820F81C6000E03A
:1010E00000BF00BF0E787600206830F8160048F682
:1010F0008F76304048F2800630430E78304391F8C6
:1011000000C04FEA4C0C266826F81C00887A00289C
:101110007ED14878F0B3888840104FEA400C2068B0
:10112000B0F85060087806EBC000266806F58066C7
:1011300026F810C00E787600206810F8160000F02F
:10114000400088B10E787600206830F8160048F626
:101150008F76304048F2C006304391F800C04FEA25
:101160004C0C266826F81C0091F800C04FEA4C0C85
:10117000266836F81C6048F6BF7C06EA0C0080F052
:10118000200040F4004646F0800691F800804FEAC7
:10119000480800E004E0D4F800C02CF81860ABE187
:1011A000888840104FEA400C2068B0F850600878FA
:1011B00006EBC000001D266806F5806626F810C004
:1011C0002068B0F850C008780CEBC000801DD4F83F
:1011D00000C00CF5806C0CEB4006D1F80CC0BCF1E3
:1011E0003E0F19D9D1F80CC0CCF34F1091F80CC0B8
:1011F0000CF01F0CBCF1000F03D1A0F1010C1FFA81
:101200008CF04FF6FF7C0CEA802C4CF4004C00E094
:101210004DE0A6F800C014E0D1F80CC0CCF34F00AC
:1012200091F80CC00CF0010CBCF1000F03D000F1E0
:10123000010C1FFA8CF04FF6FF7C0CEA802CA6F80C
:1012400000C00E787600206830F8160000F4804068
:1012500088B10E787600206830F8160048F68F7650
:1012600030404CF28006304391F800C04FEA4C0CFD
:10127000266826F81C0091F800C04FEA4C0C26683E
:1012800036F81C604BF68F7C06EA0C0080F4805028
:1012900080F4005040F4004646F0800691F800804B
:1012A0004FEA4808D4F800C02CF8186024E10E7802
:1012B0007600206830F8160040F4807048F68F768B
:1012C000304048F28006304391F800C04FEA4C0CA1
:1012D000266826F81C00C88840104FEA400C206899
:1012E000B0F85060087806EBC000266806F5806606
:1012F00026F810C0088940104FEA400C2068B0F86A
:101300005060087806EBC000001D266806F5806670
:1013100026F810C04878002879D10E787600206829
:1013200030F8160000F4804088B10E78760020680E
:1013300030F8160048F68F7630404CF28006304385
:1013400091F800C04FEA4C0C266826F81C000E7875
:101350007600206810F8160000F0400088B10E7882
:101360007600206830F8160048F68F76304048F254
:10137000C006304391F800C04FEA4C0C266826F8AE
:101380001C000E787600206830F8160048F68F763C
:10139000304048F2C006304391F800C04FEA4C0C90
:1013A000266826F81C0091F800C04FEA4C0C26680D
:1013B00036F81C604BF68F7C06EA0C0080F48050F7
:1013C00080F4005040F4004646F0800691F800801A
:1013D0004FEA4808D4F800C02CF8186091F800C013
:1013E0004FEA4C0C266836F81C6048F6BF7C06EACB
:1013F0000C0040F4004646F0800691F800804FEA69
:101400004808D4F800C02CF8186075E0FFE70E78A3
:101410007600206830F8160000F4804088B10E781D
:101420007600206830F8160048F68F7630404CF28F
:101430008006304391F800C04FEA4C0C266826F82D
:101440001C000E787600206810F8160000F04000AE
:1014500088B10E787600206830F8160048F68F764E
:10146000304048F2C006304391F800C04FEA4C0CBF
:10147000266826F81C000E787600206830F81600E2
:1014800048F68F7630404CF28006304391F800C029
:101490004FEA4C0C266826F81C0091F800C04FEA71
:1014A0004C0C266836F81C6048F6BF7C06EA0C0037
:1014B00040F4004646F0800691F800804FEA480864
:1014C000D4F800C02CF8186091F800C04FEA4C0C1A
:1014D000266836F81C604BF68F7C06EA0C0040F458
:1014E000004646F0800691F800804FEA4808D4F89C
:1014F00000C02CF8186000BF00BF002084F8E8018D
:1015000000BF384697E5F0B504460D4605F07F006C
:10151000C0EBC00604F5847000EB86010A614B61E4
:1015200000208861487005F07F000870CE68486927
:10153000B04204D9CB684869C01A486102E04B69DF
:1015400000204861887A48BB2068B0F8507008785D
:1015500007EBC000801D276807F5806707EB400692
:101560003E2B0ED9C3F34F1003F01F070FB9471ED0
:10157000B8B24FF6FF7707EA802747F40047378075
:101580000BE0C3F34F0003F001070FB1471CB8B2E3
:101590004FF6FF7707EA8027378075E0487848BB29
:1015A0002068B0F85070087807EBC000801C2768EE
:1015B00007F5806707EB40063E2B0ED9C3F34F10AB
:1015C00003F01F070FB9471EB8B24FF6FF7707EABF
:1015D000802747F4004737800BE0C3F34F0003F048
:1015E00001070FB1471CB8B24FF6FF7707EA802713
:1015F00037800EE0487801280BD12068B0F85060A1
:10160000087806EBC000861C206800F5806020F892
:101610001630487848BB2068B0F85070087807EB5F
:10162000C000801D276807F5806707EB40063E2B4A
:101630000ED9C3F34F1003F01F070FB9471EB8B2FE
:101640004FF6FF7707EA802747F4004737800BE023
:10165000C3F34F0003F001070FB1471CB8B24FF6B8
:10166000FF7707EA802737800EE0487801280BD102
:101670002068B0F85060087806EBC000801D26682E
:1016800006F5806626F810300F787F00266836F859
:1016900017604BF68F7706EA070080F4805080F4DD
:1016A000005040F4004646F0800691F800C04FEA32
:1016B0004C0C276827F81C600020F0BD70B502466E
:1016C0000B4600BF92F8E801012801D1022070BD4D
:1016D000012082F8E80100BF03F08000802808D1D3
:1016E00003F07F00C0EBC00402F1280000EB84018E
:1016F00005E0C3EBC30402F5847000EB8401012014
:10170000887003F07F000870C3F3C0104870087839
:10171000B0B90D786D00146834F815404BF6BF75FC
:1017200004EA050080F4805080F0100040F400448A
:1017300044F080040E787600156825F816402BE0FA
:101740004878A0B10D786D00146834F8154048F65B
:10175000BF7504EA050080F0100040F4004444F036
:1017600080040E787600156825F8164014E00D7890
:101770006D00146834F815404BF68F7504EA0500C7
:1017800080F4805040F4004444F080040E787600E9
:10179000156825F8164000BF00BF002082F8E80158
:1017A00000BF00BF93E72DE9F04705460F4690467E
:1017B0001E464FF0000907F07F00C0EBC00105F1A5
:1017C000280000EB8104C4F8108066610020A0614D
:1017D0000120607007F07F002070E1686069884236
:1017E00004D9E6686069801B606102E066690020D8
:1017F0006061A07A90B9B3B2A2882169286801F02B
:101800008BFD2868B0F85010207801EBC000801CD8
:10181000296801F5806121F81060AFE02178490066
:10182000286810F8110000F0400040283DD1607891
:1018300048BB2868B0F85020207802EBC000801D1B
:101840002A6802F5806202EB40013E2E0ED9C6F3F3
:101850004F1006F01F020AB9421E90B24FF6FF72F7
:1018600002EA802242F400420A800BE0C6F34F00F5
:1018700006F001020AB1421C90B24FF6FF7202EA72
:1018800080220A800EE0607801280BD12868B0F829
:101890005010207801EBC000801D296801F580619F
:1018A00021F81060B4F808903CE0607848BB2868E4
:1018B000B0F85020207802EBC000801C2A6802F5A6
:1018C000806202EB40013E2E0ED9C6F34F1006F0A7
:1018D0001F020AB9421E90B24FF6FF7202EA80223E
:1018E00042F400420A800BE0C6F34F0006F001020A
:1018F0000AB1421C90B24FF6FF7202EA80220A80BF
:101900000EE0607801280BD12868B0F850102078DC
:1019100001EBC000801C296801F5806121F810608E
:10192000B4F80690B3B221694A46286801F0F4FC85
:10193000607880B921784900286830F8110048F6AD
:101940008F71084048F2C00108432278520029688C
:1019500021F8120012E0607801280FD121784900A7
:10196000286830F8110048F68F7108404CF2800169
:10197000084322785200296821F812002278520088
:10198000296831F8121048F6BF7201EA020080F0AF
:10199000100080F0200040F4004141F080012378E5
:1019A0005B002A6822F813100020BDE8F08770B5AC
:1019B000044600252068B0F8440000F40040B0F56B
:1019C000004F02D1204601F061FA2068B0F84400CF
:1019D00000F48060B0F5806F0ED12068B0F844004C
:1019E00020F480602168A1F84400204600F03EF910
:1019F0000021204600F05DF92068B0F8440000F4B2
:101A00008040B0F5804F07D12068B0F8440020F442
:101A100080402168A1F844002068B0F8440000F438
:101A20000050B0F5005F07D12068B0F8440020F402
:101A300000502168A1F844002068B0F8440000F488
:101A40008050B0F5805F17D12068B0F8400020F0DA
:101A500004002168A1F840004FF43D452068A0F83B
:101A60004050204600F017F92068B0F8440020F4F8
:101A700080502168A1F844002068B0F8440000F4C8
:101A80000060B0F5006F20D12068B0F8440020F469
:101A900000602168A1F844002068B0F8400040F0E0
:101AA00008002168A1F840002068B0F8400040F02C
:101AB00004002168A1F840002068B0F84400C0F399
:101AC000003010B9204600F03FF92068B0F844001B
:101AD00000F40070B0F5007F0AD12068B0F844002F
:101AE00020F400702168A1F84400204600F0DAF8E4
:101AF0002068B0F8440000F48070B0F5807F07D112
:101B00002068B0F8440020F480702168A1F84400F7
:101B100070BD70B50446002500260CB9012070BDCB
:101B200094F8E90128B9002084F8E801204600F083
:101B30007BF8032084F8E901002529E00121C5EBA9
:101B4000C50204F1280000EB82004170C5EBC5021C
:101B500004F1280000F822500021C5EBC50200EB7B
:101B60008200C170C5EBC50204F1280000EB8200C1
:101B7000C160C5EBC50204F1280000EB82000161E1
:101B8000C5EBC50204F1280000EB820041616D1C29
:101B90006068A842D2D8002528E00021C5EBC50224
:101BA00004F5847000EB82004170C5EBC50204F5BA
:101BB000847000F82250C5EBC50200EB8200C170B2
:101BC000C5EBC50204F5847000EB8200C160C5EB73
:101BD000C50204F5847000EB82000161C5EBC5020B
:101BE00004F5847000EB820041616D1C6068A842BE
:101BF000D3D801202168A1F8400000202168A1F875
:101C000040002168A1F844002168A1F850004FF479
:101C10003F462068A0F84060002084F8240001209E
:101C200084F8E90100207AE738B504460D492068B8
:101C3000884215D100BF0C48006840F400000A49F2
:101C400008600846006800F40000009000BF00BF74
:101C5000002211461420FFF78EF81420FFF77EF8BB
:101C600038BD0000005C00402438024070B50446D6
:101C70000125A068022801D100BF01E0012500BFB5
:101C800000BF2946D4F81C0202F022FAD4F81C0244
:101C900002F0E4F970BD10B50446D4F81C0202F05D
:101CA000FFF910BD10B50446D4F81C0202F0FFF98C
:101CB00010BD024600BF92F8E801012801D10220C0
:101CC0007047012082F8E80100BF21B98020136825
:101CD000A3F84C0001E082F8241000BF002082F835
:101CE000E80100BF00BFEBE710B5044604F5F6714C
:101CF000D4F81C0202F012FA10BD10B504460121FE
:101D00002046FFF7ADF8002010BD014600BF91F856
:101D1000E801012801D102207047012081F8E80183
:101D200000BF0A68A2F8400000200A68A2F8440038
:101D300003200A68A2F8400000BF002081F8E801F3
:101D400000BF00BFE8E7000010B50446D4F81C024D
:101D500002F079FAA06928B10348006840F0060053
:101D60000149086010BD000010ED00E070B50446A8
:101D70000D460026B348006800F00100A84218D2C2
:101D800000BF012D05D1AF48006840F00400AD4907
:101D90000860AC48006820F001002843A9490860A9
:101DA00000BF0846006800F00100A84201D00120F1
:101DB00070BD207800F00200022807D1A248006818
:101DC00020F0F000A16808439F490860207800F0E7
:101DD000010000287BD06068022821D12020010367
:101DE00091FAA1F1B1FA81F108430121B1EB601F31
:101DF00003D195480838006802E093482C30006809
:101E000020210A0392FAA2F2B2FA82F2114301F0FF
:101E10001F0201219140084000286CD10120C7E732
:101E20006068032820D12020010591FAA1F1B1FAC0
:101E300081F108430121B1EB601F03D182480838CA
:101E4000006802E080482C30006820210A0592FAE0
:101E5000A2F2B2FA82F2114301F01F020121914075
:101E60000840A8BB0120A3E76068012820D12020FA
:101E7000022191FAA1F1B1FA81F108430121B1EBFC
:101E8000601F03D170480838006802E06E482C30AB
:101E900000682021022292FAA2F2B2FA82F21143E1
:101EA00001F01F0201219140084088B901207FE71D
:101EB0002020010191FAA1F1B1FA81F10843012139
:101EC000B1EB601F05D160480838006804E069E0A4
:101ED00011E05D482C30006820210A0192FAA2F23C
:101EE000B2FA82F2114301F01F0201219140084031
:101EF00008B901205CE75448006820F003006168DD
:101F0000084351490860FEF7A3FE064660680228B0
:101F100010D108E0FEF79CFE801B41F28831884218
:101F200001D9032044E74848006800F00C00082865
:101F3000F0D137E06068032810D108E0FEF788FE92
:101F4000801B41F28831884201D9032030E73E48A6
:101F5000006800F00C000C28F0D123E06068012834
:101F600010D108E0FEF774FE801B41F288318842F0
:101F700001D903201CE73448006800F00C00042855
:101F8000F0D10FE008E0FEF763FE801B41F28831DC
:101F9000884201D903200BE72B48006800F00C00B1
:101FA0000028F0D12748006800F00100A84218D9A5
:101FB00000BF012D05D12348006840F004002149ED
:101FC00008602048006820F0010028431D4908608F
:101FD00000BF0846006800F00100A84201D00120BF
:101FE000E6E6207800F00400042807D116480068CF
:101FF00020F4E060E168084313490860207800F0AD
:102000000800082808D11048006820F460502169B1
:1020100040EAC1000C49086000F022F80A4909684A
:1020200001F0F001F02292FAA2F2B2FA82F2D1406B
:10203000064A515CC840064908600020FEF722FEAF
:102040000020B5E6003C024008380240294800085C
:102050009041002001480068704700009041002036
:10206000F0B5002100230024002200250020254E89
:10207000316801F00C067EB3042E04D0082E04D083
:102080000C2E2AD103E020483AE0204838E001F441
:1020900070164FF4701797FAA7F7B7FA87F7FE4054
:1020A0001B4FBB5D01F440064FF4400797FAA7F7BA
:1020B000B7FA87F7FE40741C124E366806F4803675
:1020C00026B1124E5E43B6FBF4F203E00E4E5E43C1
:1020D000B6FBF4F2104613E000E000BF094E361FD5
:1020E000366806F460464FF4604797FAA7F7B7FAE8
:1020F00087F726FA07F56E1C0127B740F80300BFE3
:1021000000BFF0BD083802400024F40000127A003D
:1021100020480008F8B504460025207800F00100AA
:10212000002879D0F748006800F00C0008280CD08F
:10213000F448006800F00C000C282BD1F14800682E
:1021400000F48030B0F5803F24D12020010391FAC3
:10215000A1F1B1FA81F108430121B1EB601F03D174
:10216000E8480838006802E0E6482C300068202182
:102170000A0392FAA2F2B2FA82F2114301F01F02AC
:102180000121914008400028CBD06068002843D14D
:102190000120F8BD00BF6068012808D1D94808387F
:1021A000006840F48030D749083908602DE0606845
:1021B00068B9D4480838006820F48030D14908391B
:1021C00008600846006820F4802008601DE0606810
:1021D00005280DD1CB480838006840F48020C94953
:1021E000083908600846006840F4803008600CE058
:1021F000C4480838006820F48030C24908390860B3
:102200000846006820F48020086000BF606860B362
:10221000FEF71EFD054607E052E0FEF719FD401BE4
:10222000642801D90320B4E72020010391FAA1F129
:10223000B1FA81F108430121B1EB601F03D1B1482C
:102240000838006802E0AF482C30006820210A03FB
:1022500092FAA2F2B2FA82F2114301F01F020121B6
:10226000914008400028D8D02AE0FEF7F1FC05464E
:1022700006E0FEF7EDFC401B642801D9032088E747
:102280002020010391FAA1F1B1FA81F10843012163
:10229000B1EB601F03D19B480838006802E0994801
:1022A0002C30006820210A0392FAA2F2B2FA82F2DC
:1022B000114301F01F020121914008400028D8D1AC
:1022C000207800F00200022845D18E48006800F016
:1022D0000C0004280AD08B48006800F00C000C2881
:1022E0003BD18848006800F48030A8BB2020022140
:1022F00091FAA1F1B1FA81F108430121B1EB601F1C
:1023000003D180480838006802E07E482C3000681D
:102310002021022292FAA2F2B2FA82F2114301F0D3
:102320001F0201219140084020B1E068012801D03E
:1023300001202EE77348001F006820F4F8504FF486
:10234000F85292FAA2F2B2FA82F22169914008435D
:102350006C49091F08607DE0FFE7E068F0B30120E9
:1023600090FAA0F1B1FA81F1674A42F82100FEF734
:102370006FFC054606E0FEF76BFC401B022801D906
:10238000032006E72020022191FAA1F1B1FA81F1A0
:1023900008430121B1EB601F03D15A480838006897
:1023A00002E058482C3000682021022292FAA2F262
:1023B000B2FA82F2114301F01F020121914008405C
:1023C0000028D8D04F48001F006820F4F8504FF480
:1023D000F85292FAA2F2B2FA82F200E006E0216923
:1023E000914008434749091F086033E0002001215C
:1023F00091FAA1F1B1FA81F1434A42F82100FEF7C6
:1024000027FC054606E0FEF723FC401B022801D905
:102410000320BEE62020022191FAA1F1B1FA81F158
:1024200008430121B1EB601F03D13648083800682A
:1024300002E034482C3000682021022292FAA2F2F5
:10244000B2FA82F2114301F01F02012191400840CB
:102450000028D8D1207800F01000102873D1294826
:10246000006800F00C0000286ED12020010191FAD4
:10247000A1F1B1FA81F108430121B1EB601F03D151
:1024800020480838006802E01E482C3000682021EF
:102490000A0192FAA2F2B2FA82F2114301F01F028B
:1024A00001219140084018B1A06908B9012070E6E7
:1024B0001449091F206A096801F46041884225D93E
:1024C000206A00F047FF08B1012062E60D48001FB6
:1024D000006820F46040216A08430A49091F086027
:1024E0000846006820F07F404FF07F4292FAA2F247
:1024F000B2FA82F2E169914008430249091F08607B
:1025000023E000000838024000004742FB48006812
:1025100020F46040216A0843F849086008460068D2
:1025200020F07F404FF07F4292FAA2F2B2FA82F29C
:10253000E16991400843F1490860206A00F00AFF10
:1025400018B1012025E6A5E01FE04FF4604191FAA3
:10255000A1F1B1FA81F1206AC840401C01218140FB
:10256000C803E649091D096801F0F001F02292FA5A
:10257000A2F2B2FA82F2D140E14A515CC840E1498C
:1025800008600020FEF77EFB84E0A069F0B3012024
:10259000010291FAA1F1B1FA81F1DB4A42F821007E
:1025A000FEF756FB054606E0FEF752FB401B0228ED
:1025B00001D90320EDE52020010191FAA1F1B1FA42
:1025C00081F108430121B1EB601F03D1CB48001F0B
:1025D000006802E0C9483030006820210A0192FA00
:1025E000A2F2B2FA82F2114301F01F0201219140DE
:1025F00008400028D8D0C148006820F46040216A13
:102600000843BE4908600846006800E00DE020F07D
:102610007F404FF07F4292FAA2F2B2FA82F2E16971
:1026200091400843B549086034E000204FF48071C0
:1026300091FAA1F1B1FA81F1B34A42F82100FEF713
:1026400007FB054606E0FEF703FB401B022801D905
:1026500003209EE52020010191FAA1F1B1FA81F158
:1026600008430121B1EB601F03D1A448001F00689B
:1026700002E0A2483030006820210A0192FAA2F25A
:10268000B2FA82F2114301F01F0201219140084089
:102690000028D8D1207800F0080008286ED16069A1
:1026A000A8B3012090FAA0F1B1FA81F1964A02EBA9
:1026B0008101C1F88006FEF7CBFA054606E0FEF779
:1026C000C7FA401B022801D9032062E540200221FD
:1026D00091FAA1F1B1FA81F108430121B1EB601F38
:1026E00003D18648001F006802E08448303000684B
:1026F0004021022292FAA2F2B2FA82F2114301F0D0
:102700001F020121914008400028D8D036E0FFE7A1
:102710000021012090FAA0F0B0FA80F07A4A02EB92
:102720008000C0F88016FEF793FA054606E0FEF733
:102730008FFA401B022801D903202AE540200221FC
:1027400091FAA1F1B1FA81F108430121B1EB601FC7
:1027500003D16A48001F006802E068483030006812
:102760004021022292FAA2F2B2FA82F2114301F05F
:102770001F020121914008400028D8D1207800F0A4
:102780000400042875D100265C482030006800F061
:10279000805080B900BF59482030006840F0805018
:1027A0005649203108600846006800F080500090CB
:1027B00000BF00BF01265548006800F48070B0B922
:1027C0005248006840F4807050490860FEF740FAB3
:1027D000054606E0FEF73CFA401B642801D90320B9
:1027E000D7E44A48006800F480700028F2D000BFA7
:1027F000A068012808D141483030006840F480705A
:102800003E49303108602DE0A06868B93B4830305F
:10281000006820F48070394930310860084600684B
:1028200020F4806008601DE0A06805280DD13348C1
:102830003030006840F4806030493031086008462C
:10284000006840F4807008600CE02C48303000686C
:1028500020F480702949303108600846006820F46F
:102860008060086000BFA06868B3FEF7F1F9054614
:1028700008E068E0FEF7ECF9401BB0F5FA7F01D9FB
:10288000032086E44020C10091FAA1F1B1FA81F160
:1028900008430121B1EB601F03D11848001F0068F5
:1028A00002E01648303000684021CA0092FAA2F2D5
:1028B000B2FA82F2114301F01F0201219140084057
:1028C0000028D7D034E0FEF7C3F9054607E0FEF74D
:1028D000BFF9401BB0F5FA7F01D9032059E440202D
:1028E000C10091FAA1F1B1FA81F108430121B1EBE4
:1028F000601F0DD10148001F00680BE00438024042
:102900002948000890410020000047420070004024
:102910006C4800684021CA0092FAA2F2B2FA82F230
:10292000114301F01F020121914008400028CED13F
:10293000012E07D163481038006820F080506149AB
:102940001039086000BF606AF0B35E482C38006838
:1029500000F00C000C287AD0606A022879D100209F
:102960004FF0807191FAA1F1B1FA81F1564A42F823
:102970002100FEF76DF9054606E0FEF769F9401BF8
:10298000022801D9032004E42020010591FAA1F1D5
:10299000B1FA81F108430121B1EB601F03D149482D
:1029A0003438006801E04748006820210A0592FA9F
:1029B000A2F2B2FA82F2114301F01F02012191400A
:1029C00008400028D9D100E07AE0D4E90A010843A0
:1029D000216B08433B492C39096821F47D010843E8
:1029E00038492C3908600121080690FAA0F0B0FAA5
:1029F00080F0354A42F82010FEF72AF9054606E035
:102A0000FEF726F9401B022801D903200BE4202001
:102A1000010591FAA1F1B1FA81F108430121B1EB6D
:102A2000601F03D127483438006801E0254800685A
:102A300020210A0592FAA2F2B2FA82F2114301F0C1
:102A40001F020121914008400028D9D038E035E02C
:102A5000FFE700204FF0807191FAA1F1B1FA81F106
:102A6000194A42F82100FEF7F3F8054606E0FEF7A2
:102A7000EFF8401B022801D903205AE42020010569
:102A800091FAA1F1B1FA81F108430121B1EB601F84
:102A900003D10C483438006801E00A48006820215E
:102AA0000A0592FAA2F2B2FA82F2114301F01F0271
:102AB0000121914008400028D9D101E0012038E4EB
:102AC000002036E43438024000004742042808D190
:102AD0004FF0E021096941F004014FF0E02211615B
:102AE00007E04FF0E021096921F004014FF0E022F6
:102AF00011617047704770B504462546681EB0F1F5
:102B0000807F01D301200FE0681E4FF0E021486173
:102B10000F214FF0FF3000F0A5F900204FF0E02129
:102B2000886107200861002070BD10B5FFF7E2FF43
:102B300010BD4FF0E020006920F002004FF0E021CE
:102B40000861704700BFFEE710B5FDF723FF0020C6
:102B500010BD00007FB504460025002003900B48FF
:102B6000844211D304F58070094988420CD80125AC
:102B7000002000900194029503A96846FDF7C2FE6B
:102B80000646002004B070BD0220FBE7005000089C
:102B900000000608034641B1012905D10A20507002
:102BA00000209070D07006E000BF0A205070002016
:102BB0009070D07000BF00BF0020704710B5FDF7C7
:102BC0001DFF002010BD30B50346144600221D46EF
:102BD00000BF03E015F8010B8854521CA242F9D340
:102BE000084630BD2DE9F04106460D461746002443
:102BF00000BF10E031192819FDF7E2FA40B9291990
:102C000030198022FDF7BCFA20B10220BDE8F08126
:102C10000220FBE78034281900F07F0018B904F186
:102C20008000B842E6D90EE0325929190220FDF79A
:102C3000BBFE28B930592959884203D00220E5E764
:102C40000220E3E7241DBC42EED30020DEE70000B3
:102C500000B587B000BF6948006840F010006749C0
:102C600008600846006800F01000019000BF00BF37
:102C700000BF0846006840F004000860084600688D
:102C800000F00400019000BF00BF00BF08460068CC
:102C900040F0200008600846006800F02000019025
:102CA00000BF00BF00BF0846006840F00100086098
:102CB0000846006800F00100019000BF00BF00BF9F
:102CC0000846006840F0020008600846006800F00E
:102CD0000200019000BF00BF00BF0846006840F03E
:102CE000080008600846006800F00800019000BF76
:102CF00000BF012202214248FDF7A4FF0022082163
:102D00003F48FDF79FFF002260213E48FDF79AFFF4
:102D100040F2BF700290032003900020049002A9AB
:102D20003948FDF791FE4FF64000029000200390D5
:102D3000049002A93448FDF787FE43F6D57002904F
:102D4000032003900020049002A92D48FDF77CFE8B
:102D50000A2002900120039000200490059002A90F
:102D60002748FDF771FE0120029000200390049097
:102D700002A92648FDF768FE48F2FE700290032083
:102D800003900020049002A92048FDF75DFE20205A
:102D9000029000200390049002A91948FDF754FE08
:102DA0004FF6FF700290032003900020049002A9C8
:102DB0001748FDF749FE4FF69F70029003200390DD
:102DC0000020049002A90F48FDF73EFE0420029067
:102DD000032003900020049002A90E48FDF734FE62
:102DE000602002900120039000200490059002A929
:102DF0000448FDF729FE07B000BD00001C38024062
:102E000000080240000C0240001002400000024096
:102E1000000402400014024010B50022074908488F
:102E200000F077FF0749064801F05CFA06490448BC
:102E300000F030FD024801F01DFB10BD64000020D1
:102E4000B8420020000000209C41002000BFFEE7A7
:102E50007047000002480068C0F30220704700007D
:102E60000CED00E010B5002807DA0A07140E054A39
:102E700000F00F031B1FD45403E00A07130E024A8D
:102E8000135410BD18ED00E000E400E02DE9FC4112
:102E9000054600270020009015E2BDF8040000F070
:102EA0000F06002E7DD1BDF8040000F0100088BB95
:102EB0002868008848F60F7108402968088005F1E5
:102EC00028042868B0F85010207801EBC000801C5E
:102ED000296801F5806131F81000C0F30900A06194
:102EE000A16920690844206100212846FDF7CAFF36
:102EF00095F824000028CFDD60690028CCD195F832
:102F0000240040F080002968A1F84C00002085F8DA
:102F10002400D8E1FFE705F5847428680088009054
:102F2000BDF8000000F4006018B32868B0F8501035
:102F3000207801EBC000801D296801F5806131F81F
:102F40001000C0F30900A061218B8BB2A28805F5A7
:102F5000F671286800F0C2F928680088C0F30E00F6
:102F600048F68F710840296808802846FEF7BCFEA5
:102F7000A9E1BDF8000000F4004000288CD02868CA
:102F80000088C0F30E0048F68F7108402968088059
:102F90002868B0F85010207801EBC000801D296827
:102FA00000E055E001F5806131F81000C0F3090040
:102FB000A061A06960B1B4F818C01FFA8CF3A288B0
:102FC0002169286800F08AF9A16920690844206114
:102FD00000212846FDF766FF2A6802F5806228680E
:102FE000B0F85000801D02EB4001E2683E2A10D983
:102FF000E268C2F34F10227B02F01F020AB9421EA0
:1030000090B24FF6FF7202EA802242F400420A8038
:103010000DE0E268C2F34F00227B02F001020AB128
:10302000421C90B24FF6FF7202EA80220A802968A1
:1030300009884BF68F7201EA020080F4805080F418
:10304000005040F4004141F080012A6811803AE1CB
:103050007100286830F811000090BDF8000000F4FD
:10306000004000287ED07100286830F81100C0F3BD
:103070000E0048F68F7108407200296821F812008E
:10308000C6EBC60105F5847000EB8104A07AA8B9EF
:103090002868B0F85010207801EBC000801D296826
:1030A00001F5806131F81000C0F30907F7B3A28879
:1030B00021693B46286800F011F946E02178490073
:1030C000286830F8110000F48040B0F5804F15D129
:1030D0002868B0F85010207801EBC000801C2968E7
:1030E00001F5806131F81000C0F30907DFB1E28813
:1030F00021693B46286800F0F1F814E02868B0F830
:103100005010207801EBC000801D296801F5806116
:1031100031F81000C0F309072FB1228921693B461D
:10312000286800F0DBF82178490000E00DE028680D
:1031300030F8110048F68F71084048F2C00108438A
:1031400022785200296821F81200A0693844A06151
:10315000206938442061606910B1E068B84206D93E
:10316000217800E009E02846FDF79CFE05E0217883
:103170002846D4E90423FEF7C6F9BDF8000000F0A4
:10318000800000287ED0C6EBC60105F1280000EBC8
:1031900081047100286830F8110048F60F7108406A
:1031A0007200296821F81200A07AD0B92868B0F816
:1031B0005010207801EBC000801C296801F5806167
:1031C00031F81000C0F30900A061A069F0B3B4F8B1
:1031D00018C01FFA8CF3A2882169286800F09CF8B7
:1031E0004FE021784900286810F8110000F04000F5
:1031F00040281AD12868B0F85010207801EBC000A0
:10320000801C296801F5806131F81000C0F30900C5
:10321000A061A06928B3B4F818C01FFA8CF3E28843
:103220002169286800F078F81BE02868B0F8501091
:10323000207801EBC000801D296801F5806131F81C
:103240001000C0F30900A061A06900E019E040B1DE
:10325000B4F818C01FFA8CF322892169286800F09D
:103260005BF821784900286830F8110048F68F7122
:1032700008404CF28001084322785200296821F866
:10328000120000E01FE02868B0F85010207801EB31
:10329000C000801C296801F5806131F81000C0F37E
:1032A0000900A061A169206908442061606920B912
:1032B00021782846FDF7E6FD05E021782846D4E987
:1032C0000423FEF770FA2868B0F84400019000F477
:1032D000004000287FF4E1ADBDE8FC812DE9F0411C
:1032E000044603F1010C4FEA5C0704EB420C0CF5B9
:1032F000806040C801F8016B4FEA162C01F801CB41
:103300003D4605E030F8048B21F8018B491C6D1E09
:10331000002DF7D1BDE8F0812DE9F04104461D46AE
:1033200005F101084FEA580C04EB420808F58063E8
:1033300066460AE00F78491C91F8008047EA0820A9
:1033400023F8020B9B1C491C761E002EF2D1BDE80F
:10335000F081704718B50246002300212548006817
:1033600000F0F00050BB23481C30006800F0805093
:1033700020B12148006800F4C05318E000BF1D4888
:103380001C30006840F080501A4C1C3420602046ED
:10339000006800F08050009000BF00BF1648006831
:1033A00000F4C0532046006820F080502060B3F540
:1033B000C05F03D1B2F5404F00D1012100BF012908
:1033C00005D10E48006840F004000C4C20600B480A
:1033D000006820F001000843084C206000BF204630
:1033E000006800F00100884201D0012018BD0020D3
:1033F000FCE700000838024000700040003C02403A
:10340000704710B5FDF72AFCFFF78FFB10BD0000D9
:1034100010B592B02048006820F4C05040F400601D
:103420001D49086001200590069002200E90C103FE
:103430000F91C10410918105119105A8FEF76AFE54
:1034400020B140F2291115A001F042F90F2000909F
:10345000032001900020029003900490012168460F
:10346000FEF784FC20B140F237110CA001F030F9D6
:10347000FEF7F0FD4FF47A71B0FBF1F42046FFF750
:103480003AFB0420FFF722FB00221146501EFDF7F5
:1034900072FC12B010BD0000007000402E2E2F53A1
:1034A00072632F6D61696E2E63000000144800681E
:1034B00040F48070124908601148083000681149D2
:1034C00008400F49083108600D4800680E4908405F
:1034D0000B4908600846006820F48020086008480E
:1034E0000830006820F47D0005490831086000209C
:1034F000091D08604FF00060044908607047000033
:10350000003802400CC0FF88FEFFFEEE08ED00E030
:1035100070B504460D46D4F8140229464268204688
:103520009047002070BD70B504460D4694F8FC012C
:10353000022802D0032811D100E000BF68880128CA
:103540000BD10020C4F80402D4F814022946826882
:1035500020469047204600F05EF804E029462046C9
:1035600000F01BF800BF00BF70BD70B506460C46EA
:1035700015462B4622460021304600F03EFD002035
:1035800070BD70B506460C4615462B4622460021F6
:10359000304600F062FE002070BD70B504460D4656
:1035A0008021204600F0F1FD0021204600F0EDFDD5
:1035B00070BD70B504460E4615460320C4F8F401EC
:1035C0004FF484700551001D05512B4632460021F1
:1035D000204600F012FD002070BD10B50446052005
:1035E000C4F8F40100231A461946204600F005FDF0
:1035F000002010BD70B504460E4615460220C4F8E2
:10360000F401A561E5612B4632460021204600F019
:1036100024FE002070BD10B504460420C4F8F40157
:1036200000231A461946204600F017FE002010BD60
:1036300002460020704702460020704770B50446DD
:103640000E46D4F818520020C5F80804C5F80C043A
:10365000022085F80004002085F80104022140F2D0
:1036600005404155D4F8180250B1D4F81C128868AE
:103670008047D4F8180201F01AF80020C4F81802A4
:10368000002070BD0146002070477CB50546D5F886
:10369000184294F80004042876D1D4F808040028CD
:1036A0005CD1207818B9D4F80C0401286ED02078A9
:1036B00021281CD1D4F80C04052818D16078C4F84E
:1036C0001004A178D4F8100400EB0120C4F8100411
:1036D000E178D4F8100400EB0140C4F8100421791B
:1036E000D4F8100400EB0160C4F810044EE0207818
:1036F000412824D1D4F80C04052820D16078C4F8DE
:103700001004A178D4F8100400EB0120C4F81004D0
:10371000E178D4F8100400EB0140C4F810042179DA
:10372000D4F8100400EB0160C4F81004D4F81004BD
:10373000D5F81C22D168884738B302207CBD002010
:10374000C4F80C04C4F808048DF800000120ADF89A
:10375000060069462846FFF720FF17E0D4F8080462
:10376000012813D9D4F80804801ED4F8101401EBF2
:103770008026D4F80C24D5F81C0231460369204673
:10378000984710B10220D9E716E0FFE70020C4F8FF
:103790000C04C4F80804032084F80004002140F25B
:1037A00002400155401C0155401C015594F800147D
:1037B000401C01550020C1E794F80004072802D1FD
:1037C0002846FCF703FF0020B8E7000001461B2055
:1037D00008800148704700003C00002001460A2094
:1037E00008800148704700005800002070B504466A
:1037F0000D461646062D08DCD4F81C123246086821
:10380000034900F05DFA024870BD0020FCE70000AB
:10381000B841002070B505460E464FF4836000F0B5
:1038200047FFC5F81802D5F8180208B9022070BD84
:10383000D5F81842002004F58064606111482061C9
:103840000020A060E060E071022020700020607025
:10385000A4F58064002140F202400155401C01554E
:10386000401C01550221401C01550021401C0155FE
:10387000D5F81C124868804708B10220D7E700201D
:10388000D5E70000005000080246002070470246BD
:1038900000207047024609B1C2F81C120020704790
:1038A00001460020704700002DE9F04705460C4610
:1038B0000027B846B946D5F81862207800F06000B5
:1038C00090B3202869D16078072824D2DFE800F07F
:1038D0001E04090E12161A0021462846FCF7A0FD08
:1038E00020E021462846FCF7C7FE1BE02846FCF7EF
:1038F000EDFD17E02846FCF719FD13E02846FCF71C
:10390000DAFD0FE02846FCF7DFFC0BE021462846F5
:10391000FCF740FD06E021462846FFF73EFE4FF04B
:10392000020900BF00BF38E0FFE76078062804D036
:103930000A2815D00B2828D119E060882121B1EB85
:10394000202F07D1174FE088092801DD092000E06A
:10395000E0888046424639462846FFF74BFE1BE08A
:10396000012206F214412846FFF744FE14E0A07835
:10397000012803DAA078C6F8140405E02146284699
:10398000FFF70BFE4FF0020906E021462846FFF73D
:1039900004FE4FF0020900BF00BF00BF4846BDE86B
:1039A000F08700004E00002070B505460C462DB98A
:1039B0002246064906A000F083F904E022460349A6
:1039C00003A000F07DF9014870BD0000B0000020A8
:1039D00044465520436F6E66696700000246122018
:1039E00008800148704700008000002070B505463F
:1039F0000C462DB92246064906A000F061F904E004
:103A00002246034903A000F05BF9014870BD0000A5
:103A1000B000002044465520496E746572666163AB
:103A2000650000000246042008800148704700003D
:103A30009400002070B505460C462246024903A0BA
:103A400000F03EF9004870BDB00000204245454CF2
:103A50000000000070B505460C462DB92246064907
:103A600006A000F02DF904E02246034903A000F06F
:103A700027F9014870BD0000B000002054464220E4
:103A80004669726D77617265205570646174650076
:103A900070B505460C462DB92246064906A000F031
:103AA0000FF904E02246034903A000F009F9014898
:103AB00070BD0000B0000020303030303030303089
:103AC000303031410000000070B504460D46E888F2
:103AD000012804D029462046FFF75FFD1BE094F83B
:103AE000FC01022802D003280FD108E00020A060CA
:103AF000012204F108012046FFF77CFD0AE00122C3
:103B0000211D2046FFF776FD04E029462046FFF7F9
:103B100044FD00BF00BF70BDF8B504460E46708876
:103B20000012082872D2DFE800F082040C208282A2
:103B30006372207CD4F810120A68694690470546E3
:103B40007AE0207C40B9D4F81402816A684688473C
:103B500005460221697007E0D4F81402C16A68467C
:103B6000884705460221697066E0B078062834D29D
:103B7000DFE800F0030B131B232B207CD4F810127A
:103B80004A6869469047054630E0207CD4F8101218
:103B90008A6869469047054628E0207CD4F81012D0
:103BA000CA6869469047054620E0207CD4F8101288
:103BB0000A6969469047054618E0207CD4F810123F
:103BC0004A6969469047054610E0207CD4F81012F7
:103BD0008A6969469047054608E0B178D4F814022E
:103BE0006A46836B20469847054600BF00BF23E026
:103BF000207C30B9D4F81402416B684688470546EA
:103C00001AE031462046FFF7C8FCF8BD0FE0207CE3
:103C100040B9D4F81402016B68468847054607216D
:103C2000697009E031462046FFF7B7FCEDE7314601
:103C30002046FFF7B2FCE8E700BFBDF8000088B1FE
:103C4000F08878B1F088BDF80010884202DDBDF838
:103C5000000000E0F0880090BDF8002029462046D2
:103C6000FFF7C8FC00BFD0E70146002002E0421C7D
:103C7000D0B2491C0A78002AF9D1704770B50446C1
:103C80000D4694F8FC01022802D0032811D100E06F
:103C900000BF0120E060D4F8040218B1E06840F0F1
:103CA0000200E060022204F10C012046FFF7A2FCB2
:103CB00004E029462046FFF770FC00BF00BF70BD3E
:103CC0002DE9F04104460D4617460026FCB120467A
:103CD000FFF7CAFF022101EB400038803A783046F6
:103CE000711CCEB22A5403223046711CCEB22A5423
:103CF0000AE014F8012B3046711CCEB22A5400227F
:103D00003046711CCEB22A5420780028F1D1BDE88B
:103D1000F08170B504460D4616460CB9022070BD00
:103D2000D4F8140210B10020C4F814020DB1C4F884
:103D30001052012084F8FC012670204600F0D4F8CF
:103D40000020ECE72DE9F04104460D46002600274F
:103D50002946D4F82002FDF7B5F8064636B1012E03
:103D600006D0022E06D0032E08D105E0002707E07A
:103D7000022705E0012703E0022701E0022700BF38
:103D800000BF3846BDE8F0812DE9F04104460E46FB
:103D90001746002E54D104F11405D4F8F40102287A
:103DA00043D1D5E90201884210D9D5E90201401A70
:103DB000A860288982B239462046FFF7E2FB00233B
:103DC0001A461946204600F018F92EE0E96868689E
:103DD000B0FBF1F201FB1200B8B9E96868688842EB
:103DE00013D36868D4F8F81188420ED20022114625
:103DF0002046FFF7C6FB0020C4F8F80100231A464E
:103E00001946204600F0F9F80FE0D4F81402C06813
:103E100040B194F8FC01032804D1D4F81402C1681D
:103E2000204688472046FFF7D8FB94F80002012877
:103E300014D1204600F05EFA002084F800020DE064
:103E4000D4F81402406948B194F8FC01032805D164
:103E5000D4F8140231464269204690470020BDE85C
:103E6000F0812DE9F04105460E4617465EBB05F58B
:103E70008274D5F8F401032833D1D4E902018842D1
:103E800010D9D4E90201401AA060D4E902018842A5
:103E900001D2A06800E0E06882B239462846FFF708
:103EA00064FB1EE0D5F81402006940B195F8FC01EE
:103EB000032804D1D5F8140201692846884728460A
:103EC000FFF7A9FB0DE0D5F81402806948B195F819
:103ED000FC01032805D1D5F8140231468269284631
:103EE00090470020BDE8F08110B504461548C0F8A1
:103EF0001C42C4F820021448124908600820486097
:103F00000221104881600321C1600221016100216A
:103F100081610162FDF7FDFD20B140F21D110BA092
:103F200000F0D6FB182300221146D4F82002FCF73B
:103F300075FF582300228021D4F82002FCF76EFF81
:103F4000002010BDB0020020005C00402E2E2F5338
:103F500072632F757362645F636F6E662E63000019
:103F600010B50246D2F8203201F08000802809D135
:103F700001F07F00C0EBC00403F1280000EB8400D7
:103F8000807810BD01F07F00C0EBC00403F58470A1
:103F900000EB84008078F4E72DE9F04704460F46F3
:103FA00015461E464FF00008C1462B46324639469C
:103FB000D4F82002FDF716F88046B8F1000F09D0BA
:103FC000B8F1010F09D0B8F1020F09D0B8F1030F11
:103FD0000CD108E04FF000090BE04FF0020908E0B7
:103FE0004FF0010905E04FF0020902E04FF002092D
:103FF00000BF00BF4846BDE8F0872DE9F047044602
:104000000D4616461F464FF00008C1463B46324655
:104010002946D4F82002FDF776FA8046B8F1000F61
:1040200009D0B8F1010F09D0B8F1020F09D0B8F1E9
:10403000030F0CD108E04FF000090BE04FF002092C
:1040400008E04FF0010905E04FF0020902E04FF0EF
:10405000020900BF00BF4846BDE8F08710B504461E
:104060004023002211462046FFF796FF40214FF4DF
:10407000887001514023002280212046FFF78CFFE9
:1040800040212162012084F8FC01D4F8180228B1F3
:104090002179D4F81402426820469047002010BDD0
:1040A000014691F8FD0181F8FC010020704710B530
:1040B000044694F8FC01032808D1D4F81402C0691E
:1040C00020B1D4F81402C16920468847002010BDF1
:1040D00002461174002070472DE9F04104460D4658
:1040E000002600272946D4F82002FDF7E2FD064607
:1040F00036B1012E06D0022E06D0032E08D105E0DF
:10410000002707E0022705E0012703E0022701E07E
:10411000022700BF00BF3846BDE8F08170B50446F5
:104120000D46294604F5027000F0C8F80120C4F8D5
:10413000F40140F20E20005BC4F8F80194F8080284
:1041400000F01F0020B1012808D0022812D10BE096
:1041500004F50271204600F094F913E004F50271B1
:10416000204600F072FA0DE004F50271204600F0DE
:10417000C1F907E094F8080200F08001204600F041
:1041800004F800BF00BF002070BD2DE9F0410446D7
:104190000D46002600272946D4F82002FDF78EFAA6
:1041A000064636B1012E06D0022E06D0032E08D1C7
:1041B00005E0002707E0022705E0012703E00227CA
:1041C00001E0022700BF00BF3846BDE8F08170B5AE
:1041D000044600250026D4F82002FDF78EFD054692
:1041E00035B1012D06D0022D06D0032D08D105E0F2
:1041F000002607E0022605E0012603E0022601E092
:10420000022600BF00BF304670BD70B504460025D1
:104210000026D4F82002FDF778FD054635B1012DC2
:1042200006D0022D06D0032D08D105E0002607E0B8
:10423000022605E0012603E0022601E0022600BF77
:1042400000BF304670BD014691F8FC0181F8FD01C8
:10425000042081F8FC01002070472DE9F047044656
:104260000D4616461F464FF00008C1463B463246F3
:104270002946D4F82002FDF796FA8046B8F1000FDF
:1042800009D0B8F1010F09D0B8F1020F09D0B8F187
:10429000030F0CD108E04FF000090BE04FF00209CA
:1042A00008E04FF0010905E04FF0020902E04FF08D
:1042B000020900BF00BF4846BDE8F0870A780270D7
:1042C0004A7842708B78CA7803EB022242800B79DD
:1042D0004A7903EB022282808B79CA7903EB0222AE
:1042E000C28070470246002011B1C2F8141200E0EB
:1042F0000220704701460020704770B504460D4605
:10430000A888F8B9E888E8B9A87800F07F0694F89A
:10431000FC01032804D129462046FFF73EF915E0A9
:1043200084F8FE6131462046FFF7D6FE2046FFF7AF
:1043300072F91EB1022084F8FC0107E0012084F824
:10434000FC0103E029462046FFF727F970BD70B550
:1043500004460D460226D4F8140238B1D4F81402EB
:10436000294602682046904700B90026304670BDB5
:1043700070B504460D46A8783449087008460078A0
:10438000012804DD29462046FFF707F95BE094F891
:10439000FC01022802D003284FD11CE02B480078F2
:1043A000A8B12A4800786060032084F8FC012748FF
:1043B00001782046FFF7CBFF022804D1294620468A
:1043C000FFF7EBF870BD2046FFF725F902E0204625
:1043D000FFF721F936E01D48007870B9022084F813
:1043E000FC011A4800786060184801782046FFF701
:1043F0008FF82046FFF70FF91EE01449097860682E
:10440000884216D021792046FFF782F80F480078BD
:1044100060600E4801782046FFF799FF022804D11A
:1044200029462046FFF7B9F8CCE72046FFF7F3F816
:1044300002E02046FFF7EFF804E029462046FFF7A8
:10444000ACF800BF00BF00BFBCE700008C410020FB
:1044500070B504460D46688801280AD1C4F80402E4
:10446000D4F8140229468268204690472046FFF778
:10447000D2F870BD10B504462046FFF7A8FE002014
:1044800010BD70B505460C46002660780A2829D272
:10449000DFE800F01923281E280A0528140F2146FA
:1044A0002846FFF739FB22E021462846FFF725FF83
:1044B0001DE021462846FFF75BFF18E0214628460D
:1044C000FFF702FB13E021462846FFF7D7FB0EE07B
:1044D00021462846FFF7BCFF09E021462846FFF7A2
:1044E00022F804E021462846FFF757F800BF00BF36
:1044F000304670BD2DE9F04105460E464FF00008EC
:104500003479307800F06000202808D1D5F8140202
:1045100031468268284690470020BDE8F0817078D7
:10452000002855D001282AD003287AD195F8FC011B
:10453000022802D003281BD107E02CB1802C03D025
:1045400021462846FFF721FE17E0708830B92CB1CC
:10455000802C03D021462846FFF717FED5F8140219
:1045600031468268284690472846FFF754F804E011
:1045700031462846FFF711F800BF00BF62E095F80A
:10458000FC01022802D003281BD107E02CB1802CAB
:1045900003D021462846FFF7F8FD17E0708878B968
:1045A00004F07F0048B121462846FFF7CBFBD5F841
:1045B000140231468268284690472846FFF72BF8B8
:1045C00004E031462846FEF7E8FF00BF00BF39E0AF
:1045D00095F8FC01022802D003282BD107E004F053
:1045E0007F0018B121462846FFF7CFFD27E004F0F1
:1045F0008000802806D104F07F0105F1140000EB53
:10460000011005E004F07F0105F5827000EB011058
:10461000074621462846FFF7A3FC18B10120386061
:1046200002E00EE000203860022239462846FEF7FC
:10463000E1FF04E031462846FEF7AFFF00BF00BFB0
:1046400000E000BF00BF404667E770B504460D4676
:10465000002694F8FC01032814D1287901280CDCE9
:10466000D4F814022946826820469047E88840B969
:104670003EB92046FEF7CFFF03E029462046FEF76D
:104680008CFF04E029462046FEF787FF00BF00BFED
:10469000002070BD10B504462179D4F81402426898
:1046A000204690472046FFF7B0FD002010BD704720
:1046B0000146014870470000D004002010B50248B0
:1046C000FDF775F910BD0000B002002000BFFEE745
:1046D00000BFFEE702E008C8121F08C1002AFAD195
:1046E00070477047002001E001C1121F002AFBD172
:1046F000704700000126FCF7B9FAFEF789FEFEF7C5
:10470000A7FAF1034148FCF795FA012805D10121E8
:104710003F48FCF78FFA012812D13E4800683E4915
:104720000840B0F1005F0BD1FEF703FA3948D0F82A
:10473000048047460146086880F3088800BFB847F0
:104740000025002432E0012220213448FCF77AFAC7
:104750006420FCF7C9F8002220213048FCF772FAE7
:104760006420FCF7C1F801212948FCF763FA08B17D
:10477000681CC5B2012D17DD002411E001222021A3
:104780002648FCF75FFA3220FCF7AEF80022202121
:104790002248FCF757FA3220FCF7A6F8601CC4B296
:1047A0000A2CEBDB032603E0601CC4B20A2CCADB34
:1047B00000BF3046FBF746FD012220211748FCF7D9
:1047C00041FA012240211548FCF73CFAFEF724FB90
:1047D0001BE0012240211148FCF734FA032E02D1DC
:1047E0004FF4FA7100E00A210846FCF77DF8002238
:1047F00040210A48FCF726FA032E01D10A2101E0E4
:104800004FF4FA710846FCF76FF8E2E70010024037
:1048100000000240005000080000FE2F000C024083
:10482000030406080C1018203000000000000000EF
:10483000000102030406070809000000000102034A
:104840000400000040496E7465726E616C20466C15
:104850006173682020202F3078303830303030308D
:10486000302F38302A32353642612C313435362AF1
:104870003235364267000000C848000800000020BA
:1048800098000000D446000860490008004000205D
:104890008C010000D4460008EC4A00088C4100203E
:1048A0002C000000D4460008604900089800002051
:1048B00054080000E4460008184B0008B8410020E6
:1048C00028070000E4460008153800083D360008B7
:1048D000A93800088B3600088536000831360008F4
:1048E00037360008A1380008893800088F380008DA
:1048F000CD370008CD370008CD370008DD37000878
:10490000ED37000809021B00010102C03209040052
:104910000000FE01020609210BFF0000041A01003D
:104920000A0600020000004001000000DD39000816
:10493000253A0008353A0008553A0008913A00082F
:10494000A9390008ED3900081201000200000040FA
:10495000830411DF000201020301000004030704C5
:1049600000212048006800F48070B0F5807F07D1F6
:104970001D48406940F002001B4A506141F48071BB
:104980001848006800F40070B0F5007F07D11648A1
:10499000406940F00100144A506141F4007111482F
:1049A000006800F40060B0F5006F07D10E48406960
:1049B00040F004000C4A506141F40061094800686D
:1049C00000F48050B0F5805F07D10748406940F09F
:1049D0002000054A506141F48051024801600020E6
:1049E00070470000183C02409800002010B50446B3
:1049F00000E0641E1948006800F0010008B1002CB6
:104A0000F7D10CB9032010BD1448006800F0020073
:104A1000022801D1114908601048006800F4807034
:104A2000B0F5807F14D00D48006800F40060B0F548
:104A3000006F0DD00948006800F48050B0F5805F29
:104A400006D00648006800F40070B0F5007F03D17E
:104A5000FFF786FF0120D6E70020D4E7183C02408C
:104A60002DE9F04106460C46002500274FF0E020D6
:104A7000806840F001004FF0E02188604CF2503037
:104A8000FFF7B4FF074627BB1748006840F4806073
:104A9000154908600846006840F00800086072B6D2
:104AA00004E0206846F82500241D6D1C202DF8D355
:104AB0004CF25030FFF79AFF074662B60A4800688A
:104AC00020F00800084908600846006820F480606B
:104AD00008604FF0E020806820F001004FF0E021F6
:104AE00088603846BDE8F081043C024000000000C8
:104AF00068FF1F000000000000000000444800089C
:104B0000BD2B0008492B0008552B0008E52B000899
:084B1000C72B0008952B0008DB
:105000002056002039510008B14A010843510008D8
:10501000654A0108AD89000889CA0108000000003E
:1050200000000000000000000000000041840108B2
:1050300065A40008000000006161010879A401086E
:1050400053510008535100085351000853510008B0
:10505000535100085351000889A60008C7A600084C
:10506000D1A60008DBA60008E5A6000853510008F9
:1050700019A4000829A4000853510008535100083E
:105080005351000853510008535100085351000870
:10509000CDC901085351000853510008EFA600087C
:1050A0005351000853510008535100085351000850
:1050B0005351000853510008535100085351000840
:1050C0005351000853510008535100085351000830
:1050D00053510008E9B6010853510008F9B6010818
:1050E00093A60008216B0108535100085351000892
:1050F0005351000853510008535100085351000800
:1051000053510008535100085351000853510008EF
:10511000535100085351000853510008000000008B
:1051200053510008DFF80CD000F068FF004800473A
:105130005D220208205600200648804706480047A6
:10514000FEE7FEE7FEE7FEE7FEE7FEE7FEE7FEE737
:10515000FEE7FEE701A70108255100082DE9F05FF1
:105160000546002092469B468846064681464024D6
:105170001BE0284641464746224600F060F8534669
:105180005A46C01A914110D311461846224600F0E3
:1051900047F82D1A67EB01084F46224601200021EF
:1051A00000F03EF817EB00094E41201EA4F1010467
:1051B000DFDC484631462A464346BDE8F09F2DE9EC
:1051C000F0410024061B254671F1000605DA012492
:1051D0000027D0EB070067EB0101161E73F10006F4
:1051E00005DA0027D2EB0702012567EB0303FFF77F
:1051F000B5FF86460E4617469C46AC4204D00025B5
:10520000D0EB050E65EB010624B10020D2EB0007C0
:1052100060EB030C704631463A466346BDE8F081C8
:10522000202A04DB203A00FA02F100207047914066
:10523000C2F1200320FA03F3194390407047202A5B
:1052400004DB203A21FA02F00021704721FA02F330
:10525000D040C2F12002914008431946704740EA0D
:1052600001039B0703D009E008C9121F08C0042AE4
:10527000FAD203E011F8013B00F8013B521EF9D2CB
:105280007047D2B201E000F8012B491EFBD27047F3
:105290000022F6E710B513460A4604461946FFF702
:1052A000F0FF204610BD421C10F8011B0029FBD165
:1052B000801A704730B504460020034600E05B1CAE
:1052C000934203D2E05CCD5C401BF8D030BD30B5DA
:1052D00005460020034600E05B1C934205D2EC5CCF
:1052E000C85C201A01D1002CF6D130BD0FB400B536
:1052F0008DB010A909900B9000914FF0FF300A90EB
:1053000000200C9005480690054807906A4609A8B9
:105310000F9900F09DFC0DB05DF814FB6D5C00086A
:105320008B5C00082DE9FF5F1D464FF0FF3BD5E980
:10533000014691465F464FF00008A9697F1C01981D
:105340008847296A824688470028F6D1BAF1FF3F8C
:105350000CD024F4C064002E19DD600614D5BAF117
:105360002B0F09D0BAF12D0F0ED103E0584604B02F
:10537000BDE8F09F44F48064A9697F1C01988847C8
:10538000761E8246002E02DDBAF1300F03D0B9F14D
:10539000000F26D032E0A969761E44F400747F1C09
:1053A000019888478246002E05DDBAF1780F06D0B5
:1053B000BAF1580F03D0B9F1000F10D01EE0B9F1C7
:1053C000000F02D0B9F1100F18D1A969761E24F48C
:1053D00000747F1C019888478246102002E0082054
:1053E00000E00A20814609E008FB0908A969761E49
:1053F00044F400747F1C019888478246002E05DD26
:105400004946504600F00FFC0028EDDAE9690198A2
:105410008847A00502D46FF00100A8E7E00725D176
:10542000600613D5600502D5C8F1000000E04046D3
:1054300029680A1D2A600968220501D5087015E04F
:10544000220701D5088011E008600FE02868011DDF
:1054500029600068210502D580F8008006E0210758
:1054600002D5A0F8008001E0C0F8008038467EE751
:105470002DE9F04791460F4680460446002614F871
:10548000015B2DB100F0C2FB0068405DC007F6D1A2
:105490002B2D02D02D2D18D0641E4A4639462046A9
:1054A00000F004FC27B13968A14201D1C7F800809F
:1054B00071054FF002040BD54042002803DD17F0C0
:1054C000F1FE0460A007BDE8F08746F48066E4E7DB
:1054D0000028F8DA17F0E6FE04606FF00040F2E70B
:1054E00070B5064617F0DEFE046805460A22002164
:1054F0003046FFF7BDFF2C6070BDF0B480EA0102BA
:10550000D40F4200B2EB410F02D2024608461146C8
:105510004A0042D0C30DDDB2C1F3C752AD1A202DEF
:1055200035DAC1F3160141F4000204B15242C5F16B
:10553000200602FA06F12A411044B3EBD05F23D0D3
:10554000C4B1012DA0EBC35009DCF0BC4FF0004208
:1055500002EAC352DBB200F5000000F0FFBB4000DE
:1055600000F1807000EBC350A0F1807040EAD17070
:10557000490009E0490841EAC071A0EBC35000F5B9
:105580000000400800EBC350F0BC00F0DEBB6142FD
:10559000012202EB4101001BF6E7F0BC704781F0ED
:1055A0000041AAE780F00040A7E780EA010210B5B9
:1055B00002F00043400022D04A001FD0010E01EB50
:1055C0001261C0F35600C2F3560240F4000042F4E8
:1055D0000002A0FB022000047F39140400D0401C0C
:1055E00050EA124001D44000491EC2B20C0604EB3E
:1055F000D010401C4008802A02D003E0002010BDDB
:1056000020F00100002900DA0020184310BD30B45A
:1056100080EA010202F0004530F0004221F0004033
:1056200013D090B1C30DD40DC2F31601C0F3160010
:10563000E41A41F4000140F400027D34914201D3A8
:10564000641C00E04900002C02DA30BC00207047E6
:105650004FF400000023914201D3891A034340080C
:105660004FEA4101F7D151B1914202D14FF00041CF
:1056700005E002D24FF0010101E06FF0010103EB00
:10568000C450284430BC00F060BB2DE9FE4F80467A
:1056900081EA0300C00F0C46009021F0004123F086
:1056A0000045B8EB0200A94105D24046214690468C
:1056B0001C460B46024623F00040104347D0270DFE
:1056C000C7F30A00C3F30A510290401A0190402820
:1056D0006BDAC3F3130040F4801B0098924620B1AC
:1056E0000023D2EB030A63EB0B0B01985946C0F180
:1056F00040025046FFF794FD06460D465046594677
:10570000019A00F071FA10EB08006141002487EA69
:10571000115284EAE7731A4340D0009A62B3019AA7
:10572000012A4FEA075215DC001B61EB02014FF022
:10573000004202EA0752CDE90042001C41F5801107
:1057400032462B4600F047FB03B0BDE8F08F4046E1
:105750002146F9E7001B61EB0201001C41F58013B3
:1057600000185B412018A2F5001747EB030140EA3F
:10577000D570B6196D4111E06D084FEA360645EA5D
:10578000C0754FEA0752001B61EB0201001C41F596
:10579000801149084FEA30000019514132462B462A
:1057A00003B0BDE8F04F00F007BB009801224000B5
:1057B0000023D0EB020263EBE073009821464FEA2E
:1057C000E074B8EB000061EB0401E9E783F000430B
:1057D0005BE781F0004158E72DE9FE4F81EA0304C1
:1057E00004F0004421F0004100944FF0000B23F03E
:1057F000004350EA01045ED052EA03045BD0C3F3D5
:105800000A54C1F30A552C44A4F2F3340194A0FBCA
:105810000254C1F3130141F48011C3F3130343F4A1
:10582000801301FB024400FB034E840A970A44EAFA
:10583000815447EA8357A4FB076802958D0A05FB4C
:1058400007854FEA932C04FB0C542705029D4FEA71
:10585000065847EA1637B5EB08056EEB070C870EBE
:10586000920E47EA811742EA8312A7FB0201B6EBC8
:105870000B0164EB00042B0D43EA0C335E1844EB80
:105880001C50DA465146E7FB0201C5F313044FEA08
:105890000B3343EA14534FEA0432019C43EA0603F4
:1058A000A4F10C040294009CCDE900B400F093FA3A
:1058B00003B0BDE8F08F00200146F9E72DE9F04D77
:1058C00081EA030404F0004B21F0004514464FF038
:1058D000000A23F0004150EA050220D054EA0102F8
:1058E0001DD0C5F30A570246C5F31303C1F31300D5
:1058F000C1F30A5640F4801543F48013A7EB060861
:10590000101BD64608F2FD3873EB050002D308F1F0
:10591000010801E092185B41B8F1000F03DA0020A2
:105920000146BDE8F08D00204FF480110646844604
:105930000EE0171B73EB050705D3121B63EB050382
:1059400006434CEA010C49084FEA300092185B41CB
:1059500050EA0107EDD152EA030012D082EA0400B6
:1059600083EA0501084305D0101BAB4106D2012292
:10597000002306E000224FF0004302E06FF0010236
:1059800053101AEB06004CEB085110EB0A0041EBE8
:105990000B01BDE8F04D00F00FBAC10F80EAE070D6
:1059A0000844CA079623002100F0D8B996230022A4
:1059B000114600F0D3B90EB5C10F80EAE07008447B
:1059C000CA07002140F233438DE80E000A460B4619
:1059D00000F001FA03B000BD0EB540F23341029170
:1059E0000021CDE900110A460B4600F0F4F903B09E
:1059F00000BD0EB540F2334202920022CDE90022F2
:105A0000134600F0E8F903B000BD00F0004220F0BA
:105A10000040C10DC0F3160040F400007F2901DAF8
:105A200000207047962903DCC1F19601C84001E0CF
:105A300096398840002AF4D04042704720F0004058
:105A4000C10DC0F3160040F400007F2901DA0020E8
:105A50007047962903DCC1F19601C840704796391A
:105A60008840704770B5C1F30A5201F00045002428
:105A7000C1F3130140F2FF3341F480119A4201DA7D
:105A8000002070BD40F233439A42A2F2334203DC5D
:105A90005242FFF7D4FB00E090402C43F1D040424B
:105AA00070BDC1F30A5210B5C1F3130140F2FF33C8
:105AB00041F480119A4201DA002010BD40F23343D4
:105AC0009A42A2F2334203DC5242FFF7B8FB10BD08
:105AD000904010BD00F0004230F000400AD0C10DEF
:105AE00001F56071C0F3160042EA0151C208400797
:105AF00011437047002001467047000030B5041E76
:105B000071F1000404DB4FF00044404264EB0101FA
:105B1000141E73F1000405DB1C464FF00043524293
:105B200063EB04038B4208BF824230BD30B5041ED4
:105B300071F1000404DB4FF00044404264EB0101CA
:105B4000141E73F1000405DB1C464FF00043524263
:105B500063EB0403994208BF904230BD01F000435B
:105B600030B421F0004150EA010206D00A0DA2F53E
:105B70006072C1F31301002A02DC30BC00207047C0
:105B8000440F44EAC104C100E01830BC00EBC2502D
:105B900000F0DBB8002801DBC0F10040002901DB88
:105BA000C1F1004181427047002801DBC0F1004093
:105BB000002901DBC1F100418842704730B50B4636
:105BC000014600202022012409E021FA02F59D422D
:105BD00005D303FA02F5491B04FA02F52844151E01
:105BE000A2F10102F1DC30BD202A06DBCB17203AFE
:105BF00041FA02F043EAE07306E041FA02F3D040D2
:105C0000C2F120029140084319467047004870478E
:105C10002C42020810B50446FFF7F8FF0068005D4B
:105C200000F0010010BD3A2800D2303820F02002E8
:105C3000412A01D3A2F13700884201D34FF0FF304F
:105C400070470000026811441378016018467047DD
:105C5000D16004495161044911620021116111466A
:105C600000F0DEB9455C0008155C0008426842B1EE
:105C7000016811F8013B23B1521EC0E90012184619
:105C800070470121C160881E704742685AB1C368DD
:105C9000016843B983688B4205D0491E521CC0E994
:105CA0000012002070474FF0FF3070472DE9F05F81
:105CB00082460078002715468B460AF10104B94652
:105CC000302801D09DB113E014F8010B012778288A
:105CD00003D0582801D045B10AE00DB1102D07D1ED
:105CE0000027102514F8010B02E0082500E00A2522
:105CF0000026B0460EE005FB080005FB06F1012773
:105D000001EB10461FFA80F8B6F5803F00D3B94684
:105D100014F8010B2946FFF786FF0028EBDABBF1E8
:105D2000000F05D00FB1641E00E05446CBF80040D0
:105D3000B9F1000F06D017F0B5FA02210160C81EB4
:105D4000BDE8F09F48EA0640FAE70029A8BF70477F
:105D5000401C490008BF20F00100704710B4B0FAA1
:105D600080FC00FA0CF050EA010404BF10BC70473C
:105D700049B1CCF1200421FA04F411FA0CF118BF56
:105D8000012121430843A3EB0C01CB1D4FEA006125
:105D90004FEA102042BF002010BC704700EBC350F8
:105DA00010440029A4BF10BC7047401C490008BF24
:105DB00020F0010010BC704710B5141E73F10004F0
:105DC00008DA401C41F1000192185B411A4301D1ED
:105DD00020F0010010BD2DE9F04D92469B4611B117
:105DE000B1FA81F202E0B0FA80F220329046FFF779
:105DF00017FA04460F4640EA0A0041EA0B015346EF
:105E00005A46084313D0114653EA010019D0C8F18D
:105E100040025046FFF713FA05460E4650465946D3
:105E20004246FFF7FDF9084305D0012004E0204673
:105E30003946BDE8F08D0020054346EAE0762C4364
:105E400037430A986305E40AA0EB08000022FD0A24
:105E500044EA47540A3002D500200146E9E701052B
:105E600010196941DDE9084500196941BDE8F04DA7
:105E7000A2E770B521F0004303430CD0C1F30A55EB
:105E80000024D5EB040564EB0403D617AD1AB34127
:105E900002DB0020014670BD201841EB025170BDAD
:105EA0002DE9F04D00231A461B1A8A4103DB00201E
:105EB0000146BDE8F08DC1F30A52C1F3130141F46C
:105EC00080154FF0000BD10702D100186D41521E12
:105ED0000027044640F2FF11384601EB620A3E46B5
:105EE0008046024600204FF48011FFF7A8F9C2193E
:105EF0007141BB1846EB0100B4EB030C75EB000CD1
:105F000004D3E41A65EB000517460E46241908F180
:105F100001006D4180463428E3DDF91946EB0600A7
:105F2000091BA84103D24FF0FF32134601E00022C3
:105F300013461BEB070046EB0A51BDE8F04DFFF797
:105F40003BBF00002DE9F041054621F000400C4622
:105F5000284309D0C4F30A5040F23341884205DD9A
:105F600028462146BDE8F0812846FBE740F2FE3195
:105F7000884210DC0CDB4FEA043040EA155050EA4E
:105F8000053105D0104804F0004101430020E9E745
:105F900000200146E6E7A0F233404642C6F1400247
:105FA00028462146FFF73CF9074688462846214601
:105FB0003246FFF744F943463A46FFF7FDFE3246C4
