:020000040800F2
:10500000885800203D510008B54E0108475100085E
:10501000694E01082D8A00088DCE010800000000AD
:1050200000000000000000000000000045880108AA
:105030000DA5000800000000656501087DA80108B5
:1050400057510008575100085751000857510008A0
:10505000575100085751000831A700086FA70008F2
:1050600079A7000883A700088DA7000857510008FA
:10507000C1A40008D1A400085751000857510008E6
:105080005751000857510008575100085751000860
:10509000D1CD0108575100085751000897A70008C3
:1050A0005751000857510008575100085751000840
:1050B0005751000857510008575100085751000830
:1050C0005751000857510008575100085751000820
:1050D00057510008EDBA010857510008FDBA010800
:1050E0003BA70008256F01085751000857510008D9
:1050F00057510008575100085751000857510008F0
:1051000057510008575100085751000857510008DF
:10511000575100085751000857510008000000007F
:1051200057510008DFF810D000F06AFF0048004730
:1051300011260208AFF300808858002006488047F7
:1051400006480047FEE7FEE7FEE7FEE7FEE7FEE76C
:10515000FEE7FEE7FEE7FEE705AB01082551000884
:105160002DE9F05F0546002092469B46884606469C
:10517000814640241BE0284641464746224600F02F
:1051800060F853465A46C01A914110D3114618464A
:10519000224600F047F82D1A67EB01084F462246D9
:1051A0000120002100F03EF817EB00094E41201EBF
:1051B000A4F10104DFDC484631462A464346BDE8F7
:1051C000F09F2DE9F0410024061B254671F10006F1
:1051D00005DA01240027D0EB070067EB0101161E5A
:1051E00073F1000605DA0027D2EB0702012567EB11
:1051F0000303FFF7B5FF86460E4617469C46AC42B2
:1052000004D00025D0EB050E65EB010624B100208B
:10521000D2EB000760EB030C704631463A4663461A
:10522000BDE8F081202A04DB203A00FA02F10020D8
:1052300070479140C2F1200320FA03F319439040D4
:105240007047202A04DB203A21FA02F0002170473F
:1052500021FA02F3D040C2F12002914008431946DE
:10526000704740EA01039B0703D009E008C9121FF9
:1052700008C0042AFAD203E011F8013B00F8013B10
:10528000521EF9D27047D2B201E000F8012B491E3C
:10529000FBD270470022F6E710B513460A460446D3
:1052A0001946FFF7F0FF204610BD421C10F8011B05
:1052B0000029FBD1801A704730B504460020034610
:1052C00000E05B1C934203D2E05CCD5C401BF8D055
:1052D00030BD30B505460020034600E05B1C93421C
:1052E00005D2EC5CC85C201A01D1002CF6D130BD8F
:1052F0000FB400B58DB010A909900B9000914FF03C
:10530000FF300A9000200C90054806900548079051
:105310006A4609A80F9900F09DFC0DB05DF814FBDA
:10532000715C00088F5C00082DE9FF5F1D464FF09F
:10533000FF3BD5E9014691465F464FF00008A96959
:105340007F1C01988847296A824688470028F6D141
:10535000BAF1FF3F0CD024F4C064002E19DD6006C2
:1053600014D5BAF12B0F09D0BAF12D0F0ED103E0ED
:10537000584604B0BDE8F09F44F48064A9697F1CDE
:1053800001988847761E8246002E02DDBAF1300F62
:1053900003D0B9F1000F26D032E0A969761E44F49B
:1053A00000747F1C019888478246002E05DDBAF103
:1053B000780F06D0BAF1580F03D0B9F1000F10D012
:1053C0001EE0B9F1000F02D0B9F1100F18D1A96990
:1053D000761E24F400747F1C0198884782461020B2
:1053E00002E0082000E00A20814609E008FB0908E5
:1053F000A969761E44F400747F1C01988847824690
:10540000002E05DD4946504600F00FFC0028EDDA7D
:10541000E96901988847A00502D46FF00100A8E768
:10542000E00725D1600613D5600502D5C8F100005C
:1054300000E0404629680A1D2A600968220501D556
:10544000087015E0220701D5088011E008600FE020
:105450002868011D29600068210502D580F80080B8
:1054600006E0210702D5A0F8008001E0C0F8008026
:1054700038467EE72DE9F04791460F4680460446C0
:10548000002614F8015B2DB100F0C2FB0068405DFE
:10549000C007F6D12B2D02D02D2D18D0641E4A4600
:1054A0003946204600F004FC27B13968A14201D1F9
:1054B000C7F8008071054FF002040BD54042002868
:1054C00003DD18F0D5F80460A007BDE8F08746F4C6
:1054D0008066E4E70028F8DA18F0CAF804606FF094
:1054E0000040F2E770B5064618F0C2F804680546B9
:1054F0000A2200213046FFF7BDFF2C6070BDF0B4DA
:1055000080EA0102D40F4200B2EB410F02D2024600
:10551000084611464A0042D0C30DDDB2C1F3C7525E
:10552000AD1A202D35DAC1F3160141F4000204B1A1
:105530005242C5F1200602FA06F12A411044B3EBAB
:10554000D05F23D0C4B1012DA0EBC35009DCF0BC67
:105550004FF0004202EAC352DBB200F5000000F057
:10556000FFBB400000F1807000EBC350A0F18070E1
:1055700040EAD170490009E0490841EAC071A0EB56
:10558000C35000F50000400800EBC350F0BC00F031
:10559000DEBB6142012202EB4101001BF6E7F0BCD9
:1055A000704781F00041AAE780F00040A7E780EA59
:1055B000010210B502F00043400022D04A001FD083
:1055C000010E01EB1261C0F35600C2F3560240F423
:1055D000000042F40002A0FB022000047F39140402
:1055E00000D0401C50EA124001D44000491EC2B213
:1055F0000C0604EBD010401C4008802A02D003E0C7
:10560000002010BD20F00100002900DA002018431E
:1056100010BD30B480EA010202F0004530F00042D3
:1056200021F0004013D090B1C30DD40DC2F3160188
:10563000C0F31600E41A41F4000140F400027D3486
:10564000914201D3641C00E04900002C02DA30BC16
:10565000002070474FF400000023914201D3891AC3
:10566000034340084FEA4101F7D151B1914202D1C1
:105670004FF0004105E002D24FF0010101E06FF070
:10568000010103EBC450284430BC00F060BB2DE99D
:10569000FE4F804681EA0300C00F0C46009021F0C7
:1056A000004123F00045B8EB0200A94105D2404675
:1056B000214690461C460B46024623F0004010430C
:1056C00047D0270DC7F30A00C3F30A510290401ACE
:1056D000019040286BDAC3F3130040F4801B00985C
:1056E000924620B10023D2EB030A63EB0B0B019827
:1056F0005946C0F140025046FFF794FD06460D465C
:1057000050465946019A00F071FA10EB08006141C9
:10571000002487EA115284EAE7731A4340D0009AC2
:1057200062B3019A012A4FEA075215DC001B61EBB4
:1057300002014FF0004202EA0752CDE90042001C8C
:1057400041F5801132462B4600F047FB03B0BDE81F
:10575000F08F40462146F9E7001B61EB0201001C77
:1057600041F5801300185B412018A2F5001747EBA4
:10577000030140EAD570B6196D4111E06D084FEA9A
:10578000360645EAC0754FEA0752001B61EB02017D
:10579000001C41F5801149084FEA300000195141C1
:1057A00032462B4603B0BDE8F04F00F007BB00982F
:1057B000012240000023D0EB020263EBE07300986B
:1057C00021464FEAE074B8EB000061EB0401E9E721
:1057D00083F000435BE781F0004158E72DE9FE4F7D
:1057E00081EA030404F0004421F0004100944FF0EA
:1057F000000B23F0004350EA01045ED052EA030498
:105800005BD0C3F30A54C1F30A552C44A4F2F33419
:105810000194A0FB0254C1F3130141F48011C3F3BE
:10582000130343F4801301FB024400FB034E840A7C
:10583000970A44EA815447EA8357A4FB0768029514
:105840008D0A05FB07854FEA932C04FB0C542705B2
:10585000029D4FEA065847EA1637B5EB08056EEB8E
:10586000070C870E920E47EA811742EA8312A7FBC4
:105870000201B6EB0B0164EB00042B0D43EA0C3381
:105880005E1844EB1C50DA465146E7FB0201C5F3B3
:1058900013044FEA0B3343EA14534FEA0432019CDA
:1058A00043EA0603A4F10C040294009CCDE900B481
:1058B00000F093FA03B0BDE8F08F00200146F9E74D
:1058C0002DE9F04D81EA030404F0004B21F000457E
:1058D00014464FF0000A23F0004150EA050220D0A0
:1058E00054EA01021DD0C5F30A570246C5F313035B
:1058F000C1F31300C1F30A5640F4801543F480133A
:10590000A7EB0608101BD64608F2FD3873EB05001E
:1059100002D308F1010801E092185B41B8F1000FD1
:1059200003DA00200146BDE8F08D00204FF480111D
:10593000064684460EE0171B73EB050705D3121BC2
:1059400063EB050306434CEA010C49084FEA3000BB
:1059500092185B4150EA0107EDD152EA030012D0E0
:1059600082EA040083EA0501084305D0101BAB411D
:1059700006D20122002306E000224FF0004302E09D
:105980006FF0010253101AEB06004CEB085110EBBC
:105990000A0041EB0B01BDE8F04D00F00FBAC10F5A
:1059A00080EAE0700844CA079623002100F0D8B9C5
:1059B00096230022114600F0D3B90EB5C10F80EA3C
:1059C000E0700844CA07002140F233438DE80E001E
:1059D0000A460B4600F001FA03B000BD0EB540F2D6
:1059E000334102910021CDE900110A460B4600F037
:1059F000F4F903B000BD0EB540F23342029200222A
:105A0000CDE90022134600F0E8F903B000BD00F034
:105A1000004220F00040C10DC0F3160040F4000029
:105A20007F2901DA00207047962903DCC1F1960135
:105A3000C84001E096398840002AF4D040427047BF
:105A400020F00040C10DC0F3160040F400007F2993
:105A500001DA00207047962903DCC1F19601C840A5
:105A6000704796398840704770B5C1F30A5201F00B
:105A700000450024C1F3130140F2FF3341F48011CB
:105A80009A4201DA002070BD40F233439A42A2F2FA
:105A9000334203DC5242FFF7D4FB00E090402C433A
:105AA000F1D0404270BDC1F30A5210B5C1F31301E9
:105AB00040F2FF3341F480119A4201DA002010BD18
:105AC00040F233439A42A2F2334203DC5242FFF7E0
:105AD000B8FB10BD904010BD00F0004230F0004017
:105AE0000AD0C10D01F56071C0F3160042EA015100
:105AF000C20840071143704700200146704700006C
:105B000030B5041E71F1000404DB4FF00044404244
:105B100064EB0101141E73F1000405DB1C464FF019
:105B20000043524263EB04038B4208BF824230BD04
:105B300030B5041E71F1000404DB4FF00044404214
:105B400064EB0101141E73F1000405DB1C464FF0E9
:105B50000043524263EB0403994208BF904230BDB8
:105B600001F0004330B421F0004150EA010206D0B8
:105B70000A0DA2F56072C1F31301002A02DC30BCE9
:105B800000207047440F44EAC104C100E01830BC53
:105B900000EBC25000F0DBB8002801DBC0F1004090
:105BA000002901DBC1F1004181427047002801DB7F
:105BB000C0F10040002901DBC1F10041884270477B
:105BC00030B50B46014600202022012409E021FACD
:105BD00002F59D4205D303FA02F5491B04FA02F5CA
:105BE0002844151EA2F10102F1DC30BD202A06DB9B
:105BF000CB17203A41FA02F043EAE07306E041FA9B
:105C000002F3D040C2F12002914008431946704788
:105C100000487047E445020810B50446FFF7F8FF56
:105C20000068005D00F0010010BD3A2800D2303855
:105C300020F02002412A01D3A2F13700884201D38B
:105C40004FF0FF3070470000026811441378016084
:105C500018467047D160044951610449116200211E
:105C60001161114600F0DEB9495C0008195C0008BA
:105C7000426842B1016811F8013B23B1521EC0E9EC
:105C80000012184670470121C160881E70474268A3
:105C90005AB1C368016843B983688B4205D0491E75
:105CA000521CC0E90012002070474FF0FF307047CF
:105CB0002DE9F05F82460078002715468B460AF1F1
:105CC0000104B946302801D09DB113E014F8010B4E
:105CD0000127782803D0582801D045B10AE00DB13A
:105CE000102D07D10027102514F8010B02E008251C
:105CF00000E00A250026B0460EE005FB080005FB83
:105D000006F1012701EB10461FFA80F8B6F5803F37
:105D100000D3B94614F8010B2946FFF786FF002887
:105D2000EBDABBF1000F05D00FB1641E00E0544662
:105D3000CBF80040B9F1000F06D017F099FC022112
:105D40000160C81EBDE8F09F48EA0640FAE7002956
:105D5000A8BF7047401C490008BF20F001007047F1
:105D600010B4B0FA80FC00FA0CF050EA010404BF51
:105D700010BC704749B1CCF1200421FA04F411FAA7
:105D80000CF118BF012121430843A3EB0C01CB1DEB
:105D90004FEA00614FEA102042BF002010BC70475C
:105DA00000EBC35010440029A4BF10BC7047401C36
:105DB000490008BF20F0010010BC704710B5141E48
:105DC00073F1000408DA401C41F1000192185B41B4
:105DD0001A4301D120F0010010BD2DE9F04D92468B
:105DE0009B4611B1B1FA81F202E0B0FA80F22032A2
:105DF0009046FFF717FA04460F4640EA0A0041EAC8
:105E00000B0153465A46084313D0114653EA01008A
:105E100019D0C8F140025046FFF713FA05460E4666
:105E2000504659464246FFF7FDF9084305D0012088
:105E300004E020463946BDE8F08D0020054346EADF
:105E4000E0762C4337430A986305E40AA0EB080088
:105E50000022FD0A44EA47540A3002D500200146D8
:105E6000E9E7010510196941DDE9084500196941B3
:105E7000BDE8F04DA2E770B521F0004303430CD01C
:105E8000C1F30A550024D5EB040564EB0403D617CF
:105E9000AD1AB34102DB0020014670BD201841EB72
:105EA000025170BD2DE9F04D00231A461B1A8A419C
:105EB00003DB00200146BDE8F08DC1F30A52C1F3B7
:105EC000130141F480154FF0000BD10702D10018E7
:105ED0006D41521E0027044640F2FF11384601EB87
:105EE000620A3E468046024600204FF48011FFF7CA
:105EF000A8F9C2197141BB1846EB0100B4EB030CC1
:105F000075EB000C04D3E41A65EB000517460E464A
:105F1000241908F101006D4180463428E3DDF919A8
:105F200046EB0600091BA84103D24FF0FF3213468F
:105F300001E0002213461BEB070046EB0A51BDE8C7
:105F4000F04DFFF73BBF00002DE9F041054621F081
:105F500000400C46284309D0C4F30A5040F23341B4
:105F6000884205DD28462146BDE8F0812846FBE74A
:105F700040F2FE31884210DC0CDB4FEA043040EA8C
:105F8000155050EA053105D0104804F00041014396
:105F90000020E9E700200146E6E7A0F23340464250
:105FA000C6F1400228462146FFF73CF907468846DD
:105FB000284621463246FFF744F943463A46FFF762
:105FC000FDFE3246BDE8F041FFF72CB90000F03F7E
:105FD000C1F30A52C1F3130140F2FF3341F48011BF
:105FE0009A4202DA00200146704740F233439A4257
:105FF000A2F2334202DC5242FFF723B9FFF712B993
:10600000064C074D06E0E06840F0010394E8070005
:1060100098471034AC42F6D3FFF788F8D44702080B
:10602000F44702082DE9F34F8BB04FF0000801F15F
:106030000C000C464FF0010B46460DF1080A01908A
:106040006269012101989047051E2DD0252D2CD085
:10605000216A8847C0B16269012101989047216A8D
:1060600088470028F7D1411E62690198904700E0F7
:10607000761CA1690B988847216A88470028F7D1C8
:10608000E1690B988847DBE7A1690B9888470746C9
:10609000A84201D1761CD3E7E1690B9888477F1CA1
:1060A00002D1B8F1000F6FD047E1002762693D4689
:1060B0003946019890472A2804D162690121019844
:1060C00090470125DFF88892626901210198904785
:1060D000A0F130010A290AD24F45E5DC07EB870120
:1060E00000EB4107303FDFD445F01005ECE7E9064F
:1060F00001D46FF000476C280AD04C2814D06828CF
:1061000015D06A280DD074281CD07A281AD01DE02A
:1061100062690121019890476C2802D045F004057E
:1061200014E045F002050DE045F020050AE0626943
:10613000012101989047682802D045F0080505E044
:1061400045F400656269012101989047C4E901574F
:1061500065283DD019DC58287AD00CDC452837D08A
:1061600004DC252826D0412831D131E046282FD023
:1061700047282CD12CE05B2877D0612828D06328D1
:106180007CD0642823D15AE0D1E06F2848D008DCC5
:1061900066281DD067281BD0692821D06E2816D10B
:1061A00027E0702845D0732868D0752847D0782814
:1061B0000DD14DE0A1690B988847054625283FF48D
:1061C00069AFE1690B9888476D1C3FF46AAFB4E092
:1061D00023466A466FF001000B99AFF300809FE001
:1061E00045F040006060A80723464FF0000236D417
:1061F0003EE0E8077FF447AF2068011D216000689A
:10620000290501D506701BE7290701D5068017E788
:10621000A90703D5F117C0E9006111E706600FE790
:1062200045F040006060A80723464FF0080216D4EE
:106230001EE040F60E0125EA0100606016E045F020
:1062400040006060A80723464FF00A0207D40FE021
:1062500045F040006060A80708D5234610226FF083
:1062600001000B99AFF300805AE007E023461022AB
:106270006FF001000B99FFF757F851E04FF000095C
:106280004F464B46632802D05B2807D041E0207977
:10629000C00601D40120A06001273AE06269012113
:1062A000019890475E2805D14FF00109626949467F
:1062B00001989047216939B900210A46534643F8AD
:1062C0002120491C0829FADBB0B3216969B9C1173B
:1062D00000EBD16253110AEB830122F01F02821AF4
:1062E00001200B68904003430B6062690121019813
:1062F00090475D28E8D1B9F1000F09D00020514640
:1063000051F82020D24341F82020401C0828F7DB18
:1063100002AB224600976FF001000B99AFF30080AB
:1063200000280CDA401C08D1BBF1000F05D04FF05B
:10633000FF300DB0BDE8F08FFFE74046F9E7E90711
:1063400001D108F1010806444FF0000B78E6000087
:10635000CCCCCC0C70B58C1810F8015B15F0070391
:1063600001D110F8013B2A1106D110F8012B03E0EE
:1063700010F8016B01F8016B5B1EF9D12B0705D4F6
:106380000023521E0DD401F8013BFAE710F8013B3F
:10639000CB1A921C03E013F8015B01F8015B521E5B
:1063A000F9D5A142D8D3002070BD70B504460025B0
:1063B00020680068C0F38010F0B12068806820F089
:1063C00001002168886005F02FFF05460EE005F00A
:1063D0002BFF401B022809D9E06C40F01000E0645C
:1063E000206D40F001002065012070BD206800682C
:1063F000C0F380100028EAD10020F6E770B505460A
:106400006C6AE06C00F0500050BBE06C40F400702F
:10641000E0642068806800F04050E8B9606AD8B94C
:106420002068006B00F0F87020B12068806800F4EC
:10643000806088B92068406820F0200021684860AA
:10644000E06C20F48070E064E06C00F4805018B9D7
:10645000E06C40F00100E064204604F027FF03E018
:10646000606C016B2846884770BD70B505466C6A44
:10647000E06C40F04000E064206D40F004002065D6
:10648000204604F015FF70BD70B50446656A2846C5
:1064900004F00DFF70BD000038B504460025002053
:1064A000009020680068C0F3801090BB206880686E
:1064B00040F0010021688860174800681749B0FB68
:1064C000F1F000EB4000009002E00098401E0090C8
:1064D00000980028F9D105F0A7FE054613E005F065
:1064E000A3FE401B02280ED9E06C40F01000E064CF
:1064F000206D40F00100206500BF002084F84800B6
:1065000000BF012038BD20680068C0F3801000285B
:10651000E5D00020F6E700000000002040420F0018
:1065200070B504460D4600260F4804700F480580DC
:1065300016E000F0ABFB00B113E0204600F0A0FB3A
:10654000002000F0CFFB00B10BE000F09FFB00B19A
:1065500007E0002000F06EFB00B902E0012600E039
:10656000E7E700BF304670BD2C0000202E00002061
:1065700010B51021034805F049FE012800D110BDD7
:106580000020FCE70004024000B585B014216846F5
:10659000FEF780FE0BF07CFC0320019000200290AF
:1065A0006A46022107480AF01DFF6A460421054891
:1065B0000AF018FF6A46082102480AF013FF05B0E6
:1065C00000BD00000000024000B585B014216846FF
:1065D000FEF760FE0020019002200390012002904F
:1065E0006A4602210F480AF0FDFE002002900120B9
:1065F0000190012204210B4805F010FE6A46042197
:1066000008480AF0EFFE01220821064805F006FEC0
:106610006A46082103480AF0E5FE0BF04FFC05B07E
:1066200000BD00000000024053490979534A11712E
:106630005149497951715049897991714E49C979C6
:10664000D1714D49097A11724B49497A5172002131
:1066500011735173917351700221D17013281DD29F
:10666000DFE800F00A1D1E0B1F203E4A4B4C4D4E2A
:106670004F50606162635C0000BF12213F4AD170DD
:10668000012111702021917010B90221917202E054
:1066900006213A4A91728F21384AD17264E000BFD4
:1066A00000BF00BF2221354AD17001211170202185
:1066B0009170012801D0022803D102212F4A917242
:1066C00002E004212D4A9172012801D0042803D14F
:1066D00082212A4AD17202E02821284AD17243E05D
:1066E0000221264AD17001211170202191700021D0
:1066F0009172F021D17237E000BF00BF00BF00BF30
:1067000000BF00BF52211D4AD170012111703021FC
:10671000917000219172F021D17225E02221174A57
:10672000D17000BF00BF00BF00BF0E2801D01228EB
:1067300003D11F21114A11700EE00F2803D1272128
:106740000E4A117008E0112803D12F210B4A117055
:1067500002E03721094A11703021084A9170002166
:106760009172F021D17200BF00BF0449897A41F0D3
:106770000801024A917270471F0E0020100E00207F
:1067800010B50446012C00D100E00020024608218B
:10679000014805F043FD10BD0000024010B504465D
:1067A000012C00D100E0002002461021014805F034
:1067B00035FD10BD000002402DE9F04F8BB00546BD
:1067C0000E469146DFF8E48201200890132E7DD218
:1067D000DFE806F01112130A0B0C7C494A4B4C4DB2
:1067E0004E4F8EE9FCFBB90000BF00BF00200890AF
:1067F000DFF8BC8200BF00BF00BFE8170022A5FB86
:10680000081300FB083005FB0200AA4A0023CDE96B
:10681000061008460799FEF7D4FC824650460899B0
:1068200010F0C2FB09900998FFF7B9F8A249079048
:10683000FEF7EFFE04462046FFF74EF900229F4B7D
:10684000CDE90601FFF774F901D29D4C0AE020461C
:10685000FFF742F900229B4BCDE90601FFF750F903
:1068600000D2994C1CE100BF00BF00BF00BF00BFB9
:1068700000BF301FC7B2062F01DB781EC7B24FF42E
:106880007A4085FB00108B4A0023CDE906100846AC
:106890000799FEF796FC83463946484614F0D0FC2B
:1068A00083443946584614F0A1F909900998FFF736
:1068B00076F881490790FEF7ACFE04462046FFF7C4
:1068C0000BF900227D4BCDE9060100E0E3E0FFF784
:1068D0002FF901D27A4C0AE02046FFF7FDF800229A
:1068E000784BCDE90601FFF70BF900D2764CD7E0E3
:1068F0002846FFF754F80190FFF7EEF8734A744BFF
:10690000CDE90201FEF76AFF4FF04042714BCDE93D
:106910000401FEF7D5FFCDE90601FFF721F9044692
:106920002046FFF7D9F800226B4BCDE90601FFF7AF
:10693000FFF801D2694C05E000212046FFF72CF951
:1069400000D20024ACE02846FFF729F80190FFF7B9
:10695000C3F85E4A624BCDE90201FEF73FFF4FF0FC
:1069600040425C4BCDE90401FEF7AAFFCDE90601E8
:10697000FFF7F6F804462046FFF7AEF80022594B21
:10698000CDE90601FFF7D4F801D2574C0AE02046C2
:10699000FFF7A2F800221346CDE90601FFF7B0F891
:1069A00000D200247CE02846FEF7F9FF0190FFF7B3
:1069B00093F84E4A4E4BCDE90201FEF70FFF4FF020
:1069C0004042444BCDE9040101E03FE019E0FEF70D
:1069D00077FFCDE90601FFF7C3F804462046FFF72D
:1069E0007BF80022434BCDE90601FFF7A1F801D265
:1069F000414C05E000212046FFF7CEF800D20024EC
:106A00004EE02846FEF7CBFF4FF08A410690FEF796
:106A1000CEFD3A490790FEF7FCFD04462046FFF7FD
:106A20005BF80022364BCDE90601FFF781F801D271
:106A3000344C0AE02046FFF74FF80022324BCDE9F4
:106A40000601FFF75DF800D2304C29E02846FEF73A
:106A5000A6FF4FF045410690FEF7A9FD2749079094
:106A6000FEF7D7FD04462046FFF736F80022244BF8
:106A7000CDE90601FFF75CF801D2224C0AE020467E
:106A8000FFF72AF80022204BCDE90601FFF738F87E
:106A900000D21E4C04E02846FEF781FF044600BFEA
:106AA00000BF20460BB0BDE8F08F0000A0252600F7
:106AB00090D00300FFFF7F000000C84200406F40FD
:106AC00000007A43000049C0000048C2AAF1D24D3C
:106AD00062104840FFFF5F41000048400000404214
:106AE0006210284000001A400000D04028AFA1BC2E
:106AF00086F25A4000405A400000D242FEFFFF4A50
:106B000000409F400000FA4400409FC00000FAC4CB
:106B10007FB5044613208DF80C00FF22032101A845
:106B2000FEF7B1FB6423012203A9124809F0A4FA7D
:106B30000546E5B96420032302AA01A900900D4887
:106B400009F07AFB054695B99DF8080000049DF808
:106B5000091000EB01209DF80A100844206020680D
:106B6000B0F5000F03DB206840F07F40206028462E
:106B700004B070BD6006002010B50120FFF70EFEC6
:106B8000022005F0F7F800F001F810BD10B5012063
:106B9000FFF704FEFFF7F8FC10BD10B500F009F890
:106BA0000020FFF7FBFD00F00FF9022005F0E2F8EE
:106BB00010BD10B5FFF708FD0120FFF7E1FD122021
:106BC00001F07CFC10BD00002DE9F04105460C46AB
:106BD0001646002724E000F0FDF800B121E04FF058
:106BE000000809E0022001F069FCFFF7C1FC08B9C8
:106BF000012704E008F10108B8F1370FF2DB00BF0C
:106C00006FB12846FFF784FF4EB144B10749B1F98F
:106C10000020074909782868FFF7CEFD206000E0D2
:106C2000D9E700BF3846BDE8F08100002E00002003
:106C30002C00002070B5044600250F48807A00F033
:106C40000F000D49887274B904220C48FEF734FB1A
:106C500080B9042208490A3108480A30FEF72CFBA3
:106C600040B9012506E00E2203490448FEF724FB43
:106C700000B90125284670BD1F0E0020100E00200F
:106C800010B504462046FFF7CFFC10BD10B58AB002
:106C900020208DF824000E208DF825006423022288
:106CA00009A90E4809F0E8F904469CB9FF220F2112
:106CB00001A8FEF7E8FA64200F2305AA01A90090B5
:106CC000064809F0B9FA044624B90F2205A9044878
:106CD000FEF7C7FA20460AB010BD0000600600208B
:106CE0001F0E002030B585B0054600242E48C07820
:106CF00000F0F0002D49C97801F0F001884210DA67
:106D000043208DF8000000208DF801002648C0784F
:106D10008DF80200642303226946254809F0ACF986
:106D20000446DCBB9DB140208DF800000E208DF89C
:106D300001000F221C490DF10200FEF792FA6423B4
:106D4000112269461A4809F097F9044626E04020C6
:106D50008DF8000003208DF8010013480068CDF87D
:106D60000200642306226946114809F085F90446A9
:106D7000A4B94A208DF8000004208DF801000A48CB
:106D8000D0F80A10CDF80210807B8DF8060064233D
:106D900007226946064809F06FF90446022001F00F
:106DA0008DFB204605B030BD100E00201F0E0020C8
:106DB0006006002001B5642301226946014809F0FC
:106DC0005BF908BD6006002010B50720FFF7F2FF51
:106DD00010BD000008B505208DF800008DF80100F9
:106DE000642302226946024809F046F908BD000002
:106DF0006006002030B589B005460C4610220021FF
:106E000005A81BF083FC04F1240205A905A817F0CE
:106E1000C5FB9DF8140000F08000E8B100BF002021
:106E20000AE005A9095C4A0005AB411C595C42EA2D
:106E3000E11105AA1154401C0F28F2DB9DF8231024
:106E40004906090E8DF8231000BF9DF8230080F03D
:106E500087008DF8230016E000BF00200AE005A996
:106E6000095C4A0005AB411C595C42EAE11105AAE4
:106E70001154401C0F28F2DB9DF823104906090E1F
:106E80008DF8231000BF206810280FD100BF00200C
:106E900009E004F11401095C05AA125C514004F1F7
:106EA00014021154401C1028F3DB59E09DF8140023
:106EB00000F08000E8B100BF00200AE005A9095CED
:106EC0004A0005AB411C595C42EAE11105AA115484
:106ED000401C0F28F2DB9DF823104906090E8DF89F
:106EE000231000BF9DF8230080F087008DF8230059
:106EF00016E000BF00200AE005A9095C4A0005ABC6
:106F0000411C595C42EAE11105AA1154401C0F28AA
:106F1000F2DB9DF823104906090E8DF8231000BFFF
:106F2000802104F114002268815404E0002104F15E
:106F30001400226881542068401C20601028F5D37A
:106F400000BF002009E004F11401095C05AA125CED
:106F5000514004F114021154401C1028F3DB00BF0F
:106F600000BF002008E0211D095C04F11402125C3E
:106F70005140221D1154401C1028F4DB00BF102288
:106F8000211D01A81BF0A8FB04F12402294601A839
:106F900017F004FB1022002105A81BF0B7FB09B075
:106FA00030BD10B5044610220021201D1BF0AEFBA1
:106FB00000202060F022002104F124001BF0A6FB39
:106FC00010BD70B505460C4605F12402102120467F
:106FD00017F012FB70BD2DE9FF4104460F46154620
:106FE0002068002833D02068C0F11000A84203D2E6
:106FF0002068C0F1100000E028460646B2B204F155
:1070000014012368581839461BF066FB2068304489
:1070100020602068102801D3B54201D1BDE8FF816E
:1070200000BF002008E0211D095C04F11402125C7D
:107030005140221D1154401C1028F4DB00BF04F104
:107040002402211D201D17F0A9FA3744AD1B1EE0B4
:1070500000BF002006E0211D095C3A5C5140221D62
:107060001154401C1028F6DB00BF1022211D684679
:107070001BF032FB04F124026946684617F08EFAD1
:1070800010226946201D1BF027FB1037103D102DE4
:10709000DED8AAB2394604F114001BF01DFB2560AE
:1070A00000BFBBE7F0B503460C4601255048007809
:1070B000C0F10F00C1B2981E07287DD2DFE800F0B2
:1070C000041228364C6981004A480078884208DA60
:1070D000484806780078401C464F3870464883552B
:1070E00000257EE0481E434E3678B0420FDD414811
:1070F00006780078401C3F4F38703F48835538462B
:1071000006780078401C38703B488455002568E0BC
:1071100038480078884208DA364806780078401CFB
:10712000344F38703448835500255AE0481E314E9C
:107130003678B0420FDD2F4806780078401C2D4F7E
:1071400038702D488355384606780078401C3870D2
:1071500029488455002544E0881E264E3678B042E2
:1071600016DD244806780078401C224F38702248EB
:107170008355384606780078401C38701E48845580
:10718000384606780078401C38701B488255002528
:1071900027E0481E174E3678B04211DD15480678B4
:1071A0000078401C134F38701348835538460678D2
:1071B0000078401C387000E011E00F48845500252D
:1071C0000FE00C480078884208DA0A480678007810
:1071D000401C084F387008488355002501E0022004
:1071E000F0BD00BF15B90120044E30702846F7E706
:1071F0009400002093000020D5120020920000206F
:1072000070B503460C460020194D95F90110012B6D
:107210002CD1184D2D682D788D4203D10025164EA6
:10722000356023E0144D2D68402D01D3012000E08E
:107230000020114D2D68602D18D30F4D2D7805F0CD
:107240001F059DB90B4D2D682D788D4201DA4D1E1D
:1072500069B2084D2D682D788D4207D1012C05D1DA
:10726000034DAD8C45F00705014EB584117070BD1E
:10727000F4120020540100208C0000202DE9F04180
:1072800086B000243C4890F84860451C5AE02046EF
:10729000611CCCB23849491C0F5C012F1BD1301B3B
:1072A000022818DB601C285C295D40EA0128A01C2C
:1072B000C4B23248406F40450CD0B8F5B46F04DB1F
:1072C0004FF4B4602D49486702E02C48C0F8748040
:1072D00010F046F836E0022F33D1301B062830DBA1
:1072E000142101A8FDF7D6FF002000902046611C64
:1072F000CCB2285C8DF803002046611CCCB2285C1F
:107300008DF801002046611CCCB2285C8DF802008B
:107310002046611CCCB2285C8DF804002046611C1C
:10732000CCB2285C8DF805002046611CCCB2285CEC
:107330008DF8060001A9684600F0D4FB00B903E00F
:1073400000E001E0B442A2DB00BF1C220B49743113
:107350000B48FDF7B1FF58B11C22084974310848A9
:10736000FDF77FFF03F08AF903F032F90FF0A4FE76
:10737000012006B0BDE8F081AC390020B43C00200B
:10738000004000202DE9F04F85B005460020049014
:10739000FF26FF27B046B146B246B3464FF4B07160
:1073A000F848FDF777FF012001F0BAF804F03CFF40
:1073B0000490C82001F082F80DF00EF9F24908801F
:1073C000F2480CF0E3FC80F00100F1490870F1484C
:1073D000007858B9F04890F88900EF4991F88A1080
:1073E0000843ED4991F88B1040EA010616B130468A
:1073F0000CF0CEFEE748007850B9E74890F884706A
:1074000090F8858090F8869090F887A090F888B0E2
:1074100047EA080040EA090040EA0A0040EA0B0097
:1074200078B13B468DE8000FD848B0F90010DA4833
:107430007C30049A0CF0D4FC80F00100D74908702D
:1074400002E00020D54908701DB10BF09DFFD44922
:107450000870D048007830B101200CF0E9F9002024
:10746000CC49087088E1C948B0F90000642190FB5C
:10747000F1F201FB1204C548B0F9000090FBF1F0F5
:107480000390002C01DB204600E060420090BE48E3
:107490000288C4A1D248039B16F0C2F8D048FDF779
:1074A00004FF84B201222146CD4800F09DFCCDA10D
:1074B000CB4816F0B5F800240AE0C948FDF7F5FE00
:1074C000C7490844621CCDA1039016F0A9F8641CBA
:1074D000082CF2DBC248FDF7E8FEC1494418CAA1F6
:1074E000204616F09DF8BE48FDF7DFFE84B200226C
:1074F0002146BB4800F078FCC4A1B94816F090F8CA
:10750000002412E09F4951F82400FEF7E5FACDE986
:107510000201B348FDF7C9FEB14908440190C1A179
:10752000DDE9022316F07CF8641C082CEADBAC4889
:10753000FDF7BBFEAA494418B3A1204616F070F827
:10754000A748FDF7B2FE84B200222146A44800F00D
:107550004BFCB6A1A24816F063F8002413E0894959
:10756000203151F82400FEF7B7FACDE902019C481A
:10757000FDF79BFE9A4908440190B2A1DDE9022380
:1075800016F04EF8641C082CE9DB9548FDF78DFEDB
:10759000934944189CA1204616F042F89048FDF704
:1075A00084FE84B2002221468D4800F01DFCA7A174
:1075B0008B4816F035F8002413E07249403151F839
:1075C0002400FEF789FACDE902018548FDF76DFE3A
:1075D00083490844019093A1DDE9022316F020F8C5
:1075E000641C082CE9DB7E48FDF75FFE7C494418EB
:1075F00085A1204616F014F87948FDF756FE84B2AE
:1076000000222146764800F0EFFB96A1744816F060
:1076100007F8002413E05B49603151F82400FEF7BD
:107620005BFACDE902016E48FDF73FFE6C49084464
:10763000019092A1DDE9022315F0F2FF641C082CF1
:10764000E9DB6748FDF731FE654944186EA1204625
:1076500015F0E6FF6248FDF728FE84B200222146BD
:107660005F4800F0C1FB87A15D4815F0D9FF0024F9
:1076700013E04449803151F82400FEF72DFACDE99A
:1076800002015748FDF711FE5549084401907BA1BE
:10769000DDE9022315F0C4FF641C082CE9DB504827
:1076A000FDF703FE4E49441857A1204615F0B8FFD8
:1076B0004B48FDF7FAFD84B200222146484800F00D
:1076C00093FB76A1464815F0ABFF002413E02D494B
:1076D000A03151F82400FEF7FFF9CDE9020140483E
:1076E000FDF7E3FD3E490844019064A1DDE9022372
:1076F00015F096FF641C082CE9DB3948FDF7D5FD31
:107700003749441840A1204615F08AFF3448FDF758
:10771000CCFD84B200222146314800F065FB65A112
:107720002F4815F07DFF002412E0684951F824002D
:10773000FEF7D2F9CDE902012948FDF7B6FD284947
:10774000084401904DA1DDE9022315F069FF641C96
:10775000082CEADB2248FDF7A8FD214944182AA19C
:10776000204615F05DFF1E48FDF79FFD84B2002204
:1077700021461B4800F038FB002000F0D1FE05B088
:10778000BDE8F08F98160020FE03002000040020C2
:10779000F803002016040020B43C0020F903002068
:1077A000FB0300204D65617373757265206461741D
:1077B000613A2062617474657279205B6D565D3D3B
:1077C0002564202074656D70657261747572652022
:1077D0005B646567435D3D25642E2564200D0A00CA
:1077E000E438002053656E736F7220646174612009
:1077F00020202020202020203A00000020202020CF
:1078000020204368256400000D0A000054656D7057
:1078100065726174757265205B646567435D2020E5
:107820003A0000002025382E32660000566F6C7436
:10783000616765205B565D202020202020202020CD
:107840003A0000002025382E34660000437572721D
:10785000656E74205B6D415D20202020202020205B
:107860003A000000436F72722E20506F74656E7480
:1078700069616C205B6D565D3A0000002025382E52
:1078800031660000436F72722E2043757272656E0E
:1078900074205B75415D20203A000000496D7065E1
:1078A00064616E6365205B4F686D5D202020202041
:1078B0003A0000005068617365207368696674203F
:1078C0005B6465675D2020203A000000D817002027
:1078D00070B505460E46314628460AF062F9044660
:1078E0000848006810B90848006850B105480068A9
:1078F000241A05480068044432462946204600F010
:1079000005F870BDE0030020E40300202DE9F041FC
:10791000044640F26D1740F2B55C3A4EB4FBF6F007
:10792000B4FBF6F806FB184538B100F26D16B60048
:10793000E046B6FBF8F6731E00E00023642B42D24B
:10794000CB7000264E70401CCE7840F2B55806FB36
:1079500008F6F61CA0EB9600CE784FEAE67806EB28
:1079600098784FEAA808A6EB8808B8F1000F11D163
:1079700008E091F8018008F101064E70224E16F8D9
:107980000860801B4E78DFF8808018F80660864219
:10799000EFD310E008E091F8018008F101064E7085
:1079A0001A4E16F80860801B4E78DFF8608018F8D1
:1079B00006608642EFD34E780C2E02DA4E78761CA3
:1079C0004E70887005E06326CE700C264E701F2620
:1079D0008E704FF46166B5FBF6F616704FF4616673
:1079E000B5FBF6F806FB18564FF03C08B6FBF8F668
:1079F00056703C26B5FBF6F806FB18569670BDE8A7
:107A0000F08100008051010004360208F8350208B8
:107A100010B586B0002401A96846FFF759FF01A9F7
:107A200068460AF0EBF80446204606B010BD032075
:107A30007047000010B504466CB10021012000F031
:107A400023F80021084600F01FF8002007490860CD
:107A50000749086009E0012000F00CF804490860BB
:107A6000002000F007F80149086010BDE003002085
:107A7000E403002010B504462146024807F095F8BB
:107A800010BD0000E805002070B504460D462A46EA
:107A90002146024807F092F870BD0000E80500207A
:107AA00010B504460AF0C6F8211A0D48B0F90000D6
:107AB000C01C814203D901200CF0F0F802E0012043
:107AC0000CF0DAF80CF0FCF830B901200CF0E6F814
:107AD0000348B0F90000241A204600F069F810BDF0
:107AE000EA0300202DE9F04186B004460D464FF030
:107AF0000108E078632801DD4FF000086078012874
:107B000002DB60780C2801DD4FF00008A078012826
:107B100002DBA0781F2801DD4FF000082878172825
:107B200001DD4FF0000868783B2801DD4FF00008C8
:107B3000A8783B2801DD4FF00008B8F1000F2FD0E6
:107B4000694605A80AF02DF806462946204609F0A0
:107B5000C3FF0746B74210D9002013490860B81B7D
:107B600012490860084601680120FFF78DFF0E48A2
:107B700001680020FFF788FF11E0B7420FD2002014
:107B80000A490860F01B084908600848016801209C
:107B9000FFF77AFF044801680020FFF775FF00BF78
:107BA000404606B0BDE8F081E0030020E403002079
:107BB0002DE9F04387B004464FF00008C146002687
:107BC000002700251422574902A8FDF74AFB554813
:107BD000001F8069019000F0B1F840F2FF31039876
:107BE000081A1FFA80F8C4F3090040441FFA80F80D
:107BF000A40A9DF8065003E04B48241A681C85B27D
:107C000049488442F8D29DF8087003E0A4F5616405
:107C1000781C87B2B4F5616FF8D29DF8096002E074
:107C20003C3C701C86B23C2CFAD29DF80A002044E1
:107C30001FFA80F907E0A8F580601FFA80F809F1C3
:107C400001001FFA80F9B8F5806FF4DA05E0A9F1B8
:107C50003C001FFA80F9701C86B2B9F13C0FF6DACD
:107C600004E0A6F13C0086B2781C87B23C2EF8DA1C
:107C700004E0A7F1180087B2681C85B2182FF8DA63
:107C80009DF80700C11700EB91718910A0EB8101ED
:107C900081B99DF80500401E2449085CA84219DA04
:107CA0009DF80500401E085C95FBF0F100FB1150AB
:107CB00085B20FE09DF80500401E1D49085CA842F2
:107CC00008DA9DF80500401E085C95FBF0F100FB0A
:107CD000115085B240F2FF30A0EB08001549486012
:107CE0004FF02060886181F802904E700F7081F82B
:107CF00020509DF80B00C8700020C86148614FF407
:107D0000807048620020C860086100220A4807F0BD
:107D100059F900BF02A901A809F033FF00BF07B05D
:107D2000BDE8F083D0050020805101000436020830
:107D3000F8350208BC380020E805002010B50848D6
:107D40000068C06800F0800060F4C07004490968F1
:107D5000C8604FF48071024806F09CFF10BD00001F
:107D6000E805002070B586B01B48007890BB29203C
:107D700004F056FD01282DD11749087001A9684665
:107D800009F0FFFE064600234FF4807213491448A1
:107D900006F0FAFF11480078104991F820101822D7
:107DA00002FB01000D4949783C2202FB00100B49FF
:107DB000897802FB00140948406840F2FF31081A34
:107DC00000EB8424301B05B206480088284400B22A
:107DD0000449088006B070BDE8030020BC380020CC
:107DE000E8050020EA03002070B505460E4614465B
:107DF0000C48007810B90C48007890B11CB100F024
:107E00005FFC0A4908700948007828B131462846C5
:107E100000F010FD0549087001223146284600F0A7
:107E200057F870BD15040020160400200A04002035
:107E3000F8B505460C460020009039E00026ACB1AC
:107E4000601E285C0A2811D128783A2807D1601EC4
:107E500081B26B461C4A681C02F028F8064600F006
:107E600065FE002400201949088009E09DF8000003
:107E700030B16B46144A0021084602F017F8064656
:107E800076B100223146104800F022F840B99DF842
:107E9000000028B16B4600220121104602F006F8CE
:107EA0009DF8000018B100F0FBFD044600E008E07A
:107EB0001CB106480088A042C0D19DF800000028EF
:107EC000BCD100BFF8BD00004C3A002008040020DF
:107ED0002DE9F04705460E4617464FF00008C1460B
:107EE00010480078D0B110480078B8B104F09CF97F
:107EF000814600BF3A463146284600F01DFE044642
:107F000014B94FF0010808E0012C06D104F08CF9F7
:107F1000A0EB0900B0F5FA7FECD300BF4046BDE806
:107F2000F087000004040020F003002010B586B0A4
:107F30000446142101A8FDF7ADF90F4804600020A4
:107F40000390022004900D48029001AA01210C48E0
:107F500009F048FA0B4B03220121094809F0D8FA2D
:107F600009490A4813F0EDF940F6B831074813F013
:107F700086FA06B010BD0000780300200000111042
:107F800000000240991C0208A95E0108701600203A
:107F900010B500F041F9A8B100224FF480410A4821
:107FA00004F03CF900224FF40051074804F036F980
:107FB00001229103044804F031F9012251030248DF
:107FC00004F02CF910BD0000000C024010B500F0C8
:107FD00023F9B0B1012208210A4804F01FF9012257
:107FE0000421084804F01AF900220821054804F089
:107FF00015F900220421034804F010F9012002F0D1
:10800000B7FA10BD0010024000B585B014216846D3
:10801000FDF740F9FFF7BCFF03200190002002901C
:108020006A464FF400510D4809F0DCF96A464FF4F6
:1080300080410A4809F0D6F96A464FF400410748E2
:1080400009F0D0F96A468021054809F0CBF96A4663
:108050004021034809F0C6F905B000BD000C0240FC
:108060000008024000B585B014216846FDF712F9FA
:10807000FFF7ACFF03200190002002906A46042124
:10808000094809F0AFF96A460821074809F0AAF93A
:108090006A461021044809F0A5F96A4602210248FF
:1080A00009F0A0F905B000BD0010024000B585B090
:1080B00014216846FDF7EEF801200190022003909C
:1080C0000020029000220121044804F0A7F86A462B
:1080D0000121024809F086F905B000BD00100240F8
:1080E00000B585B014216846FDF7D4F80120019051
:1080F000022003900020029000224FF400511F48FC
:1081000004F08CF800224FF480411C4804F086F8FB
:1081100000224FF40041194804F080F80022802129
:10812000174804F07BF801224021154804F076F846
:108130006A464FF40051114809F054F96A464FF469
:1081400080410E4809F04EF96A464FF400410B4851
:1081500009F048F96A468021094809F043F96A465E
:108160004021074809F03EF9FFF712FF00224021A5
:10817000034804F053F805B000BD0000000C0240B5
:108180000008024000B585B014216846FDF782F86A
:10819000012001900220039000200290012204217E
:1081A0001C4804F03BF8012208211A4804F036F874
:1081B00001221021174804F031F80122022115484C
:1081C00004F02CF801221146124804F027F86A4600
:1081D0000421104809F006F96A4608210D4809F003
:1081E00001F96A4610210B4809F0FCF86A460221A1
:1081F000084809F0F7F86A460121064809F0F2F844
:10820000FFF7E4FE01221146024804F007F805B02A
:1082100000BD00000010024010B50221034803F029
:10822000F5FF08B9012010BD0020FCE7000802405E
:1082300010B504462146024807F03AF910BD000087
:108240008007002010B5024807F021F910BD00009A
:108250008007002010B5002400F010F8012801D09C
:10826000012010BD0349044807F095FA0446204652
:10827000F7E70000E00700208007002008B5012094
:1082800000909DF8000008BD2DE9FC470446154606
:108290001E46DDE90A784FF000092A46334621469A
:1082A0000548CDE9007807F027FB08B14FF0010938
:1082B0004846BDE8FC870000800700202DE9FC4708
:1082C000044615461E46DDE90A784FF000092A46A5
:1082D000334621460548CDE9007807F020FC08B177
:1082E0004FF001094846BDE8FC87000080070020E8
:1082F00010B5044622464FF40041074803F08EFFB4
:1083000001228021054803F089FF002280210348D3
:1083100003F084FF10BD0000000C02400008024082
:1083200010B5044684F001021021084803F076FFDE
:10833000012002F01DF900220221044803F06EFF23
:1083400001220221014803F069FF10BD0010024024
:1083500070B50646FFF760FF00284BD000224FF4AF
:108360000051254803F05AFF01225103224803F02F
:1083700055FF00224FF480411F4803F04FFF0024B7
:1083800080250AE0B178294009B1012100E00021EF
:108390000846FFF7ADFF641C6D10082CF2DB0024CB
:1083A00080250AE07178294009B1012100E000210F
:1083B0000846FFF79DFF641C6D10082CF2DBF07877
:1083C000FFF796FF0020FFF793FF002480250AE0C7
:1083D0003178294009B1012100E000210846FFF76A
:1083E00087FF641C6D10082CF2DB01229103024808
:1083F00003F014FF70BD0000000C024070B506468B
:10840000FFF70AFF002856D0012208212A4803F06E
:1084100005FF01220421284803F000FF0022042167
:10842000254803F0FBFE7079FFF77AFF002404254E
:108430000AE03179294009B1012100E00021084614
:10844000FFF76EFF641C6D10032CF2DB0024042583
:108450000AE0F178294009B1012100E00021084635
:10846000FFF75EFF641C6D10032CF2DB00248025F7
:108470000AE07178294009B1012100E00021084695
:10848000FFF74EFF641C6D10082CF2DB00248025E2
:108490000AE03178294009B1012100E000210846B5
:1084A000FFF73EFF641C6D10082CF2DB0022082150
:1084B000014803F0B3FE70BD0010024010B5044641
:1084C0001348007830B91349134812F03AFF0120DD
:1084D0000F4908701148007818B9204603F04AFC8B
:1084E00015E000200D49087021460B4812F0C7FF27
:1084F000094812F0DBFF06E072B60848007808B9B8
:108500000BF0E4FB62B6054800780028F4D010BDFB
:108510007D030020255001085C1600207C0300200C
:1085200010B50446DCB1FFF7C1FD01220821174850
:1085300003F074FE022003F01DFC00220221134808
:1085400003F06CFE40200BF097FB032003F012FCBD
:10855000FFF7C6FDFFF716FE09F012FD15E0FFF765
:1085600053FDFFF77FFD01220221084803F056FE6C
:1085700000220821054803F051FE09F0F9FC4020D3
:108580000BF08CFB032003F0F5FB10BD000802404C
:1085900038B5002000903E48007880B100203C496A
:1085A000087000F085F93B4812F0B8FF3A493948A5
:1085B00012F065FF374812F079FF0CF001FD5DE025
:1085C00036480478364800783A2803D09DF80000F1
:1085D000002838D02F4812F0A1FF32492D4812F060
:1085E0004EFF00202A4908702A4812F05FFF2CB184
:1085F0002B4800783A2801D1012500E000251DB163
:1086000029480088401E00E0002081B26B46274ABE
:108610002348401C01F04AFC254908800846008890
:1086200088B108460188214800F004F958B99DF83E
:10863000000040B16B4600220121104601F036FCDB
:108640000120134908708CB11A4812F067FF1948CD
:1086500012F02CFF0020184908701349088080216F
:108660000F48FCF717FE00200C4908700B480078F3
:1086700020B901221049114808F0A2FA07480078F1
:1086800000289DD19DF80000002899D138BD000038
:1086900021040020E83E002080EE36002004002067
:1086A000543E0020C02709001C040020D43D0020B7
:1086B0001E040020D43E00201A040020F8060020EA
:1086C00010B54FF40061044803F0A0FD08B9012083
:1086D00010BD0020FCE70000000C024004480078B8
:1086E00010B90448007808B1012070470020FCE769
:1086F000200400202104002010B5002000F0D8F84C
:1087000009F05AFC00F06AF801220849084808F00C
:1087100057FA0849084812F014FE0849064812F0B2
:10872000AEFE054812F0C2FE10BD00001A04002083
:10873000F80600200D500108E83E002080EE3600CB
:1087400000B585B014216846FCF7A4FD0320019014
:10875000002002906A4680210B4808F043FE6A46DA
:108760004FF48071084808F03DFE6A464FF40071EE
:10877000054808F037FE6A464FF48061024808F069
:1087800031FE05B000BD00000010024000B585B00C
:1087900014216846FCF77EFD112001900220039011
:1087A000002002906A464FF480710B4808F01AFED0
:1087B00000224FF48071084803F030FD7820FFF765
:1087C0007DFE032001906A464FF48071024808F054
:1087D00009FE05B000BD00000010024000B585B0E4
:1087E00014216846FCF756FD0020029002200390F9
:1087F0000B4801906A4680210A4808F0F3FD0A4BB5
:1088000003228021074808F083FE0849084812F037
:1088100098FD40F6B831064812F031FE05B000BDB3
:1088200000002110000C0240F5890008C14F01082A
:10883000D43E00202DE9F04105460C46002704B146
:1088400015B90020BDE8F08100BF14480078002869
:10885000FBD113480078E0B9802C00DD802422464B
:1088600029461048FCF7FDFC22460E490E4808F048
:10887000FDF9064686B90D4812F050FE04200BF0B3
:10888000FBF9012005490870084812F00FFE012786
:1088900002E00020024908703846D3E72204002095
:1088A00023040020FC3E0020F8060020D43E0020D7
:1088B00010B586B00446142101A8FCF7EBFC01209A
:1088C00002900220049000200390FFF739FF022C51
:1088D00001D0032C0AD101AA4FF40071144808F00A
:1088E00081FD01225102124803F098FC022C01D0B4
:1088F000012C09D101AA80210D4808F073FD012245
:1089000080210B4803F08AFCFFF740FFC820FFF7E7
:10891000D5FD0320029001AA4FF40071044808F02D
:1089200061FD01AA8021024808F05CFD06B010BD7F
:108930000010024010B501220249034808F040F936
:1089400010BD00001A040020F806002010B52148D0
:10895000008870B9204800783A2824D11E48017850
:108960001C4802880088401C1A4B18801B48815400
:1089700019E0184800887F2812DA16480088012874
:1089800003D1154800783A280DD0134801781148D2
:1089900002880088401C0F4B18801048815402E068
:1089A00000200C4908800C4800780A280BD109489F
:1089B000008840B100200949064A128888540120E5
:1089C0000749087004E001220349064808F0F8F856
:1089D00010BD00001C0400201A040020543E00209A
:1089E00020040020F806002000200149087070478C
:1089F0002204002010B5094812F090FD074812F03B
:108A000055FD04200BF038F98021054808F0BAFC28
:108A100001220449044808F0D3F810BDD43E0020D8
:108A2000000C02401A040020F806002000BFFEE7F8
:108A300030B503461446042B15D007DC7BB1012B5F
:108A40000ED0022B0DD0032B1ED10BE0202B0BD010
:108A5000212B0AD0222B09D0232B15D113E014E0AF
:108A600013E012E011E010E00FE00EE00A4690780B
:108A700000F0010018B10120054D287002E000202F
:108A8000034D287001E000E000BF00BF002030BDB2
:108A9000C20400200020704700487047884F002023
:108AA0000148008870470000C004002010B5002273
:108AB0000449054813F028F90449034813F01DF947
:108AC000002010BD08500020D4440020884D002014
:108AD00070B505460E46308884B21148008820449F
:108AE000802802DB00200E490880A4B1802C00DB26
:108AF0007F240C490A4A1288881822462946FCF726
:108B0000B0FB07480088204405490880002105483B
:108B1000034A12888154044813F0CBF8002070BD3A
:108B2000C0040020884F0020D444002000200149C8
:108B300008807047C00400202DE9F04105460C462E
:108B400016464FF000081148007818B916B10220F7
:108B5000BDE8F0810E48D0F81872D7F8140208B1B9
:108B60000120F5E7802C00DD8024224629460948B3
:108B7000FCF777FB22460749054813F0C5F804487F
:108B800013F014F980464046E2E70000C2040020DA
:108B9000D4440020085000202DE9F14FA2B000205D
:108BA0001E901F902090182116A8FCF773FB002040
:108BB000159012901390109011900E900F900D90B0
:108BC000DFF86083D84800680321B0FBF1F201FBB5
:108BD0001200D5490968081AD34908600846016897
:108BE0002298B1FBF0F00321B0FBF1F087B23846D8
:108BF000F91707EB9171891001EB410189B21491CA
:108C00000024A1461DE0B8F8000080B2B0F5805FF6
:108C100011DA1EA850F82400B8F9001008441EA963
:108C200041F82400601CC0B20446032803DB002482
:108C30001598401C159009F101001FFA80F908F100
:108C40000208B94800688145DDD300240BE01EA866
:108C500050F8240001011598B1FBF0F01CA921F88F
:108C60001400601CC4B2032CF1DBDFF8B8820024CE
:108C7000A1460020219082460026A3E0B8F800001B
:108C800080B2B0F5805F7CDA1CA830F81410B8F818
:108C90000000C1EB001005B2042E68DA0C2097FB2F
:108CA000F0F12198814262DA04BB0DA8005D60B941
:108CB000002D0ADA01200DA9085512A820F816A0E7
:108CC0000BA9149821F8140051E00DA8005D0028AC
:108CD0004DD00BA830F81400401E80B20BA921F82B
:108CE000140020BB00200DA9085540E0012C1FD125
:108CF0000DA8005D60B9002D0ADD01200DA9085501
:108D000010A820F816A00BA9149821F814002EE042
:108D10000DA8005D58B10BA830F81400401E80B2B9
:108D20000BA921F8140010B900200DA908551EE068
:108D30000DA8005D60B9002D0ADD01200DA90855C0
:108D40000EA820F816A00BA9149821F814000EE024
:108D50000DA8005D58B10BA830F81400401E80B279
:108D60000BA921F8140010B900200DA9085505FB26
:108D700005FB16A800EBC400D0E9002012EB0B02A3
:108D800000E019E040F1000016A901EBC401C1E9BF
:108D90000020601CC0B2044603280DDB002421988B
:108DA000401C80B221900AF1010080B28246B84294
:108DB00002DDA246701CC6B209F101001FFA80F95B
:108DC00008F10208584800688145FFF457AF0024B5
:108DD0002CE01598FCF702FECDE9020116A800EB85
:108DE000C400D0E900211046FCF705FECDE90001E2
:108DF000DDE90223FCF764FD00224C4BCDE90401C0
:108E0000FCF75EFDCDE90601DDE9060119F0E0FFA2
:108E1000CDE90201FCF7A4FE4FF081410590FCF77B
:108E2000F8FB434941F82400601CC4B2032CD0DB9A
:108E30004FF0000900200A90099017E010A830F8C0
:108E4000160012A931F81610411A0A9808440A901F
:108E50000EA830F8160012A931F81610411A099818
:108E60000844099009F101001FFA80F9B145E5DBDA
:108E70004FF461610A98484390FBF7F090FBF6F0DD
:108E800005B2B5F5617F03DD88102A49088009E045
:108E900015F5617F04DA4FF67C402649088001E031
:108EA000244805804FF461610998484390FBF7F02E
:108EB00090FBF6F005B22048007907281BD2DFE8C6
:108EC00000F00405060A0E12160000BF00BFA5F14F
:108ED000780005B20FE0A5F1640005B20BE0A5F142
:108EE0003C0005B207E0A5F1280005B203E0A5F1BA
:108EF0000A0005B200BF00BFB5F5617F04DD4FF485
:108F000061700E49088009E015F5617F04DA4FF6BB
:108F10007C400A49088001E00848058023B0BDE88C
:108F2000F08F0000F8170020D4030020000030402C
:108F3000B0380020D8030020CC030020DA03002042
:108F40002DE9F0410446374800EBC400407900EBBE
:108F50004000354931F8205000260027334800787A
:108F600060B90EF013FA0646B54201DD284600E06E
:108F7000304605462E48006800B101272D4800788C
:108F8000012810D12A480068684329490968401A15
:108F9000244901EBC401497901EB4101224A02EB6A
:108FA000810188600AE000201E4901EBC401497973
:108FB00001EB41011C4A02EB81018860012F21D1A4
:108FC000184A02EBC402527902EB4202164B03EB41
:108FD00082029268184BD118124A02EBC4025279ED
:108FE00002EB4202104B03EB8202906819F0D4FDB1
:108FF0000C4901EBC401497901EB41010A4A02EB3A
:10900000810188600A4800680C490988484308497A
:109010000968401A0A490968084409490860BDE816
:10902000F0810000D4000020980000208A00002079
:109030008001002064010020C02709005A0100209F
:109040006001002010B500240C48406F98B10C4A14
:1090500051685268504219F09FFD0849496FC1EBB1
:109060000111890001EB4102C2EBC11100EBC1000B
:1090700003498968441A204610BD0000B43C002012
:10908000A803002010B5044614B10EA018F001F991
:1090900000F0DAFE74220D490D48FCF7E2F801F009
:1090A0001DFB1C220949743109487C30FCF7D9F8B2
:1090B00001F0E4FA14B172B60BF01AFF0DF0FCFFE8
:1090C00010BD00004366672E54585400B43C002085
:1090D000843F00202DE9F04180460C4615461E468F
:1090E0004046FCF7FFF90746A74203DA274601206E
:1090F000307004E0AF4202DD2F4601203070384668
:10910000BDE8F0812DE9F04788B006468846144650
:109110004FF000090E223146D848FCF7DAF870B952
:10912000A078C0F3400008B9302000E031200246AA
:10913000D3A1404614F074FA1FFA80F999E1042291
:109140003146D048FCF7C5F870B9A07800F00100AE
:1091500008B9302000E031200246C9A1404614F091
:109160005FFA1FFA80F984E106223146C648FCF70F
:10917000B0F870B900230822E11CC44800F02EFBAF
:1091800082465246C2A1404614F04AFA1FFA80F9BC
:109190006FE106223146BF48FCF79BF878B90023FF
:1091A000082204F10B01B94800F018FB8246524630
:1091B000B7A1404614F034FA1FFA80F959E10622AB
:1091C0003146B548FCF785F878B90023102204F140
:1091D0001301AE4800F002FB82465246ACA1404665
:1091E00014F01EFA1FFA80F943E106223146AB481B
:1091F000FCF76FF80028A1D007223146A848FCF7F9
:1092000068F838B9A7A14046A26A14F009FA1FFA13
:1092100080F92EE10A223146A448FCF75AF878B9C1
:109220000023102204F12C01984800F0D7FA82465E
:10923000524697A1404614F0F3F91FFA80F918E15D
:10924000092231469A48FCF744F878B900231022E5
:1092500004F13C018D4800F0C1FA824652468CA1CF
:10926000404614F0DDF91FFA80F902E10D22314683
:109270009048FCF72EF838B98FA14046E26C14F004
:10928000CFF91FFA80F9F4E0132231468C48FCF73D
:1092900020F878B90023102204F150017B4800F037
:1092A0009DFA824652467AA1404614F0B9F91FFA57
:1092B00080F9DEE0122231468248FCF70AF878B9DC
:1092C0000023102204F16001704800F087FA824602
:1092D00052466FA1404614F0A3F91FFA80F9C8E086
:1092E0000B2231467848FBF7F4FF40B994F8702020
:1092F00076A1404614F094F91FFA80F9B9E00B22E8
:1093000031467348FBF7E5FF40B994F871206FA12F
:10931000404614F085F91FFA80F9AAE00B22314685
:109320006C48FBF7D6FF40B994F8722067A140461D
:1093300014F076F91FFA80F99BE00E223146664858
:10934000FBF7C7FF40B994F8732060A1404614F0C2
:1093500067F91FFA80F98CE00C2231465F48FBF771
:10936000B8FF38B95EA14046626F14F059F91FFA90
:1093700080F97EE0152231465B48FBF7AAFF40B931
:109380008C20025D59A1404614F04AF91FFA80F979
:109390006FE0032231465748FBF79BFF002868D156
:1093A00007AB08220121F01CFFF794FE401EC7B254
:1093B0000120B840C5B25048C05D642190FBF1F275
:1093C00001FB120A4C487C3890F88B00284008B109
:1093D000012100E0002148487C3890F88A002840AC
:1093E00008B1012200E0002243487C3890F889004F
:1093F000284008B1012300E000233F487C3890F862
:109400008800284008B1012000E00020CDE90432A6
:109410000691039038487C3890F88700284008B1BE
:10942000012100E0002134487C3890F88600284073
:1094300008B1012200E000222F487C3890F8850016
:10944000284008B1012000E00020CDE90121009072
:1094500029487C3890F88400284008B1012000E0B9
:1094600000200346524625A1404614F0D9F81FFAC1
:1094700080F9484608B0BDE8F0870000463702088A
:109480003D256300593702085E370208EC3B002097
:109490003D257300653702086C37020873370208F0
:1094A0007A3702083D2530387800000082370208FC
:1094B0008D370208973702083D307825303878001C
:1094C000A5370208B9370208CC3702083D256400E9
:1094D000D8370208E4370208F0370208FF370208DD
:1094E0003D253034640000000C3802083D2530333F
:1094F0006400000022380208303D00203D25303253
:10950000643B25643B25643B25643B25643B256423
:109510003B25643B25643B25640A00002DE9F84F98
:1095200005468A4617461C46DDE90A8900260020C2
:109530000090012089F80000072229466548FBF7C2
:10954000C8FE18BBED1D902263496448FBF789FEF5
:109550006946284600F0A6F990225F495F48FBF76C
:10956000ABFE80B11C225C4974315D48FBF7A4FE60
:1095700038B11C22584974315948FBF772FE01F08A
:109580007DF80DF099FD01202070A0E0072229460A
:109590005448FBF79EFE60B9ED1D4F4A39462846F8
:1095A000FFF7B0FD0646002EEFD1012088F800003D
:1095B0008DE00A2229464C48FBF78BFEB8B90A35E4
:1095C000902245494548FBF74CFE742244497C39BA
:1095D0004248FBF746FE414A39462846FFF792FDCE
:1095E0000646002E73D1012088F800006FE00822A3
:1095F00029463E48FBF76DFE38B9083569462846CE
:1096000000F050F90120207061E008222946384816
:10961000FBF75FFE98B91C222F4974313048FBF7E5
:109620004BFE38B11C222C4974312D48FBF719FE32
:1096300001F024F80DF040FD0120207047E00C22DD
:1096400029462C48FBF745FED8B90C359022224913
:109650002248FBF706FE6946284600F023F97422EB
:109660001D491E48FBF728FE18B1002000F0ECF859
:1096700004E0902219491848FBF7F3FD01202070FF
:1096800025E00D2229461C48FBF723FE28B90020BF
:1096900000F0DAF80120207019E00A222946174864
:1096A000FBF717FE28B90020FFF7ECFC0120207023
:1096B0000DE00A2229461248FBF70BFE20B900F004
:1096C000E5F80120207002E0002089F80000304613
:1096D000BDE8F88FFB360208B43C0020443D002072
:1096E00000400020E8360208F03602081037020871
:1096F00019370208033702082237020830370208F8
:109700003B37020810B500F09FFB00F08FFF48B90F
:10971000742230493048FBF7A4FD00F0DFFF00F071
:1097200085FF40E02C48083890F87800072817DCBF
:109730002948083890F87900072811DC26480838AD
:1097400090F87A0007280BDC2348083890F87B0053
:10975000002805DB2048083890F87B0007281DDD2D
:109760001C4890F870101C48083880F87810194888
:1097700090F871101848083880F87910154890F85A
:1097800072101548083880F87A10124890F8731053
:109790001148083880F87B1000F0A0FF74220E49B1
:1097A0000C48FBF75EFD00F013FF58B91C22094975
:1097B000743109487C30FBF754FD00F05FFF00F086
:1097C00007FF06E01C2204497C3102487430FBF795
:1097D00048FD10BDB43C0020843F0020F0B50C468D
:1097E000002513B1561EF1B200E0002120E0665CB6
:1097F000144F07EB161696F800C02E466F1CFDB2EC
:1098000000F806C0665C06F00F060E4F17F806C09B
:109810002E466F1CFDB200F806C02BB94E1CF6B2E6
:109820003146964204DB04E001B902E04E1EF1B27B
:10983000DDE700BF4FF0000C2E466F1CFDB200F8B4
:1098400006C0F0BD2638020810B5044674220D4942
:109850000D48FBF706FD00F041FF00F0E7FE1C227B
:109860000849743108487C30FBF7FBFC00F006FF28
:1098700000F0AEFE0DF020FC14B172B60BF038FB18
:1098800010BD0000B43C0020843F002010B57422BD
:1098900002490348FBF7E5FC10BD0000843F0020AF
:1098A000B43C0020F0B585B007460E460097C1E2F3
:1098B000009800783D2814D10098401C00900E229A
:1098C0003946FD48FBF705FD60B93346012200210A
:1098D0000098FFF7FFFBF949897860F34101F748E9
:1098E0008170A4E204223946F548FBF7F2FC60B926
:1098F0003346012200210098FFF7ECFBEF498978FD
:1099000060F30001ED48817091E203223946ED4891
:10991000FBF7DFFC60B93346012200210098FFF716
:10992000D9FBE649897860F38201E44881707EE2E0
:1099300006223946E448FBF7CCFC70B90023082224
:1099400001A9009801F050F90828CAD1DB48C01CD1
:10995000019901600299416069E206223946DB48BB
:10996000FBF7B7FC70B90023082201A9009801F0A9
:109970003BF90828B5D1D1480B3001990160029913
:10998000416054E206223946D148FBF7A2FC70B987
:109990000023102201A9009801F026F91028A0D177
:1099A000102201A9C5481330FBF75BFC3FE20622F9
:1099B0003946C848FBF78DFC38B90022114600989B
:1099C000FBF758FDBD49486231E207223946C248DB
:1099D000FBF77FFC38B9102200210098FBF74AFD05
:1099E000B649886223E20A223946BC48FBF771FC7B
:1099F00090B90023102201A9009801F0F5F8102871
:109A000007D1AE4801A991E80E102C30A0E80E1045
:109A10000DE2012030700AE209223946B048FBF716
:109A200058FC90B90023102201A9009801F0DCF83D
:109A3000102807D1A14801A991E80E103C30A0E8F8
:109A40000E10F4E101203070F1E10D223946A548F5
:109A5000FBF73FFC38B9002211460098FBF70AFDDE
:109A60009649C864E3E1132239469F48FBF731FC6D
:109A700090B90023102201A9009801F0B5F8102830
:109A800007D18E4801A991E80E105030A0E80E10C1
:109A9000CDE101203070CAE1122239469348FBF72C
:109AA00018FC90B90023102201A9009801F09CF83D
:109AB000102807D1814801A991E80E106030A0E874
:109AC0000E10B4E101203070B1E10B223946884814
:109AD000FBF7FFFB60B90098FBF704FDC5B2072D4B
:109AE00003DC764880F87050A1E1012030709EE1DF
:109AF0000B2239467F48FBF7ECFB60B90098FBF777
:109B0000F1FCC5B2072D03DC6C4880F871508EE182
:109B1000012030708BE10B2239467748FBF7D9FBE7
:109B200060B90098FBF7DEFCC5B2072D03DC634883
:109B300080F872507BE10120307078E10E223946C6
:109B40006E48FBF7C6FB70B90098FBF7CBFCC5B2BB
:109B5000002D05DB072D03DC584880F8735066E1C3
:109B60000120307063E10C2239466548FBF7B1FBF8
:109B700050B9334642F20F7200210098FFF7AAFA5B
:109B800080B24E49486752E1152239465D48FBF7DD
:109B9000A0FB50B93346632200210098FFF79AFAE0
:109BA000C1B2464880F88C1041E10322394656483C
:109BB000FBF78FFB002884D137E10099881EFBF763
:109BC00091FCC5B2012D01DB082D00DD2EE1681EE0
:109BD000C5B20120A840C4B233460A220021009831
:109BE000FFF778FAC1B235487C304155684601F03C
:109BF00045FA00B91AE13346012200210098FFF727
:109C000069FA38B12D4890F88D0020432B4981F82E
:109C10008D0006E0294890F88D00A043274981F87F
:109C20008D00684601F02AFA00B9FFE033460122B0
:109C300000210098FFF74EFA38B1204890F88400D0
:109C400020431E4981F8840006E01C4890F88400F7
:109C5000A0431A4981F88400684601F00FFA00B960
:109C6000E4E03346012200210098FFF733FA38B1CF
:109C7000124890F885002043104981F8850006E0DD
:109C80000E4890F88500A0430C4981F8850068468D
:109C900001F0F4F900B9C9E033460122002100982F
:109CA000FFF718FA38B1054890F8860020430349B9
:109CB00081F8860031E029E046370208B43C0020F4
:109CC00059370208553702085E370208653702081F
:109CD0006C370208733702087A37020882370208A5
:109CE0008D37020897370208A5370208B9370208EE
:109CF000CC370208D8370208E4370208F0370208E8
:109D0000FF3702080C380208223802084D4890F844
:109D10008600A0434B4981F88600684601F0AEF901
:109D200000B983E03346012200210098FFF7D2F901
:109D300038B1444890F887002043424981F88700B1
:109D400006E0404890F88700A0433E4981F887002C
:109D5000684601F093F900B968E03346012200211A
:109D60000098FFF7B7F938B1364890F888002043DB
:109D7000344981F8880006E0324890F88800A04312
:109D8000304981F88800684601F078F900B94DE063
:109D90003346012200210098FFF79CF938B1294889
:109DA00090F889002043274981F8890006E025487A
:109DB00090F88900A043234981F88900684601F0A2
:109DC0005DF900B932E03346012200210098FFF727
:109DD00081F938B11B4890F88A002043194981F86D
:109DE0008A0006E0174890F88A00A043154981F8D8
:109DF0008A00684601F042F900B917E033460122B3
:109E000000210098FFF766F938B10E4890F88B00F2
:109E100020430C4981F88B0006E00A4890F88B003B
:109E2000A043084981F88B0000E0C6E600BF009817
:109E3000401C00900098007800287FF439AD05B0F0
:109E4000F0BD0000B43C002010B590210248FBF7A3
:109E500021FA15F053FB10BDB43C002010B50248A8
:109E600016F0E8F810BD0000A844002010B501224B
:109E70000449054816F09EFD08B9012010BD0020D8
:109E8000FCE70000A0430208A844002038B50446BF
:109E90000D46002000906B462A462146024816F0E7
:109EA000DCFF009880B238BDA84400202DE9F04FB7
:109EB00093B00546884616461F4614210EA8FBF7A8
:109EC000E9F900200D900024099008900790069071
:109ED000B8F1000F76D03878002873D101200690B1
:109EE00008222946E748FBF7F4F940BB083572B66B
:109EF0002878312805D1E448007840F00100E24993
:109F0000087000BF00BF00BF00BF00BFBFF34F8F8E
:109F100000BF00BF00BFDD48006800F4E060DC491E
:109F20000843001DD949086000BF00BF00BFBFF350
:109F30004F8F00BF00BF00BF00BF00BFFDE708227A
:109F40002946D448FBF7C5F900283CD1D24800780F
:109F500008B1802000E00020D049097809B14021F3
:109F600000E000210843CE49097809B1202100E032
:109F7000002140EA01090AF02FFB824600F0A4FD0F
:109F800083460C20012100225B46CDE9002102908E
:109F90001122C4A1304613F043FB84B203A807F09A
:109FA000DDFA301900230C2203A9FFF717FC04F196
:109FB000180084B2301953464A46BFA113F030FB53
:109FC000204484B20CE10D222946BD48FBF781F9FB
:109FD000B8B90D352878312803D10120B949087066
:109FE0000CE02878302803D10020B649087005E03D
:109FF000B448007880F00100B24908700120089050
:10A00000EEE00C222946B048FBF763F918B90120AD
:10A01000AE490870E4E00C222946AD48FBF759F937
:10A0200020B917F039FE01200890D9E00C2229460A
:10A03000A848FBF74EF998B904A905A808F0EDFA6D
:10A0400018F0C4FA81469DF9100000909DF8143074
:10A050004A46A1A1304613F0E3FA204484B2BFE09F
:10A06000072229469F48FBF734F9E0B90EA90DA84D
:10A07000FDF72EFC9DF83A009DF839209DF8381028
:10A080009DF83630CDE90031CDE902209DF835301C
:10A090009DF8370000F5FA6293A1304613F0C0FA3C
:10A0A000204484B29CE0072229469748FBF711F927
:10A0B000E0BBED1D0DF132020CA8811E0BABCDE90A
:10A0C0000031CDE90202831F0AAA90A12846FBF7BE
:10A0D0000FF906282ED1BDF82800642190FBF1F27B
:10A0E00001FB1200C0B28DF83700BDF82A00C0B2E3
:10A0F0008DF83500BDF82C00C0B28DF83600BDF8E3
:10A100002E00C0B28DF83800BDF83000C0B28DF816
:10A110003900BDF83200C0B28DF83A000EA90DA882
:10A12000FDF7E0FC18B10120089059E005E001209E
:10A13000079055E00120079052E00F2229467C4805
:10A14000FBF7C7F850B909F073FA09905BA13046E4
:10A15000099A13F065FA204484B241E00C222946A2
:10A160007448FBF7B6F8A0B90C3509AA53A12846E4
:10A17000FBF7BEF808B9002009906F48099909F06B
:10A180006BFAF8B100206D490870804601203870E4
:10A1900026E00E2229466A48FBF79BF818B909F019
:10A1A000F1F908901CE00C2229466648FBF791F86B
:10A1B00048B9FFF75BFE28B10120604908704FF0F5
:10A1C000000838700CE00020069006A807A908AB2C
:10A1D0003246CDE9001041462846FFF79FF9044674
:10A1E000387830B314F042FF5448007878B98021B1
:10A1F000304609F083FA044614B1B8F1000F3CD0A0
:10A200004D48007809F0AEF90020387035E04B4831
:10A210000078012831D180213046FFF737FE04460F
:10A2200014B1B8F1000F28D0FFF718FE00203870E5
:10A2300023E09DF8200030B1301943A113F0F0F96C
:10A24000204484B212E09DF81C0030B130193FA1C7
:10A2500013F0E6F9204484B208E09DF8180028B90C
:10A2600030193DA113F0DCF9204484B22CB130192F
:10A270003BA113F0D5F9204484B2204613B0BDE8C9
:10A28000F08F000058360208F0BF00200CED00E00F
:10A290000000FA0561360208F8030020F9030020E7
:10A2A0000404002025753B25753B25753B25303280
:10A2B000752E253032753B003B25753B257500001A
:10A2C0007A36020815040020883602081604002099
:10A2D00095360208A236020825753B25753B257583
:10A2E000000000006A360208253034752D25303212
:10A2F000752D2530327520253032753A253032756E
:10A300003A25303275000000723602082530346874
:10A31000752D25303268752D253032687520253031
:10A320003268753A25303268753A253032687500E2
:10A33000AF360208BF3602081704002018040020B8
:10A34000CC360208DB3602084F6B000050617261A8
:10A350006D45727200000000436D6445727200002A
:10A360000D0A000030B50246002300200AE0012457
:10A370008440144001258540AC4201D15C1CE3B20D
:10A38000441CE0B28842F2DB184630BD10B50246EC
:10A390000B460020002116E001210FE014780C404C
:10A3A0000CB180F0010000F0010424B141F221045D
:10A3B00084EA600000E040104C06210E0029EDD137
:10A3C0005C1EA3B2521C002BE6DC10BD70B5044627
:10A3D000656A284601F0DDF90120287170BD70B56D
:10A3E0000446656A284601F099F90120287170BD7C
:10A3F00070B505466C6A206940F004002061204673
:10A4000001F0DBF90120207170BD70B505466C6A62
:10A41000206940F004002061204601F08DF9012000
:10A42000207170BD70B50446656A284601F0B2F926
:10A4300070BD70B50446656A284601F071F970BDBB
:10A4400010B51548007860B91448007848B101206B
:10A450001149087041F25C021149124801F0BAF842
:10A4600018E00E480078A8B10C480078401E0B494F
:10A4700008700846007868B90B480068406841F2E7
:10A480005C01081A09490860064801F011F900202A
:10A490000149087010BD0000DC030020D203002039
:10A4A000F8170020F404002048050020D403002001
:10A4B00010B501F0D5FA01F0E7FA01F0DBFA10BDB2
:10A4C00010B5024801F04AFB10BD0000380700201B
:10A4D00010B5024801F042FB10BD0000A0080020AA
:10A4E00030B590F840500124AC40C56B6C600468F6
:10A4F00063604468102C04D10468A2600468E160C1
:10A5000003E00468A1600468E26030BD70470000A9
:10A5100000B585B014216846FAF7BCFE002010494A
:10A520000870202009F0BAFB0E4811F0EBFC002067
:10A5300001900220039002906A4681020A4806F0C8
:10A5400051FF6A464FF48051074806F04BFF002048
:10A5500002906A462021054806F044FF05B000BD80
:10A5600004040020D44400200000024000080240FF
:10A57000054A1268054BB2FBF3F202FB00F100E062
:10A58000491E0029FCD1704700000020404B4C00C0
:10A5900030B5024600231046D41702EB1474C4F3FE
:10A5A0000713042B01DC102A01DB002030BD10460C
:10A5B000D41702EB14742411A2EB04150124AC404F
:10A5C00031F8135025EA040421F813400120EDE787
:10A5D00070B57C2411480444242221461048FAF71F
:10A5E00040FE22210E48801CFFF7D0FE05460C4895
:10A5F0007C38D0F880000B49884209D108487C3863
:10A60000B0F87C00A84203D101200749087002E09D
:10A610000020054908700448007870BD0000080853
:10A62000F83F0020785634122904002010B57C220F
:10A630000E4801680E48FAF714FE7A210C48801C77
:10A64000FFF7A4FE04460A4840680A49884207D139
:10A6500007480088A04203D101200749087002E0A2
:10A660000020054908700448007810BD2C04002023
:10A670007C3F0020785634122804002070B5012653
:10A68000134D0021A5F17C0080F87E101149C0F81F
:10A69000801022217E30FFF779FEA5F17C01A1F820
:10A6A0007C0001F06DFB01F0F3FB002409E00A4897
:10A6B000211802202A6801F097FB00B10026241D12
:10A6C0002D1D242CF3D301F085FB304670BD000016
:10A6D000F83F0020785634127C00080870B5012637
:10A6E000104D0020294688700F4848607A21A81C28
:10A6F000FFF74CFE2946088001F042FB01F0C8FB41
:10A70000002409E00948211802202A6801F06CFBA6
:10A7100000B10026241D2D1D7C2CF3D301F05AFB23
:10A72000304670BD7C3F0020785634120000080887
:10A7300010B5012001F066FC10BD10B54FF480602B
:10A7400001F060FC4FF4006001F05CFC4FF48050BD
:10A7500001F058FC4FF4005001F054FC4FF48040DD
:10A7600001F050FC4FF4004001F04CFC10BD10B55E
:10A77000022001F047FC10BD10B5042001F042FC9E
:10A7800010BD10B5082001F03DFC10BD10B5102023
:10A7900001F038FC10BD10B5202001F033FC402042
:10A7A00001F030FC802001F02DFC4FF4807001F0AE
:10A7B00029FC4FF4007001F025FC10BD00BFFEE73E
:10A7C00030B504460D4600222946204600F002F826
:10A7D00030BD0000F0B50346012500241148807B00
:10A7E00002281CDC00200F4EB67B0E4FB8553846B1
:10A7F000867B001D40F82630001F867B0C3082557A
:10A800003E46B07B461CBE73044604F1300008701F
:10A810003A2048702F2088700020C87000252846F4
:10A82000F0BD00004C16002010B504460021204663
:10A8300000F002F810BD000030B502460B460021C2
:10A8400001200D4CA47B012C14DB1478303CE1B2C8
:10A85000094C241D54F8214064B10025064C241DE8
:10A8600044F82150083465540C3CA47B641E024D0E
:10A87000AC73002030BD00004C16002070B50446BB
:10A880000D4600264CF2503000F0C0F806465EB986
:10A890000648006820F480700449086025704CF276
:10A8A000503000F0B3F80646304670BD043C02401C
:10A8B00070B504460D4600264CF2503000F0A6F864
:10A8C00006465EB90648006820F4807004490860B6
:10A8D00025804CF2503000F099F80646304670BDA5
:10A8E000043C024070B504460D4600264CF2503040
:10A8F00000F08CF806465EB90648006820F48070C7
:10A900000449086025604CF2503000F07FF806469C
:10A91000304670BD043C024070B504460D4600262A
:10A920004CF2503000F072F806462EB925704CF209
:10A93000503000F06BF80646304670BD70B50446E6
:10A940000D4600264CF2503000F060F806462EB955
:10A9500025804CF2503000F059F80646304670BD64
:10A9600070B504460D4600264CF2503000F04EF80B
:10A9700006462EB925604CF2503000F047F80646E6
:10A98000304670BD00201F49096801F48071B1F59F
:10A99000807F07D11C49496941F002011A4A51617F
:10A9A00040F480701749096801F40071B1F5007F27
:10A9B00007D11549496941F00101134A516140F439
:10A9C00000701049096801F40061B1F5006F07D10A
:10A9D0000D49496941F004010B4A516140F400609E
:10A9E0000849096801F48051B1F5805F07D1064933
:10A9F000496941F02001044A516140F48050014905
:10AA000008607047183C0240DC04002070B5044622
:10AA100001F00AFC054609E0601C38B124B101F0E0
:10AA200003FC401BA04201D9032070BD17480068F9
:10AA300000F001000028EFD11448006800F0020087
:10AA4000022801D1114908601048006800F48070A4
:10AA5000B0F5807F14D00D48006800F40060B0F5B8
:10AA6000006F0DD00948006800F48050B0F5805F99
:10AA700006D00648006800F40070B0F5007F03D1EE
:10AA8000FFF780FF0120D0E70020CEE7183C02400E
:10AA90000246002111E00B4850F8310090420AD8DC
:10AAA000084B481C53F83000904204D9184600EB7C
:10AAB000C10000797047481CC1B21529EBD300BF13
:10AAC000FEE700009C30020800B585B014216846FE
:10AAD000FAF7E0FB4148007800287BD101203F498C
